:100000000C94B2000C94DA000C94DA000C94690899
:100010000C948D080C94B1080C94DA000C94DA005E
:100020000C94DA000C94DA000C94DA000C94DA00E8
:100030000C94DA000C94DA000C94DA000C94DA00D8
:100040000C94D10B0C94DA000C94040E0C94470E13
:100050000C94DA000C94DA000C94DA000C94DA00B8
:100060000C94DA000C94DA0000C2010001001100C7
:1000700011000C0000E100000A002500250021000D
:10008000009600001900390039003600127A00008D
:100090001F004600460044008070000022004D0012
:1000A0004D004A00004B00003600750075007200DC
:1000B000403800004A009C009C0099008025000008
:1000C0007200EC00EC00E900C0120000E900DA0167
:1000D000DA01D70160090000D701B603B603B30304
:1000E000B0040000B3036E076E076B0758020000F0
:1000F0006E07DC0EDC0ED80E2C010000DC0EC11DDC
:10010000C11DBE1D0000000700020100000304061F
:1001100000000000000000000102040810204080E0
:100120000102040810200102040810200404040441
:100130000404040402020202020203030303030391
:100140000000000023002600290000000000250018
:1001500028002B0000000000240027002A00D804FB
:10016000030FEB0411241FBECFEFD8E0DEBFCDBFDD
:1001700012E0A0E0B1E0ECE5F2E302C005900D92E0
:10018000A230B107D9F714E0A2E0B2E001C01D929D
:10019000AE33B107E1F711E0C2E6D1E004C0229727
:1001A000FE010E94D115CE35D107C9F70E94590F23
:1001B0000C9421190C94000088E092E00E94150A2A
:1001C00080E492E00E94660F87E492E00C94660F50
:1001D000CF93C82F61E00E94D40C60E08C2FCF91A8
:1001E0000C940D0D0F931F93CF93DF9300E011E05C
:1001F000C0E2D0E0F80141918F01BE0186E893E0B2
:100200000E94CD0B2196C732D105A1F7DF91CF9186
:100210001F910F9108950F931F93CF93DF9365E282
:1002200070E086E893E00E94CA0B90E020910501FF
:10023000332727FD30958217930779F564E270E044
:1002400086E893E00E94CA0B90E0209104013327D6
:1002500027FD30958217930701F563E270E086E889
:1002600093E00E94CA0B90E020910301332727FD01
:1002700030958217930789F400E011E0C0E2D0E0E6
:10028000BE0186E893E00E94CA0BF80181938F01BA
:100290002196C732D105A1F706C0DF91CF911F91FA
:1002A0000F910C94F200DF91CF911F910F9108955F
:1002B000CF93DF93C0E0D0E040E0BE0186E893E05A
:1002C0000E94CD0B2196C11582E0D807A9F764EFF3
:1002D00071E080E090E00E944A0CE0910602F0910B
:1002E0000702DF91CF9109941F928F938EE091E0E6
:1002F0009F938F931F9283E08F9382E092E09F936E
:100300008F930E941C168DB79EB708960FB6F8946F
:100310009EBF0FBE8DBF82E092E00895CF92DF9224
:10032000EF92FF920E941B0CC0903402D0903502D5
:10033000E0903602F09037026C157D058E059F0522
:1003400098F48091300290913102A0913202B091E4
:1003500033020196A11DB11D8093300290933102AA
:10036000A0933202B09333020E941B0C60933402BC
:1003700070933502809336029093370228EE33E073
:1003800040E050E00E94991569017A012091300205
:1003900030913102409132025091330267E379E8A3
:1003A00081E490E00E947515C60ED71EE81EF91E66
:1003B000C0923802D0923902E0923A02F0923B02A7
:1003C00010923C0280912C0290912D02A0912E025D
:1003D000B0912F02C816D906EA06FB0659F0C09262
:1003E0002C02D0922D02E0922E02F0922F0281E098
:1003F00080933C02FF90EF90DF90CF90089588ECBF
:1004000080937C0080917A00806880937A0064E118
:1004100070E080E090E00E944A0C80917A00806455
:1004200080937A0080917A0086FDFCCF60917800FD
:100430007091790080E090E00E946A1420E030E83A
:1004400048EA53E40E946C1326EF38E24CE95FE37C
:100450000E94D1130895FC0140E070E09F01281B29
:10046000390B261737071CF42191420FF7CF842F41
:100470000895BC0180E993E00E944A1164E170E0B4
:1004800080E090E00C944A0CCF93DF93CDB7DEB7B9
:1004900027970FB6F894DEBF0FBECDBF66E489E0A4
:1004A0000E94400B61E084E00E940D0D61E08AE053
:1004B0000E940D0D80910001813029F081E0809330
:1004C00000010E94F20063E171E087E492E00E9483
:1004D0000C10609101017091020187E492E00E948A
:1004E000921060E271E087E492E00E94501067E4AD
:1004F00072E0CE0101960E940210CE0101960E9488
:100500003902CE0101960E94660F27960FB6F89425
:10051000DEBF0FBECDBFDF91CF910895CF93DF93A4
:10052000CDB7DEB727970FB6F894DEBF0FBECDBFAD
:10053000019719F40E94440236C060E084E00E94F2
:100540000D0D60E08AE00E940D0D60E089E00E94E0
:10055000400B80910001882321F0109200010E943D
:10056000F20068E271E087E492E00E940C10609172
:1005700001017091020187E492E00E94921060E212
:1005800071E087E492E00E94501067E472E0CE01CF
:1005900001960E940210CE0101960E943902CE01FE
:1005A00001960E94660F27960FB6F894DEBF0FBE25
:1005B000CDBFDF91CF9108950F931F93CF93DF931A
:1005C000CDB7DEB727970FB6F894DEBF0FBECDBF0D
:1005D0008B0150E040E0252F30E0FC01201731076F
:1005E00034F4E20FF31F2081420F5F5FF4CFE00F7E
:1005F000F11F80818417D9F068E371E087E492E00D
:100600000E940C10B80187E492E00E94601067E439
:1006100072E0CE0101960E940210CE0101960E9466
:100620003902CE0101960E94660F80E001C081E090
:1006300027960FB6F894DEBF0FBECDBFDF91CF91E6
:100640001F910F9108950F931F93CF93DF93CDB711
:10065000DEB727970FB6F894DEBF0FBECDBFFC0103
:1006600082818133E9F481818230A9F4438150E0B1
:10067000542F44278481480F511DCA0101978F30A0
:10068000974248F4509302014093010160E070E00A
:1006900089E00E94B30B0E94440281E090E021C1F6
:1006A000823339F480E090E00E948E0280E090E096
:1006B00018C18333F9F480910001813019F469E4A1
:1006C00071E002C068E571E087E492E00E940C10DE
:1006D00067E472E0CE0101960E940210CE010196FD
:1006E0000E943902CE0101960E94660F809100019E
:1006F00090E0F7C0843309F053C08181823019F44F
:10070000038110E002C00AE010E080E090E00E9467
:100710008E0261E085E00E940D0D61E086E00E949E
:100720000D0D61E087E00E940D0DC801AA2797FD1D
:10073000A095BA2F409138025091390260913A0247
:1007400070913B02840F951FA61FB71F8093240250
:1007500090932502A0932602B09327026AE671E0E7
:1007600087E492E00E940C10B80187E492E00E94B6
:10077000601065E771E087E492E00E94501067E442
:1007800072E0CE0101960E940210CE0101960E94F5
:100790003902CE0101960E94660F84E090E0A1C06C
:1007A0008533B9F4438150E0542F44278481480FA6
:1007B000511DCA0101978F30974208F08DC05093A8
:1007C00002014093010160E070E089E00E94B30BF8
:1007D00083C0863329F40E94F20086E090E081C055
:1007E000873339F56FE771E087E492E00E940C10DF
:1007F0006DE771E087E492E00E9450106BE871E0D1
:1008000087E492E00E94501067E472E0CE01019606
:100810000E940210CE0101960E943902CE0101967B
:100820000E94660F67E472E088E092E00E94FA108E
:1008300056C0883319F40E94580151C0893309F019
:100840004EC08181823019F4038110E002C00AE0B9
:1008500010E080E090E00E948E02C801AA2797FD78
:10086000A095BA2F409138025091390260913A0216
:1008700070913B02840F951FA61FB71F809328021B
:1008800090932902A0932A02B0932B0261E085E0A5
:100890000E940D0D64E971E087E492E00E940C1063
:1008A000B80187E492E00E94601065E771E087E498
:1008B00092E00E94501067E472E0CE0101960E941F
:1008C0000210CE0101960E943902CE0101960E94CB
:1008D000660F89E090E005C085E090E002C083E605
:1008E00090E027960FB6F894DEBF0FBECDBFDF9124
:1008F000CF911F910F9108950E940B0140E855E29E
:1009000060E070E080E993E00E94820E60E082E0A7
:100910000E94D40C61E083E00E94D40C40E855E2D0
:1009200060E070E088E092E00E94530984E090E08B
:100930000E94E80085E090E00E94E80086E090E0F8
:100940000E94E80087E090E00E94E8008AE090E0E2
:100950000E94E8008DE090E00E94E80060E08CE0FA
:100960000E94D40C61E08CE00E940D0D0E94AD0B42
:10097000409101015091020160E070E089E00E9425
:10098000B30B882321F061E08DE00E940D0D809172
:100990000001813019F40E94440204C080E090E01C
:1009A0000E948E0264EF71E080E090E00C944A0CAB
:1009B0006EE771E087E492E00E94D40F6EE771E089
:1009C00080E492E00E94D40F20E043E062E088E0FF
:1009D00092E00C9423090C94DC00EF92FF921F9399
:1009E000CF93DF931F92CDB7DEB77C01162F63E262
:1009F00088E092E079830E94F707612F88E092E017
:100A00000E94F707E0910802F09109020280F38149
:100A1000E02D412F5981B70188E092E00995612FBF
:100A2000C7010E942B02682F88E092E00E94F7071E
:100A300064E170E080E090E00F90DF91CF911F9132
:100A4000FF90EF900C944A0CCF93DF931092CA0260
:100A5000109251021092500280E993E00E946C0DB6
:100A600018161906DCF4C0915002D091510280E9A9
:100A700093E00E94990DC653DD4F88838091500208
:100A80009091510201969093510280935002FC0183
:100A9000E653FD4F108288379105F4F260915002C1
:100AA000709151021616170674F4615071098AECA0
:100AB00092E00E94DC02882331F08AEC92E0DF9120
:100AC000CF910C942303DF91CF910895EF92FF9281
:100AD0000F931F93CF93DF93CDB7DEB72D970FB64C
:100AE000F894DEBF0FBECDBF88E092E00E943507CC
:100AF000181619060CF0A3C01092520210924F0261
:100B000010924E0288E092E00E94350718161906EE
:100B1000E4F400914E0210914F0288E092E00E94AE
:100B2000FA06F801EE5AFD4F808380914E029091B3
:100B30004F02019690934F0280934E02FC01EE5AB1
:100B4000FD4F108288379105ECF28DE00E94430D35
:100B500061E0892B09F060E08DE00E940D0D60914D
:100B60004E0270914F02161617060CF068C06150C5
:100B7000710982E592E00E94DC02882309F45FC0DB
:100B800080915202803409F05AC082E592E00E94BE
:100B9000230390933F0280933E028336910509F42C
:100BA0004EC08E01085F1F4F96E0F80111929A9592
:100BB000E9F78887809100018987809101019091F0
:100BC00002019A878B870E94FF0120E030E040E21B
:100BD00051E40E94F8140E9439147C876D8766E006
:100BE00070E0C8010E94ED046FE971E087E492E0D3
:100BF0000E940C107E01FEE0EF0EF11C6DE771E02B
:100C000087E492E00E945010F80181918F010E94C8
:100C10007401BC0187E492E00E9450100E151F057C
:100C200069F767E472E0CE0101960E940210CE01DE
:100C300001960E943902CE0101960E94660F2D9600
:100C40000FB6F894DEBF0FBECDBFDF91CF911F91DD
:100C50000F91FF90EF900895CF93DF93CDB7DEB75C
:100C600027970FB6F894DEBF0FBECDBF0E948E014E
:100C70008CE00E94430D80930701811110C081E038
:100C800090E020910001222311F080E090E00E948A
:100C90008E0264EF71E080E090E00E944A0C0E94B6
:100CA00024050E9466058091280290912902A09156
:100CB0002A02B0912B020097A105B10589F140915C
:100CC00038025091390260913A0270913B028417C8
:100CD0009507A607B70720F560E085E00E940D0D97
:100CE000109228021092290210922A0210922B02CE
:100CF00060E08AE00E940D0D63EA71E087E492E013
:100D00000E940C1067E472E0CE0101960E9402106E
:100D1000CE0101960E943902CE0101960E94660F13
:100D20008091280290912902A0912A02B0912B0271
:100D3000892B8A2B8B2B71F080913C02882351F0F8
:100D400061E080913D02811160E060933D028AE0A4
:100D50000E940D0D8091240290912502A0912602FF
:100D6000B09127020097A105B105A9F14091380281
:100D70005091390260913A0270913B0284179507B5
:100D8000A607B70740F560E085E00E940D0D60E022
:100D900086E00E940D0D60E087E00E940D0D10922C
:100DA000240210922502109226021092270264EB70
:100DB00071E087E492E00E940C1067E472E0CE01DB
:100DC00001960E940210CE0101960E943902CE01C6
:100DD00001960E94660F65E070E080E090E00E945E
:100DE0004A0C27960FB6F894DEBF0FBECDBFDF9139
:100DF000CF910895209184033091850328173907F6
:100E0000B9F49091420380914303981789F0E091DF
:100E10004203F0E0EC5BFC4F80812091420330E024
:100E20002F5F3F4F2F7333272093420390E00895A5
:100E30008FEF9FEF08952091840330918503281749
:100E4000390781F49091420380914303981751F040
:100E5000E0914203F0E0EC5BFC4F8081992787FD35
:100E6000909508958FEF9FEF08952091840330911E
:100E700085032817390771F48091430320914203B9
:100E800090E0805C9F4F821B910960E470E00E94BB
:100E90008515089580E090E00895209184033091B5
:100EA00085032817390739F48FB7F8941092430354
:100EB000109242038FBF0895DC015196ED91FC9191
:100EC0005297208150968C9180958223808308953B
:100ED00020E001972FEF8F3F9207D9F708952091D7
:100EE0008403309185032817390789F0FC01238D8D
:100EF0002E7F238F2FB7F894109243031092420352
:100F000090938503809384032FBF81E0089580E050
:100F10000895EF92FF920F931F93CF93DF93EC010D
:100F20008B8DEE85FF859D8581FF04C0808189239F
:100F300029F447C08081892309F043C08B899C89AB
:100F40000E94680708E010E0EE24E394F12C8D89FC
:100F50009E890E946807EE85FF8580819D85892393
:100F600011F0FE2803C08E2D8095F822EE0C015062
:100F700011090115110559F78F89988D0E9468078D
:100F80008B8D81FDF094809143032091420390E08A
:100F900001968F73992730E08217930779F0E091DB
:100FA0004303F0E0EC5BFC4FF0828091430390E060
:100FB00001968F7399278093430303C08B8D8160C3
:100FC0008B8FDF91CF911F910F91FF90EF9008953C
:100FD000611102C00C945C07DC015196ED91FC910B
:100FE0005297208150968C91282B20830895DF9270
:100FF000EF92FF920F931F93CF93DF93EC01E62EB6
:10100000898D9A8D892B39F481E090E09B838A83C6
:1010100080E090E04DC0DFB6F8946B8D669561700E
:10102000CE010E94E807898D9A8D05960E94680777
:101030008B8D08E010E0FF24F39481FF19C08F2D01
:101040008E2121F0CE010E945C0704C061E0CE0138
:101050000E94E807898D9A8D0E946807FF0C015055
:1010600011090115110559F7CE010E945C0719C03D
:101070008F2D8E2129F061E0CE010E94E80703C088
:10108000CE010E945C07898D9A8D0E946807FF0C33
:10109000015011090115110559F761E0CE010E94B7
:1010A000E807DFBE898D9A8D0E94680781E090E095
:1010B000DF91CF911F910F91FF90EF90DF900895F6
:1010C0008091840390918503009711F00C94890717
:1010D00008951F920F920FB60F9211242F933F93F2
:1010E0004F935F936F937F938F939F93AF93BF9330
:1010F000EF93FF930E946008FF91EF91BF91AF9132
:101100009F918F917F916F915F914F913F912F911F
:101110000F900FBE0F901F9018951F920F920FB651
:101120000F9211242F933F934F935F936F937F936D
:101130008F939F93AF93BF93EF93FF930E946008A9
:10114000FF91EF91BF91AF919F918F917F916F919F
:101150005F914F913F912F910F900FBE0F901F9075
:1011600018951F920F920FB60F9211242F933F9351
:101170004F935F936F937F938F939F93AF93BF939F
:10118000EF93FF930E946008FF91EF91BF91AF91A1
:101190009F918F917F916F915F914F913F912F918F
:1011A0000F900FBE0F901F9018951F93CF93DF9352
:1011B000EC01162F61E0812F0E94D40C61E0812F99
:1011C0000E940D0D812F90E0FC01E85EFE4FE4913E
:1011D000E88BFC01E45DFE4FE491F0E0EE0FFF1FB1
:1011E000E65BFE4F859194919A8B898BDF91CF912D
:1011F0001F9108951F93CF93DF93EC01162F60E0AA
:10120000812F0E94D40C8B8D81FD04C061E0812F61
:101210000E940D0D1C87812F90E0FC01E85EFE4FBF
:10122000E491ED87FC01E45DFE4FE491F0E0EE0F08
:10123000FF1FE05CFE4F859194919F878E87DF9121
:10124000CF911F910895FF920F931F93CF93DF9338
:10125000EC01F62E522F1B821A8208EE13E020E0DA
:1012600030E00C831D832E833F8389EC91E09983CA
:1012700088831C8A1B8A1E8A1D8A188E1F8A1A8ED2
:10128000198E8B8D8E7F50FB81F98B8F642FCE0151
:101290000E94D5086F2DCE01DF91CF911F910F9144
:1012A000FF900C94FA080F931F93CF93DF93EC01F8
:1012B0001A8E198E188E1F8A1E8A1D8AA8E6B0E023
:1012C00080E090E0FD01059115912591349104177E
:1012D00015072607370719F54CE0489F9001499FED
:1012E000300D1124F901E459FF4F859194919C8BA5
:1012F0008B8BF901E259FF4F859194919E8B8D8BD9
:10130000F901E059FF4F85919491988F8F8B2E585A
:101310003F4FF901859194919A8F898F08C001966A
:101320001C968D30910509F0CDCF1C8A1B8A8F89C0
:10133000988D892B09F443C08C858631E0F5209186
:101340006800883050F091E08E3008F490E081E041
:1013500001C0880F9A95EAF701C084E0822B809340
:1013600068002C85283038F02E3040F0263148F0C7
:10137000E0E0F0E008C0EDE6F0E005C0EBE6F0E00C
:1013800002C0ECE6F0E03081283030F481E001C0AA
:10139000880F2A95EAF70DC0822F90E02E3010F4C6
:1013A000089701C00E9791E001C0990F8A95EAF75E
:1013B000892F832B8083898D9A8D0E946807CE01A7
:1013C000DF91CF911F910F910C946F07FC01448521
:1013D000463150F5483028F04E3030F4EBE6F0E07E
:1013E00005C0EDE6F0E002C0ECE6F0E050814830E8
:1013F00040F481E090E0042E01C0880F0A94EAF7DF
:1014000010C0242F30E04E3018F42850310902C0AB
:101410002E50310981E090E0022E01C0880F0A941D
:10142000EAF7809585238083089529EC31E0FC015B
:10143000318320830C94E609E1E8F0E09081877025
:10144000987F892B80830895CF92DF92EF92FF924D
:101450006B017C01DC01CB010197A109B109803846
:101460009448AE41B10508F041C0A70196016EEF66
:101470007FEF81E090E00E9475159B01AC0160E078
:1014800074E284EF90E00E949915E0E061E06E0F55
:10149000F0E0EE0FFF1FEB51FE4F8081918182172C
:1014A000930710F4E62FF2CFA7019601220F331F06
:1014B000441F551FE62EF12CF701EE0FFF1FEB51D5
:1014C000FE4FA081B1810E946A159B01AC0160E0D2
:1014D00074E284EF90E00E94991530938700209386
:1014E0008600C7010E941C0A81E001C080E0FF90D5
:1014F000EF90DF90CF900895E0E8F0E080818C7F5E
:101500008083E1E8F0E08081877E8061808364EF02
:1015100071E080E090E00C94240AFC01EB5BFF4F4B
:101520008081887F6770862B80830895FC01EB5B48
:10153000FF4F8081887F6770862B808308954F924C
:101540005F926F927F928F929F92AF92BF92CF9253
:10155000DF92EF92FF92CF93DF93EC016A017B0160
:10156000DB01CA014F97A109B10982369448AE4107
:10157000B10508F05BC0AEEFB1E09A01AB010E948B
:101580006A159B01AC0160E074E284EF90E00E9478
:10159000991546015701880C991CAA1CBB1CD12C1B
:1015A000412C84E2582E84EF682E712CCC36D10564
:1015B00069F0D394ED2DF0E0EE0FFF1FEB51FE4FDD
:1015C000E080F180E216F306A0F30CC0D394ED2D79
:1015D000F0E0EE0FFF1FEB52FE4FE080F180E216CD
:1015E000F306A0F3D701A50194010E946A159B019F
:1015F000AC01C301B2010E9499152F3F310519F0CA
:1016000010F09701D3CFFE01E95BFF4F20836D2DD2
:1016100070E0CC36D10521F0CE010E948D0A04C0C5
:101620008CE690E00E94960A81E001C080E0DF91A4
:10163000CF91FF90EF90DF90CF90BF90AF909F90B1
:101640008F907F906F905F904F900895FC01EC5BBE
:10165000FF4F20812C7F21602083FC01EB5BFF4F3B
:10166000208128602083009729F420916E002E7F2E
:1016700020936E0044EF51E060E070E00C949F0A0C
:101680001F93CF93DF93C82F162F61E00E94D40CD5
:10169000111102C060E003C01F3F39F461E08C2FDC
:1016A000DF91CF911F910C940D0DEC2FF0E0EC5FCA
:1016B000FE4FE491E330D1F050F4E23079F584B597
:1016C000806284BD27B530E0C8E4D0E037C0E430A4
:1016D000C9F0E73019F58091B00080628093B000C6
:1016E0002091B30030E0C4EBD0E028C080918000AE
:1016F0008068809380002091860030918700C8E840
:10170000D0E00FC0809180008062809380002091A3
:10171000860030918700CAE8D0E003C017FFBACF37
:10172000BDCFA12FB0E00E945B152FEF30E040E06D
:1017300050E00E949915398328830BC0A12FB0E097
:101740000E945B152FEF30E040E050E00E949915B9
:101750002883DF91CF911F9108950E947C0A8CE627
:1017600090E00C94260BE82FFF27E7FDF095EC5F47
:10177000FE4FE4918DEF8E0F823020F4CB01BA0141
:101780000C94240AE73021F48CE690E00C949F0A34
:1017900080E00895CB010C941E18CB01642F0C94AB
:1017A00026181F920F920FB60F9211242F933F937A
:1017B0008F939F93AF93BF938091880390918903F8
:1017C000A0918A03B0918B033091870323E0230F0C
:1017D0002D3720F40196A11DB11D05C026E8230F69
:1017E0000296A11DB11D20938703809388039093D7
:1017F0008903A0938A03B0938B0380918C0390910B
:101800008D03A0918E03B0918F030196A11DB11D90
:1018100080938C0390938D03A0938E03B0938F03DA
:10182000BF91AF919F918F913F912F910F900FBEDC
:101830000F901F9018952FB7F894609188037091BE
:10184000890380918A0390918B032FBF08953FB73E
:10185000F89480918C0390918D03A0918E03B091A8
:101860008F0326B5A89B05C02F3F19F00196A11D37
:10187000B11D3FBF6627782F892F9A2F620F711DE8
:10188000811D911D42E0660F771F881F991F4A95A1
:10189000D1F70895CF92DF92EF92FF92CF93DF932B
:1018A0006B017C010E94270CEB01C114D104E104FF
:1018B000F10479F00E94270C6C1B7D0B683E73408D
:1018C000A0F381E0C81AD108E108F108C851DC4F43
:1018D000ECCFDF91CF91FF90EF90DF90CF90089504
:1018E000789484B5826084BD84B5816084BD85B5FB
:1018F000826085BD85B5816085BDEEE6F0E08081C2
:1019000081608083E1E8F0E01082808182608083E2
:10191000808181608083E0E8F0E080818160808365
:10192000E1EBF0E0808184608083E0EBF0E0808197
:1019300081608083EAE7F0E0808184608083808139
:1019400082608083808181608083808180688083E1
:101950001092C1000895833081F028F4813099F00D
:101960008230A1F008958630A9F08730B9F0843034
:10197000D1F4809180008F7D03C0809180008F77AB
:1019800080938000089584B58F7702C084B58F7DE1
:1019900084BD08958091B0008F7703C08091B0001E
:1019A0008F7D8093B0000895CF93DF9390E0FC018A
:1019B000E85EFE4F2491FC01E45DFE4F8491882394
:1019C00049F190E0880F991FFC01EC5AFE4FA59158
:1019D000B491865B9E4FFC01C591D4919FB7611174
:1019E00008C0F8948C91209582238C93888182235F
:1019F0000AC0623051F4F8948C91322F30958323D1
:101A00008C938881822B888304C0F8948C91822BDC
:101A10008C939FBFDF91CF9108950F931F93CF9326
:101A2000DF931F92CDB7DEB7282F30E0F901EC5FCE
:101A3000FE4F8491F901E85EFE4F1491F901E45DD7
:101A4000FE4F04910023C9F0882321F069830E948E
:101A5000AB0C6981E02FF0E0EE0FFF1FE65BFE4F5D
:101A6000A591B4919FB7F8948C91611103C0109522
:101A7000812301C0812B8C939FBF0F90DF91CF9169
:101A80001F910F910895CF93DF93282F30E0F90134
:101A9000EC5FFE4F8491F901E85EFE4FD491F901AD
:101AA000E45DFE4FC491CC2391F081110E94AB0CF8
:101AB000EC2FF0E0EE0FFF1FE05CFE4FA591B4911C
:101AC0002C912D2381E090E021F480E002C080E0A1
:101AD00090E0DF91CF910895FC0124853585F901CF
:101AE000E05CFF4F80819181F901EE5BFF4F208127
:101AF0003181821B930B8F7399270895FC01848594
:101B00009585FC01E05CFF4F40815181FC01EE5B5B
:101B1000FF4F208131814217530741F00190F0813E
:101B2000E02DE80FF91F808190E008958FEF9FEF7F
:101B30000895FC0184859585FC01E05CFF4F4081A0
:101B40005181FC01EE5BFF4F208131814217530729
:101B500079F0A081B181A80FB91F8C9120813181CA
:101B60002F5F3F4F2F7333273183208390E00895F9
:101B70008FEF9FEF0895FC0181A1882329F0A489AC
:101B8000B5898C9186FFFBCF11A20895CF93DF9387
:101B9000FC0126853785D901A05CBF4F8D919C91B2
:101BA000119701968F739927E901CE5BDF4F48812A
:101BB000598184179507D9F30D90BC91A02DA20FE0
:101BC000B31F6C93A685B785A05CBF4F11969C93FD
:101BD0008E93A689B7892C9181E090E0078C02C092
:101BE000880F991F0A94E2F7282B2C9381E081A398
:101BF0000488F589E02D80818064808381E090E015
:101C0000DF91CF91089508951F920F920FB60F9212
:101C100011242F933F934F938F939F93EF93FF93B1
:101C20008091C00082FD1CC04091C60080913604A6
:101C30009091370401968F73992720913804309141
:101C400039048217930771F0E0913604F09137045C
:101C5000EA50FC4F4083909337048093360402C0CF
:101C60008091C600FF91EF919F918F914F913F918D
:101C70002F910F900FBE0F901F90189580E993E061
:101C80000E946C0D892B11F00C94030E08951F9285
:101C90000F920FB60F9211242F933F938F939F9320
:101CA000EF93FF932091F2033091F3038091F403BB
:101CB0009091F5032817390731F48091C1008F7D89
:101CC0008093C10014C0E091F403F091F503EE5449
:101CD000FC4F20818091F4039091F50301968F735E
:101CE00099279093F5038093F4032093C600FF9106
:101CF000EF919F918F913F912F910F900FBE0F9079
:101D00001F901895CF92DF92EF92FF92CF93DF93BF
:101D1000EC016A017B01411581EE580761057105EF
:101D2000F9F0EC89FD8981E090E008A002C0880FFD
:101D3000991F0A94E2F7808360E079E08DE390E0F8
:101D4000A70196010E9499152150310941095109B5
:101D50005695479537952795211580E1380798F0D6
:101D6000EC89FD89108260E874E88EE190E0A701BB
:101D700096010E9499152150310941095109569542
:101D8000479537952795E889F9893083EA89FB8952
:101D9000208319A2EE89FF89408181E090E09C01B7
:101DA0000C8C02C0220F331F0A94E2F7422B4083AF
:101DB000EE89FF8940819C010D8C02C0220F331FE8
:101DC0000A94E2F7422B4083EE89FF8940819C010F
:101DD0000E8C02C0220F331F0A94E2F7422B40837D
:101DE000EE89FF8920810F8C02C0880F991F0A9409
:101DF000E2F7809582238083DF91CF91FF90EF906F
:101E0000DF90CF900895109293031092920388EE82
:101E100093E0A0E0B0E08093940390939503A093A7
:101E20009603B093970385EF91E09093910380938D
:101E3000900386EF93E090939D0380939C0382EB45
:101E400093E090939F0380939E0385EC90E09093A2
:101E5000A1038093A00384EC90E09093A30380936C
:101E6000A20380EC90E09093A5038093A40381ECFF
:101E700090E09093A7038093A60382EC90E0909368
:101E8000A9038093A80386EC90E09093AB03809322
:101E9000AA0384E08093AC0383E08093AD0387E0E2
:101EA0008093AE0385E08093AF0381E08093B0031D
:101EB00008950E94700C0E947C04CEE3DEE00E9434
:101EC0002C062097E1F30E943E0EF9CFFC018081A1
:101ED00091810C94DD12CF93DF93EC01888199817D
:101EE000009711F00E94DD12198218821D821C8257
:101EF0001B821A82DF91CF9108950F931F93CF9386
:101F0000DF93EC018B016F5F7F4F888199810E9485
:101F10005C11009731F0998388831B830A8381E0E9
:101F200001C080E0DF91CF911F910F910895CF9371
:101F3000DF93EC0188819981892B29F08A819B812B
:101F40008617970760F4CE010E947D0F882341F029
:101F50008C819D81892B19F4E881F981108281E0BF
:101F6000DF91CF910895EF92FF920F931F93CF933C
:101F7000DF93EC017B018A01BA010E94970F811166
:101F800004C0CE010E946B0F07C01D830C83B701F4
:101F9000888199810E94DE15CE01DF91CF911F913A
:101FA0000F91FF90EF900895FC011182108213822F
:101FB00012821582148216826115710559F0FB0197
:101FC00001900020E9F7AF0141505109461B570B22
:101FD0000C94B30F0895CF93DF93EC01FB018617A8
:101FE000970761F0608171816115710529F0448165
:101FF00055810E94B30F02C00E946B0FCE01DF918A
:10200000CF910895FC0111821082138212821582F1
:10201000148216820C94EB0FCF93DF93EC016115C1
:10202000710561F0FB0101900020E9F7AF0141501B
:102030005109461B570B0E94B30F02C00E946B0F41
:10204000CE01DF91CF910895EF92FF920F931F93EE
:10205000CF93DF93EC017B010C811D81611571052C
:1020600011F480E016C04115510591F0040F151FC1
:10207000B8010E94970F8823A1F3288139818C81B0
:102080009D81B701820F931F0E94DE151D830C8373
:1020900081E0DF91CF911F910F91FF90EF90089514
:1020A0006115710559F0FB0101900020E9F7AF01BE
:1020B00041505109461B570B0C94241080E00895A1
:1020C000EF92FF920F931F93CF93DF93CDB7DEB7BD
:1020D00027970FB6F894DEBF0FBECDBF7C01CB01B2
:1020E0004AE050E08E010F5F1F4FB8010E94E515D6
:1020F000F80101900020E9F7AF0141505109401B60
:10210000510BB801C7010E94241027960FB6F8940E
:10211000DEBF0FBECDBFDF91CF911F910F91FF901A
:10212000EF900895EF92FF920F931F93CF93DF9359
:1021300000D000D000D0CDB7DEB77C01CB014AE0A3
:1021400050E08E010F5F1F4FB8010E940616F80184
:1021500001900020E9F7AF0141505109401B510B9C
:10216000B801C7010E94241026960FB6F894DEBF6E
:102170000FBECDBFDF91CF911F910F91FF90EF90D8
:102180000895FC01248135816217730748F480812A
:102190009181009729F0FC01E60FF71F80810895D7
:1021A00080E00895CF92DF92EF92FF920F931F93FA
:1021B000CF93DF936C017A01EB01E60EF71E00E08E
:1021C00010E0CE15DF0561F06991D601ED91FC912B
:1021D0000190F081E02DC6010995080F191FF1CF7C
:1021E000C801DF91CF911F910F91FF90EF90DF9089
:1021F000CF900895AF92BF92CF92DF92EF92FF926D
:102200000F931F93CF93DF937C016B01C0E0D0E06D
:1022100000E010E0D60114968D919C911597C81797
:10222000D90788F4D701ED91FC91A080B180BE015F
:10223000C6010E94C110682FC701F5010995080F5A
:10224000191F2196E7CFC801DF91CF911F910F9100
:10225000FF90EF90DF90CF90BF90AF900895DC019A
:10226000ED91FC910190F081E02D09940F931F9363
:10227000CF93DF93EC016DE00E942F118C016AE097
:10228000CE010E942F11800F911FDF91CF911F91DE
:102290000F9108950F931F93CF93DF93EC010E944A
:1022A000FA108C01CE010E943611800F911FDF9130
:1022B000CF911F910F9108956F927F928F929F926D
:1022C000AF92BF92CF92DF92EF92FF920F931F9344
:1022D000CF93DF93EC01CB01209781F4DF91CF9175
:1022E0001F910F91FF90EF90DF90CF90BF90AF9034
:1022F0009F908F907F906F900C944512FE01E60F97
:10230000F71F9E0122503109E217F30708F4ACC011
:10231000D9010D911C91119706171707B8F00530D8
:10232000110508F49FC0A8014450510946175707EA
:1023300008F498C002501109061B170B0193119362
:102340006D937C93CF010E94DD128CC05B01A01ABB
:10235000B10A4E01800E911EA0913C04B0913D0443
:10236000612C712C60E070E0109709F449C0A81549
:10237000B905C9F5ED90FC901197670142E0C40ED4
:10238000D11CCA14DB0478F147018A189B08640148
:1023900042E0C40ED11C1296BC9012971396AC91D9
:1023A000B5E0CB16D10440F0B282A3839182808243
:1023B000D9018D939C9309C00E5F1F4F0E0D1F1DF9
:1023C000F90111830083EB2DFA2F6115710531F0AE
:1023D000DB011396FC93EE93129744C0F0933D04F7
:1023E000E0933C043FC06D917C911197661677068F
:1023F00008F43B01BD0112960D90BC91A02DB4CF05
:1024000060913A0470913B0468157905E9F4681607
:102410007906D0F440910801509109014115510508
:1024200041F44DB75EB760910C0170910D01461BF0
:10243000570BE417F507C0F4F0933B04E0933A041C
:10244000F901918380830EC00E9445127C010097A0
:1024500059F0A801BE010E94D515CE010E94DD12DF
:10246000C70104C0CE0102C080E090E0DF91CF91AF
:102470001F910F91FF90EF90DF90CF90BF90AF90A2
:102480009F908F907F906F900895CF93DF938230CD
:10249000910510F482E090E0E0913C04F0913D045D
:1024A00020E030E0A0E0B0E0309739F14081518188
:1024B00048175907B8F04817590771F4828193817A
:1024C000109729F013969C938E9312972CC090939B
:1024D0003D0480933C0427C02115310531F042179B
:1024E000530718F0A901DB0101C0EF019A01BD01FA
:1024F000DF010280F381E02DD7CF21153105F9F0FE
:10250000281B390B2430310580F48A819B816115A9
:10251000710521F0FB019383828304C090933D04F5
:1025200080933C04FE01329644C0FE01E20FF31F8B
:102530008193919322503109398328833AC02091A5
:102540003A0430913B04232B41F420910A0130914D
:102550000B0130933B0420933A0420910801309101
:1025600009012115310541F42DB73EB740910C0109
:1025700050910D01241B350BE0913A04F0913B047E
:10258000E217F307A0F42E1B3F0B2817390778F04A
:10259000AC014E5F5F4F2417350748F04E0F5F1FA9
:1025A00050933B0440933A048193919302C0E0E03E
:1025B000F0E0CF01DF91CF910895CF93DF930097A3
:1025C00009F487C0FC01329713821282C0913C0447
:1025D000D0913D04209781F420813181280F391F4B
:1025E00080913A0490913B048217930779F5F09318
:1025F0003B04E0933A046DC0DE0120E030E0AE170A
:10260000BF0750F412964D915C9113979D014115AF
:10261000510509F1DA01F3CFB383A28340815181DF
:10262000840F951F8A179B0771F48D919C911197C8
:10263000840F951F02969183808312968D919C91B1
:102640001397938382832115310529F4F0933D0478
:10265000E0933C043EC0D9011396FC93EE9312978D
:102660004D915D91A40FB51FEA17FB0779F48081A6
:102670009181840F951F0296D90111969C938E9398
:102680008281938113969C938E931297E0E0F0E001
:102690008A819B81009719F0FE01EC01F9CFCE01F0
:1026A000029628813981820F931F20913A0430913C
:1026B0003B042817390769F4309729F410923D0438
:1026C00010923C0402C013821282D0933B04C09348
:1026D0003A04DF91CF9108955058BB27AA270ED016
:1026E0004DC13ED130F043D120F031F49F3F11F481
:1026F0001EF433C10EF4E095E7FB29C1E92F4FD159
:1027000080F3BA17620773078407950718F071F40E
:102710009EF567C10EF4E0950B2EBA2FA02D0B018C
:10272000B90190010C01CA01A0011124FF27591B16
:1027300099F0593F50F4503E68F11A16F040A22F1C
:10274000232F342F4427585FF3CF4695379527958D
:10275000A795F0405395C9F77EF41F16BA0B620B8C
:10276000730B840BBAF09150A1F0FF0FBB1F661FD3
:10277000771F881FC2F70EC0BA0F621F731F841F16
:1027800048F4879577956795B795F7959E3F08F03C
:10279000B3CF9395880F08F09927EE0F97958795FB
:1027A00008950CD0EBC0E3D040F0DAD030F021F443
:1027B0005F3F19F0CCC0511115C1CFC0F0D098F3D4
:1027C0009923C9F35523B1F3951B550BBB27AA27B2
:1027D00062177307840738F09F5F5F4F220F331F24
:1027E000441FAA1FA9F333D00E2E3AF0E0E830D0F0
:1027F00091505040E695001CCAF729D0FE2F27D0F3
:10280000660F771F881FBB1F261737074807AB07C0
:10281000B0E809F0BB0B802DBF01FF2793585F4F35
:102820002AF09E3F510568F092C0DCC05F3FECF398
:10283000983EDCF3869577956795B795F7959F5FFA
:10284000C9F7880F911D9695879597F90895E1E04E
:10285000660F771F881FBB1F621773078407BA07AD
:1028600020F0621B730B840BBA0BEE1F88F7E09508
:10287000089504D06894B111B5C0089598D088F037
:102880009F5790F0B92F9927B751A0F0D1F0660F5C
:10289000771F881F991F1AF0BA95C9F712C0B13077
:1028A00081F09FD0B1E008959CC0672F782F8827D2
:1028B000B85F39F0B93FCCF3869577956795B395B6
:1028C000D9F73EF490958095709561957F4F8F4F25
:1028D0009F4F0895E89409C097FB3EF4909580952A
:1028E000709561957F4F8F4F9F4F9923A9F0F92FD6
:1028F00096E9BB279395F695879577956795B79554
:10290000F111F8CFFAF4BB0F11F460FF1BC06F5F39
:102910007F4F8F4F9F4F16C0882311F096E911C04B
:10292000772321F09EE8872F762F05C0662371F06C
:1029300096E8862F70E060E02AF09A95660F771F80
:10294000881FDAF7880F9695879597F9089597F974
:102950009F6780E870E060E008959FEF80EC089545
:1029600000240A941616170618060906089500246E
:102970000A9412161306140605060895092E0394E8
:10298000000C11F4882352F0BB0F40F4BF2B11F45C
:1029900060FF04C06F5F7F4F8F4F9F4F089557FDBB
:1029A0009058440F551F59F05F3F71F04795880FBD
:1029B00097FB991F61F09F3F79F087950895121654
:1029C00013061406551FF2CF4695F1DF08C0161600
:1029D00017061806991FF1CF8695710561050894B1
:1029E0000895E894BB2766277727CB0197F90895C8
:1029F0000BD0C4CFB5DF28F0BADF18F0952309F06B
:102A0000A6CFABCF1124EECFCADFA0F3959FD1F3B1
:102A1000950F50E0551F629FF001729FBB27F00D8C
:102A2000B11D639FAA27F00DB11DAA1F649F6627E1
:102A3000B00DA11D661F829F2227B00DA11D621F30
:102A4000739FB00DA11D621F839FA00D611D221FEA
:102A5000749F3327A00D611D231F849F600D211DCE
:102A6000822F762F6A2F11249F5750408AF0E1F071
:102A700088234AF0EE0FFF1FBB1F661F771F881FBA
:102A800091505040A9F79E3F510570F060CFAACFFA
:102A90005F3FECF3983EDCF3869577956795B795A5
:102AA000F795E7959F5FC1F7FE2B880F911D9695CF
:102AB000879597F90895A29FB001B39FC001A39F86
:102AC000700D811D1124911DB29F700D811D112467
:102AD000911D08950E945B15A59F900DB49F900DC8
:102AE000A49F800D911D11240895DB018F939F9366
:102AF0000E946A15BF91AF91A29F800D911DA39F67
:102B0000900DB29F900D1124089597FB072E16F497
:102B1000009407D077FD09D00E94BB1507FC05D0B3
:102B20003EF4909581959F4F0895709561957F4FE4
:102B30000895A1E21A2EAA1BBB1BFD010DC0AA1FFE
:102B4000BB1FEE1FFF1FA217B307E407F50720F016
:102B5000A21BB30BE40BF50B661F771F881F991F91
:102B60001A9469F760957095809590959B01AC01DA
:102B7000BD01CF010895AA1BBB1B51E107C0AA1FCD
:102B8000BB1FA617B70710F0A61BB70B881F991F0E
:102B90005A95A9F780959095BC01CD010895EE0F47
:102BA000FF1F0590F491E02D0994FB01DC0102C0A8
:102BB00001900D9241505040D8F70895FB01DC017F
:102BC00001900D920020E1F70895FB019F01E89428
:102BD0004230C4F04532B4F44A3029F497FB1EF475
:102BE000909581959F4F642F77270E94BB15805D3C
:102BF0008A330CF0895D8193CB010097A1F716F41D
:102C00005DE251931082C9010C944A18FB019F01A7
:102C1000423074F0453264F4642F77270E94BB156C
:102C2000805D8A330CF0895D8193CB010097A1F719
:102C30001082C9010C944A18AEE0B0E0E2E2F6E17D
:102C40000C94F8180D891E898F89988D26E02C83A5
:102C50001A83098397FF02C080E090E801979E8362
:102C60008D83AE01455E5F4F698D7A8DCE010196F1
:102C70000E944C164D815E8157FD0AC02F81388518
:102C8000421753070CF49A01F801E20FF31F108268
:102C90002E96E4E00C941419ACE0B0E0E2E5F6E125
:102CA0000C94EA187C016B018A01FC0117821682E0
:102CB000838181FFBDC1CE0101964C01F701938153
:102CC000F60193FD859193FF81916F01882309F4AB
:102CD000ABC1853239F493FD859193FF81916F01EA
:102CE000853229F4B70190E00E945A18E7CF512CA1
:102CF000312C20E02032A0F48B3269F030F48032A5
:102D000059F0833269F420612CC08D3239F0803360
:102D100039F4216026C02260246023C0286021C0CD
:102D200027FD27C030ED380F3A3078F426FF06C073
:102D3000FAE05F9E300D1124532E13C08AE0389EB6
:102D4000300D1124332E20620CC08E3221F426FD6A
:102D50006BC1206406C08C3611F4206802C088362E
:102D600041F4F60193FD859193FF81916F018111EB
:102D7000C1CF982F9F7D9554933028F40C5F1F4F3F
:102D8000FFE3F9830DC0833631F0833771F083356B
:102D900009F05BC022C0F801808189830E5F1F4F5C
:102DA00044244394512C540115C03801F2E06F0EB5
:102DB000711CF801A080B18026FF03C0652D70E072
:102DC00002C06FEF7FEFC5012C870E943F182C01D6
:102DD00083012C852F77222E17C03801F2E06F0E69
:102DE000711CF801A080B18026FF03C0652D70E042
:102DF00002C06FEF7FEFC5012C870E9434182C01B1
:102E00002C852068222E830123FC1BC0832D90E09B
:102E100048165906B0F4B70180E290E00E945A18B3
:102E20003A94F4CFF50127FC859127FE81915F014B
:102E3000B70190E00E945A1831103A94F1E04F1A0D
:102E400051084114510471F7E5C0843611F08936F8
:102E500039F5F80127FF07C0608171818281938174
:102E60000C5F1F4F08C060817181882777FD8095B6
:102E7000982F0E5F1F4F2F76B22E97FF09C09095A7
:102E80008095709561957F4F8F4F9F4F2068B22E30
:102E90002AE030E0A4010E948C18A82EA81844C093
:102EA000853729F42F7EB22E2AE030E025C0F22F9C
:102EB000F97FBF2E8F36C1F018F4883579F0B4C091
:102EC000803719F0883721F0AFC02F2F2061B22E44
:102ED000B4FE0DC08B2D8460B82E09C024FF0AC03B
:102EE0009F2F9660B92E06C028E030E005C020E193
:102EF00030E002C020E132E0F801B7FE07C0608197
:102F00007181828193810C5F1F4F06C06081718146
:102F100080E090E00E5F1F4FA4010E948C18A82E45
:102F2000A818FB2DFF77BF2EB6FE0BC02B2D2E7FD2
:102F3000A51450F4B4FE0AC0B2FC08C02B2D2E7E9E
:102F400005C07A2C2B2D03C07A2C01C0752C24FFD0
:102F50000DC0FE01EA0DF11D8081803311F4297E40
:102F600009C022FF06C07394739404C0822F867830
:102F700009F0739423FD13C020FF06C05A2C73146C
:102F800018F4530C5718732C731468F4B70180E2CB
:102F900090E02C870E945A1873942C85F5CF7314F7
:102FA00010F4371801C0312C24FF12C0B70180E3A0
:102FB00090E02C870E945A182C8522FF17C021FF11
:102FC00003C088E590E002C088E790E0B7010CC03C
:102FD000822F867859F021FD02C080E201C08BE289
:102FE00027FD8DE2B70190E00E945A18A51438F42D
:102FF000B70180E390E00E945A185A94F7CFAA9440
:10300000F401EA0DF11D8081B70190E00E945A1889
:10301000A110F5CF332009F451CEB70180E290E042
:103020000E945A183A94F6CFF7018681978102C020
:103030008FEF9FEF2C96E2E10C940619F999FECFE1
:1030400092BD81BDF89A992780B50895262FF999E8
:10305000FECF1FBA92BD81BD20BD0FB6F894FA9A7B
:10306000F99A0FBE01960895FC01059061507040D9
:103070000110D8F7809590958E0F9F1F0895FC0141
:103080006150704001900110D8F7809590958E0F97
:103090009F1F0895DC01FC01672F71917723E1F7F1
:1030A000329704C07C916D9370836291AE17BF0715
:1030B000C8F308950F931F93CF93DF93182F092F11
:1030C000EB018B8181FD03C08FEF9FEF20C082FF5A
:1030D00010C04E815F812C813D81421753077CF4E3
:1030E000E881F9819F012F5F3F4F39832883108347
:1030F00006C0E885F985812F0995892B29F72E814E
:103100003F812F5F3F4F3F832E83812F902FDF9191
:10311000CF911F910F910895FA01AA27283051F1FC
:10312000203181F1E8946F936E7F6E5F7F4F8F4FF8
:103130009F4FAF4FB1E03ED0B4E03CD0670F781F57
:10314000891F9A1FA11D680F791F8A1F911DA11D3C
:103150006A0F711D811D911DA11D20D009F4689475
:103160003F912AE0269F11243019305D3193DEF61D
:10317000CF010895462F4770405D4193B3E00FD0D3
:10318000C9F7F6CF462F4F70405D4A3318F0495DBE
:1031900031FD4052419302D0A9F7EACFB4E0A695A1
:1031A0009795879577956795BA95C9F700976105C3
:1031B000710508959B01AC010A2E06945795479519
:1031C00037952795BA95C9F7620F731F841F951F0E
:1031D000A01D08952F923F924F925F926F927F921F
:1031E0008F929F92AF92BF92CF92DF92EF92FF9217
:1031F0000F931F93CF93DF93CDB7DEB7CA1BDB0BC3
:103200000FB6F894DEBF0FBECDBF09942A88398867
:1032100048885F846E847D848C849B84AA84B9846E
:10322000C884DF80EE80FD800C811B81AA81B9817A
:10323000CE0FD11D0FB6F894DEBF0FBECDBFED018E
:10324000089511E0C2E6D1E004C0FE010E94D1154C
:0C3250002296C436D107C9F7F894FFCFCE
:10325C0000C800303031000100003E0480002530F1
:10326C003278002A2A2A414354495641444F2000BF
:10327C0028487A292A2A2A002A2A2A4445534143D3
:10328C0054495641444F20004552524F522043520C
:10329C00432C206C6173743D002A2A2A4143544903
:1032AC005641444F2A2A2A002A2A2A44455341438C
:1032BC0054495641444F2A2A2A002A2A2A52455355
:1032CC00455432200020736567732A2A2A20004E49
:1032DC006F7620313120323031330031333A303196
:1032EC003A3332002A2A2A52455345543120003DA4
:1032FC003D3E002A2A2A52455345543120454E441E
:10330C002A2A2A002A2A2A52455345543220454E4D
:10331C00442A2A2A0000000000F707D2103507FAC9
:10332C00061B074D0700000100080020004000802C
:10333C000000010004000001000800400000010032
:10334C000400000000C60DD2106C0D990D7E0DBB53
:02335C000D0062
:00000001FF
