:100000000C94B2000C94DA000C94DA000C944708BB
:100010000C946B080C948F080C94DA000C94DA00A2
:100020000C94DA000C94DA000C94DA000C94DA00E8
:100030000C94DA000C94DA000C94DA000C94DA00D8
:100040000C94AF0B0C94DA000C94E20D0C94250E7A
:100050000C94DA000C94DA000C94DA000C94DA00B8
:100060000C94DA000C94DA0000C2010001001100C7
:1000700011000C0000E100000A002500250021000D
:10008000009600001900390039003600127A00008D
:100090001F004600460044008070000022004D0012
:1000A0004D004A00004B00003600750075007200DC
:1000B000403800004A009C009C0099008025000008
:1000C0007200EC00EC00E900C0120000E900DA0167
:1000D000DA01D70160090000D701B603B603B30304
:1000E000B0040000B3036E076E076B0758020000F0
:1000F0006E07DC0EDC0ED80E2C010000DC0EC11DDC
:10010000C11DBE1D0000000700020100000304061F
:1001100000000000000000000102040810204080E0
:100120000102040810200102040810200404040441
:100130000404040402020202020203030303030391
:100140000000000023002600290000000000250018
:1001500028002B0000000000240027002A00CC0407
:10016000E10EDF0411241FBECFEFD8E0DEBFCDBF0C
:1001700012E0A0E0B1E0EAE3FEE202C005900D92D9
:10018000A630B107D9F714E0A6E0B2E001C01D9295
:10019000A234B107E1F711E0C2E6D1E004C0229732
:1001A000FE010E94C013CE35D107C9F70E94370F58
:1001B0000C9410170C9400008CE092E00E94F3095C
:1001C00084E492E00E94440F8BE492E00C94440F8C
:1001D000CF93C82F61E00E94B20C60E08C2FCF91CA
:1001E0000C94EB0C0F931F93CF93DF9300E011E07F
:1001F000C0E2D0E0F80141918F01BE018AE893E0AE
:100200000E94AB0B2196C732D105A1F7DF91CF91A8
:100210001F910F9108950F931F93CF93DF9365E282
:1002200070E08AE893E00E94A80B90E0209105011D
:10023000332727FD30958217930779F564E270E044
:100240008AE893E00E94A80B90E0209104013327F4
:1002500027FD30958217930701F563E270E08AE885
:1002600093E00E94A80B90E020910301332727FD23
:1002700030958217930789F400E011E0C0E2D0E0E6
:10028000BE018AE893E00E94A80BF80181938F01D8
:100290002196C732D105A1F706C0DF91CF911F91FA
:1002A0000F910C94F200DF91CF911F910F9108955F
:1002B000CF93DF93C0E0D0E040E0BE018AE893E056
:1002C0000E94AB0B2196C11582E0D807A9F764EF15
:1002D00071E080E090E00E94280CE0910A02F09129
:1002E0000B02DF91CF9109941F928F938EE091E0E2
:1002F0009F938F931F9283E08F9386E092E09F936A
:100300008F930E940B148DB79EB708960FB6F89482
:100310009EBF0FBE8DBF86E092E00895CF92DF9220
:10032000EF92FF920E94F90BC0903802D0903902F0
:10033000E0903A02F0903B026C157D058E059F051A
:1003400098F48091340290913502A0913602B091D8
:1003500037020196A11DB11D80933402909335029E
:10036000A0933602B09337020E94F90B60933802D3
:100370007093390280933A0290933B0228EE33E067
:1003800040E050E00E94881369017A012091340214
:1003900030913502409136025091370267E379E897
:1003A00081E490E00E946413C60ED71EE81EF91E79
:1003B000C0923C02D0923D02E0923E02F0923F0297
:1003C000109240028091300290913102A09132024D
:1003D000B0913302C816D906EA06FB0659F0C0925E
:1003E0003002D0923102E0923202F092330281E088
:1003F00080934002FF90EF90DF90CF900895FC0132
:1004000040E070E09F01281B390B261737071CF4CA
:100410002191420FF7CF842F0895BC0184E993E026
:100420000E94281164E170E080E090E00C94280CB8
:10043000CF93DF93CDB7DEB727970FB6F894DEBF23
:100440000FBECDBF66E489E00E941E0B61E084E030
:100450000E94EB0C61E08AE00E94EB0C80910001AD
:10046000813029F081E0809300010E94F20063E175
:1004700071E08BE492E00E94EA0F609101017091BB
:1004800002018BE492E00E94701060E271E08BE464
:1004900092E00E942E106BE472E0CE0101960E9461
:1004A000E00FCE0101960E940D02CE0101960E943E
:1004B000440F27960FB6F894DEBF0FBECDBFDF9175
:1004C000CF910895CF93DF93CDB7DEB727970FB6BF
:1004D000F894DEBF0FBECDBF019719F40E94180239
:1004E00036C060E084E00E94EB0C60E08AE00E948D
:1004F000EB0C60E089E00E941E0B809100018823D4
:1005000021F0109200010E94F20068E271E08BE499
:1005100092E00E94EA0F60910101709102018BE468
:1005200092E00E94701060E271E08BE492E00E9421
:100530002E106BE472E0CE0101960E94E00FCE0116
:1005400001960E940D02CE0101960E94440F27964B
:100550000FB6F894DEBF0FBECDBFDF91CF910895E7
:100560000F931F93CF93DF93CDB7DEB727970FB6C7
:10057000F894DEBF0FBECDBF8B0150E040E0252FC9
:1005800030E0FC012017310734F4E20FF31F208123
:10059000420F5F5FF4CFE00FF11F80818417D9F025
:1005A00068E371E08BE492E00E94EA0FB8018BE40B
:1005B00092E00E943E106BE472E0CE0101960E9430
:1005C000E00FCE0101960E940D02CE0101960E941D
:1005D000440F80E001C081E027960FB6F894DEBF9B
:1005E0000FBECDBFDF91CF911F910F910895EF9274
:1005F000FF920F931F93CF93DF93CDB7DEB727976B
:100600000FB6F894DEBF0FBECDBF8C0169E471E078
:100610008BE492E00E94EA0F78018091520290915F
:1006200053029701201B310B281739078CF461E81E
:1006300071E08BE492E00E942E10F70181917F011E
:100640000E947401BC018BE492E00E942E10E5CF61
:100650006BE472E0CE0101960E94E00FCE0101969C
:100660000E940D02CE0101960E94440FF801828182
:10067000813329F40E94180281E090E024C1823382
:1006800039F480E090E00E94620280E090E01BC1BB
:100690008333F9F480910001813019F46DE471E045
:1006A00002C06CE571E08BE492E00E94EA0F6BE41B
:1006B00072E0CE0101960E94E00FCE0101960E94E9
:1006C0000D02CE0101960E94440F8091000190E03E
:1006D000FAC0843309F054C0F8018181823019F4E2
:1006E000038110E002C00AE010E080E090E00E9488
:1006F000620261E085E00E94EB0C61E086E00E940E
:10070000EB0C61E087E00E94EB0CC801AA2797FD83
:10071000A095BA2F40913C0250913D0260913E025B
:1007200070913F02840F951FA61FB71F8093280268
:1007300090932902A0932A02B0932B026EE671E0F7
:100740008BE492E00E94EA0FB8018BE492E00E94F1
:100750003E1069E771E08BE492E00E942E106BE49A
:1007600072E0CE0101960E94E00FCE0101960E9438
:100770000D02CE0101960E94440F84E090E0A3C0D8
:100780008533C1F4F801438150E0542F442784811C
:10079000480F511DCA0101978F30974208F08EC053
:1007A000509302014093010160E070E089E00E94F3
:1007B000910B84C0863329F40E94F20086E090E019
:1007C00082C0873339F563E871E08BE492E00E94E0
:1007D000EA0F61E871E08BE492E00E942E106FE86E
:1007E00071E08BE492E00E942E106BE472E0CE0187
:1007F00001960E94E00FCE0101960E940D02CE01EB
:1008000001960E94440F6BE472E08CE092E00E943B
:10081000D81057C0883319F40E94580152C0893348
:1008200009F04FC0F8018181823019F4038110E092
:1008300002C00AE010E080E090E00E946202C8017D
:10084000AA2797FDA095BA2F40913C0250913D02F6
:1008500060913E0270913F02840F951FA61FB71F43
:1008600080932C0290932D02A0932E02B0932F021E
:1008700061E085E00E94EB0C68E971E08BE492E0B6
:100880000E94EA0FB8018BE492E00E943E1069E7F3
:1008900071E08BE492E00E942E106BE472E0CE01D6
:1008A00001960E94E00FCE0101960E940D02CE013A
:1008B00001960E94440F89E090E005C085E090E039
:1008C00002C083E690E027960FB6F894DEBF0FBE15
:1008D000CDBFDF91CF911F910F91FF90EF900895C1
:1008E0000E940B0140E855E260E070E084E993E08B
:1008F0000E94600E60E082E00E94B20C61E083E042
:100900000E94B20C40E855E260E070E08CE092E0BA
:100910000E94310984E090E00E94E80085E090E0C8
:100920000E94E80086E090E00E94E80087E090E006
:100930000E94E8008AE090E00E94E8008DE090E0EC
:100940000E94E80060E08CE00E94B20C61E08CE064
:100950000E94EB0C0E948B0B40910101509102010F
:1009600060E070E089E00E94910B882321F061E053
:100970008DE00E94EB0C80910001813019F40E94FF
:10098000180204C080E090E00E94620264EF71E00F
:1009900080E090E00C94280C62E871E08BE492E037
:1009A0000E94B20F62E871E084E492E00E94B20F0C
:1009B00020E043E062E08CE092E00C9401090C94AA
:1009C000DC00EF92FF921F93CF93DF931F92CDB77E
:1009D000DEB77C01162F63E28CE092E079830E94FF
:1009E000D507612F8CE092E00E94D507E0910C02C0
:1009F000F0910D020280F381E02D412F5981B70162
:100A00008CE092E00995612FC7010E94FF01682FD9
:100A10008CE092E00E94D50764E170E080E090E015
:100A20000F90DF91CF911F91FF90EF900C94280CC5
:100A3000CF93DF931092CE0210925502109254027F
:100A400084E993E00E944A0D18161906DCF4C0915F
:100A50005402D091550284E993E00E94770DC2536D
:100A6000DD4F8883809154029091550201969093B6
:100A7000550280935402FC01E253FD4F10828837E7
:100A80009105F4F260915402709155021616170602
:100A900074F4615071098EEC92E00E94B0028823D8
:100AA00031F08EEC92E0DF91CF910C94F702DF9160
:100AB000CF910895EF92FF920F931F93CF93DF93FF
:100AC000CDB7DEB72D970FB6F894DEBF0FBECDBF02
:100AD0008CE092E00E941307181619060CF08DC0E6
:100AE0001092560210925302109252028CE092E041
:100AF0000E94130718161906E4F40091520210918F
:100B000053028CE092E00E94D806F801EA5AFD4FA9
:100B100080838091520290915302019690935302E8
:100B200080935202FC01EA5AFD4F108288379105EA
:100B3000ECF26091520270915302161617060CF0F7
:100B40005CC06150710986E592E00E94B002882382
:100B500009F453C080915602803409F04EC086E5F6
:100B600092E00E94F7029093430280934202833600
:100B7000910509F442C08E01085F1F4F96E0F8010D
:100B800011929A95E9F78887809100018987809171
:100B90000101909102019A878B8766E070E0C8019D
:100BA0000E94E10463EA71E08BE492E00E94EA0FA4
:100BB0007E01FEE0EF0EF11C61E871E08BE492E053
:100BC0000E942E10F80181918F010E947401BC01D6
:100BD0008BE492E00E942E100E151F0569F76BE45E
:100BE00072E0CE0101960E94E00FCE0101960E94B4
:100BF0000D02CE0101960E94440F2D960FB6F89477
:100C0000DEBF0FBECDBFDF91CF911F910F91FF903F
:100C1000EF900895CF93DF93CDB7DEB727970FB648
:100C2000F894DEBF0FBECDBF0E948E018CE00E9403
:100C3000210D80930701811110C081E090E0209187
:100C40000001222311F080E090E00E94620264EF34
:100C500071E080E090E00E94280C0E9418050E943C
:100C60005A0580912C0290912D02A0912E02B091F4
:100C70002F020097A105B10589F140913C025091E6
:100C80003D0260913E0270913F0284179507A607CE
:100C9000B70720F560E085E00E94EB0C10922C0273
:100CA00010922D0210922E0210922F0260E08AE024
:100CB0000E94EB0C67EA71E08BE492E00E94EA0F7D
:100CC0006BE472E0CE0101960E94E00FCE01019626
:100CD0000E940D02CE0101960E94440F80912C02C9
:100CE00090912D02A0912E02B0912F02892B8A2B78
:100CF0008B2B71F080914002882351F061E080914C
:100D00004102811160E0609341028AE00E94EB0C95
:100D10008091280290912902A0912A02B0912B0281
:100D20000097A105B105A9F140913C0250913D0207
:100D300060913E0270913F0284179507A607B7079E
:100D400040F560E085E00E94EB0C60E086E00E94E8
:100D5000EB0C60E087E00E94EB0C109228021092EE
:100D6000290210922A0210922B0268EB71E08BE4A8
:100D700092E00E94EA0F6BE472E0CE0101960E94BD
:100D8000E00FCE0101960E940D02CE0101960E9455
:100D9000440F65E070E080E090E00E94280C279608
:100DA0000FB6F894DEBF0FBECDBFDF91CF9108958F
:100DB000209188033091890328173907B9F490915D
:100DC000460380914703981789F0E0914603F0E0CD
:100DD000E85BFC4F80812091460330E02F5F3F4F5E
:100DE0002F7333272093460390E008958FEF9FEFF2
:100DF000089520918803309189032817390781F4D9
:100E00009091460380914703981751F0E091460373
:100E1000F0E0E85BFC4F8081992787FD909508956D
:100E20008FEF9FEF08952091880330918903281751
:100E3000390771F4809147032091460390E0805C6C
:100E40009F4F821B910960E470E00E947413089523
:100E500080E090E00895209188033091890328175D
:100E6000390739F48FB7F89410924703109246036C
:100E70008FBF0895DC015196ED91FC91529720812E
:100E800050968C91809582238083089520E001976D
:100E90002FEF8F3F9207D9F7089520918803309163
:100EA00089032817390789F0FC01238D2E7F238FB2
:100EB0002FB7F8941092470310924603909389033A
:100EC000809388032FBF81E0089580E00895EF921A
:100ED000FF920F931F93CF93DF93EC018B8DEE85E1
:100EE000FF859D8581FF04C08081892329F447C047
:100EF0008081892309F043C08B899C890E94460721
:100F000008E010E0EE24E394F12C8D899E890E9484
:100F10004607EE85FF8580819D85892311F0FE2897
:100F200003C08E2D8095F822EE0C01501109011599
:100F3000110559F78F89988D0E9446078B8D81FD89
:100F4000F094809147032091460390E001968F73BF
:100F5000992730E08217930779F0E0914703F0E09A
:100F6000E85BFC4FF0828091470390E001968F731D
:100F700099278093470303C08B8D81608B8FDF910E
:100F8000CF911F910F91FF90EF900895611102C0D2
:100F90000C943A07DC015196ED91FC915297208117
:100FA00050968C91282B20830895DF92EF92FF9228
:100FB0000F931F93CF93DF93EC01E62E898D9A8DCB
:100FC000892B39F481E090E09B838A8380E090E074
:100FD0004DC0DFB6F8946B8D66956170CE010E94AE
:100FE000C607898D9A8D05960E9446078B8D08E06D
:100FF00010E0FF24F39481FF19C08F2D8E2121F082
:10100000CE010E943A0704C061E0CE010E94C607EB
:10101000898D9A8D0E944607FF0C01501109011518
:10102000110559F7CE010E943A0719C08F2D8E2164
:1010300029F061E0CE010E94C60703C0CE010E94E4
:101040003A07898D9A8D0E944607FF0C01501109BD
:101050000115110559F761E0CE010E94C607DFBEF8
:10106000898D9A8D0E94460781E090E0DF91CF91B3
:101070001F910F91FF90EF90DF900895809188036A
:1010800090918903009711F00C94670708951F92BF
:101090000F920FB60F9211242F933F934F935F93AC
:1010A0006F937F938F939F93AF93BF93EF93FF9330
:1010B0000E943E08FF91EF91BF91AF919F918F9158
:1010C0007F916F915F914F913F912F910F900FBE44
:1010D0000F901F9018951F920F920FB60F92112428
:1010E0002F933F934F935F936F937F938F939F9330
:1010F000AF93BF93EF93FF930E943E08FF91EF9150
:10110000BF91AF919F918F917F916F915F914F911F
:101110003F912F910F900FBE0F901F9018951F9227
:101120000F920FB60F9211242F933F934F935F931B
:101130006F937F938F939F93AF93BF93EF93FF939F
:101140000E943E08FF91EF91BF91AF919F918F91C7
:101150007F916F915F914F913F912F910F900FBEB3
:101160000F901F9018951F93CF93DF93EC01162FCC
:1011700061E0812F0E94B20C61E0812F0E94EB0C94
:10118000812F90E0FC01E85EFE4FE491E88BFC01CA
:10119000E45DFE4FE491F0E0EE0FFF1FE65BFE4FD3
:1011A000859194919A8B898BDF91CF911F910895AE
:1011B0001F93CF93DF93EC01162F60E0812F0E94E5
:1011C000B20C8B8D81FD04C061E0812F0E94EB0C7D
:1011D0001C87812F90E0FC01E85EFE4FE491ED87D3
:1011E000FC01E45DFE4FE491F0E0EE0FFF1FE05CD8
:1011F000FE4F859194919F878E87DF91CF911F91AC
:101200000895FF920F931F93CF93DF93EC01F62E77
:10121000522F1B821A8208EE13E020E030E00C838C
:101220001D832E833F838DEC91E0998388831C8AF4
:101230001B8A1E8A1D8A188E1F8A1A8E198E8B8D04
:101240008E7F50FB81F98B8F642FCE010E94B308F3
:101250006F2DCE01DF91CF911F910F91FF900C94D4
:10126000D8080F931F93CF93DF93EC011A8E198E3A
:10127000188E1F8A1E8A1D8AA8E6B0E080E090E0E2
:10128000FD01059115912591349104171507260745
:10129000370719F54CE0489F9001499F300D112404
:1012A000F901E459FF4F859194919C8B8B8BF90147
:1012B000E259FF4F859194919E8B8D8BF901E059F6
:1012C000FF4F85919491988F8F8B2E583F4FF90146
:1012D000859194919A8F898F08C001961C968D30C4
:1012E000910509F0CDCF1C8A1B8A8F89988D892B97
:1012F00009F443C08C858631E0F520916800883080
:1013000050F091E08E3008F490E081E001C0880F49
:101310009A95EAF701C084E0822B809368002C85BF
:10132000283038F02E3040F0263148F0E0E0F0E090
:1013300008C0EDE6F0E005C0EBE6F0E002C0ECE648
:10134000F0E03081283030F481E001C0880F2A9528
:10135000EAF70DC0822F90E02E3010F4089701C0FC
:101360000E9791E001C0990F8A95EAF7892F832B98
:101370008083898D9A8D0E944607CE01DF91CF919F
:101380001F910F910C944D07FC014485463150F597
:10139000483028F04E3030F4EBE6F0E005C0EDE6E2
:1013A000F0E002C0ECE6F0E05081483040F481E02B
:1013B00090E0042E01C0880F0A94EAF710C0242F91
:1013C00030E04E3018F42850310902C02E50310957
:1013D00081E090E0022E01C0880F0A94EAF7809520
:1013E0008523808308952DEC31E0FC013183208337
:1013F0000C94C409E1E8F0E090818770987F892B14
:1014000080830895CF92DF92EF92FF926B017C016F
:10141000DC01CB010197A109B10980389448AE41A4
:10142000B10508F041C0A70196016EEF7FEF81E0A2
:1014300090E00E9464139B01AC0160E074E284EFD1
:1014400090E00E948813E0E061E06E0FF0E0EE0FA4
:10145000FF1FE751FE4F808191818217930710F49F
:10146000E62FF2CFA7019601220F331F441F551F0D
:10147000E62EF12CF701EE0FFF1FE751FE4FA08182
:10148000B1810E9459139B01AC0160E074E284EFCA
:1014900090E00E9488133093870020938600C70154
:1014A0000E94FA0981E001C080E0FF90EF90DF9098
:1014B000CF900895E0E8F0E080818C7F8083E1E8C0
:1014C000F0E08081877E8061808364EF71E080E05E
:1014D00090E00C94020AFC01EB5BFF4F8081887F57
:1014E0006770862B80830895FC01EB5BFF4F808142
:1014F000887F6770862B808308954F925F926F92EA
:101500007F928F929F92AF92BF92CF92DF92EF9293
:10151000FF92CF93DF93EC016A017B01DB01CA01EB
:101520004F97A109B10982369448AE41B10508F040
:101530005BC0AEEFB1E09A01AB010E9459139B0171
:10154000AC0160E074E284EF90E00E9488134601F1
:101550005701880C991CAA1CBB1CD12C412C84E27D
:10156000582E84EF682E712CCC36D10569F0D394B7
:10157000ED2DF0E0EE0FFF1FE751FE4FE080F18010
:10158000E216F306A0F30CC0D394ED2DF0E0EE0FBD
:10159000FF1FE752FE4FE080F180E216F306A0F352
:1015A000D701A50194010E9459139B01AC01C3010D
:1015B000B2010E9488132F3F310519F010F09701F6
:1015C000D3CFFE01E95BFF4F20836D2D70E0CC3659
:1015D000D10521F0CE010E946B0A04C08CE690E098
:1015E0000E94740A81E001C080E0DF91CF91FF90FA
:1015F000EF90DF90CF90BF90AF909F908F907F90B3
:101600006F905F904F900895FC01EC5BFF4F20813D
:101610002C7F21602083FC01EB5BFF4F2081286041
:101620002083009729F420916E002E7F20936E0076
:1016300044EF51E060E070E00C947D0A1F93CF937B
:10164000DF93C82F162F61E00E94B20C111102C067
:1016500060E003C01F3F39F461E08C2FDF91CF9130
:101660001F910C94EB0CEC2FF0E0EC5FFE4FE4913B
:10167000E330D1F050F4E23079F584B5806284BD76
:1016800027B530E0C8E4D0E037C0E430C9F0E73037
:1016900019F58091B00080628093B0002091B30072
:1016A00030E0C4EBD0E028C0809180008068809357
:1016B00080002091860030918700C8E8D0E00FC0FC
:1016C000809180008062809380002091860030911C
:1016D0008700CAE8D0E003C017FFBACFBDCFA12F63
:1016E000B0E00E944A132FEF30E040E050E00E944B
:1016F0008813398328830BC0A12FB0E00E944A13BE
:101700002FEF30E040E050E00E9488132883DF9103
:10171000CF911F9108950E945A0A8CE690E00C9494
:10172000040BE82FFF27E7FDF095EC5FFE4FE491F7
:101730008DEF8E0F823020F4CB01BA010C94020A97
:10174000E73021F48CE690E00C947D0A80E0089567
:10175000CB010C940D16CB01642F0C9415161F921F
:101760000F920FB60F9211242F933F938F939F9355
:10177000AF93BF9380918C0390918D03A0918E03C2
:10178000B0918F0330918B0323E0230F2D3720F48A
:101790000196A11DB11D05C026E8230F0296A11DCB
:1017A000B11D20938B0380938C0390938D03A093A2
:1017B0008E03B0938F038091900390919103A09139
:1017C0009203B09193030196A11DB11D80939003E4
:1017D00090939103A0939203B0939303BF91AF9121
:1017E0009F918F913F912F910F900FBE0F901F905F
:1017F00018952FB7F89460918C0370918D038091A8
:101800008E0390918F032FBF08953FB7F894809176
:10181000900390919103A0919203B091930326B508
:10182000A89B05C02F3F19F00196A11DB11D3FBF18
:101830006627782F892F9A2F620F711D811D911DA8
:1018400042E0660F771F881F991F4A95D1F70895C8
:10185000CF92DF92EF92FF92CF93DF936B017C01E7
:101860000E94050CEB01C114D104E104F10479F0EC
:101870000E94050C6C1B7D0B683E7340A0F381E059
:10188000C81AD108E108F108C851DC4FECCFDF914C
:10189000CF91FF90EF90DF90CF900895789484B52A
:1018A000826084BD84B5816084BD85B5826085BD5C
:1018B00085B5816085BDEEE6F0E080818160808342
:1018C000E1E8F0E010828081826080838081816025
:1018D0008083E0E8F0E0808181608083E1EBF0E0EC
:1018E000808184608083E0EBF0E080818160808390
:1018F000EAE7F0E080818460808380818260808379
:101900008081816080838081806880831092C100A3
:101910000895833081F028F4813099F08230A1F06D
:1019200008958630A9F08730B9F08430D1F48091E1
:1019300080008F7D03C0809180008F77809380002E
:10194000089584B58F7702C084B58F7D84BD0895D6
:101950008091B0008F7703C08091B0008F7D80931D
:10196000B0000895CF93DF9390E0FC01E85EFE4F56
:101970002491FC01E45DFE4F8491882349F190E0BD
:10198000880F991FFC01EC5AFE4FA591B491865B1C
:101990009E4FFC01C591D4919FB7611108C0F89486
:1019A0008C91209582238C93888182230AC0623097
:1019B00051F4F8948C91322F309583238C93888145
:1019C000822B888304C0F8948C91822B8C939FBFC8
:1019D000DF91CF9108950F931F93CF93DF931F92C1
:1019E000CDB7DEB7282F30E0F901EC5FFE4F8491D0
:1019F000F901E85EFE4F1491F901E45DFE4F049198
:101A00000023C9F0882321F069830E94890C698131
:101A1000E02FF0E0EE0FFF1FE65BFE4FA591B491C3
:101A20009FB7F8948C91611103C01095812301C078
:101A3000812B8C939FBF0F90DF91CF911F910F91BE
:101A40000895CF93DF93282F30E0F901EC5FFE4F2C
:101A50008491F901E85EFE4FD491F901E45DFE4FF7
:101A6000C491CC2391F081110E94890CEC2FF0E0FD
:101A7000EE0FFF1FE05CFE4FA591B4912C912D233A
:101A800081E090E021F480E002C080E090E0DF910E
:101A9000CF910895FC0124853585F901E05CFF4F65
:101AA00080819181F901EE5BFF4F20813181821BA2
:101AB000930B8F7399270895FC0184859585FC010C
:101AC000E05CFF4F40815181FC01EE5BFF4F2081C4
:101AD00031814217530741F00190F081E02DE80F6A
:101AE000F91F808190E008958FEF9FEF0895FC012A
:101AF00084859585FC01E05CFF4F40815181FC01AC
:101B0000EE5BFF4F208131814217530779F0A081AE
:101B1000B181A80FB91F8C91208131812F5F3F4F78
:101B20002F7333273183208390E008958FEF9FEF49
:101B30000895FC0181A1882329F0A489B5898C919D
:101B400086FFFBCF11A20895CF93DF93FC0126857A
:101B50003785D901A05CBF4F8D919C91119701965B
:101B60008F739927E901CE5BDF4F48815981841734
:101B70009507D9F30D90BC91A02DA20FB31F6C93C4
:101B8000A685B785A05CBF4F11969C938E93A689BE
:101B9000B7892C9181E090E0078C02C0880F991FD3
:101BA0000A94E2F7282B2C9381E081A30488F5891D
:101BB000E02D80818064808381E090E0DF91CF918F
:101BC000089508951F920F920FB60F9211242F932C
:101BD0003F934F938F939F93EF93FF938091C00018
:101BE00082FD1CC04091C60080913A0490913B0454
:101BF00001968F73992720913C0430913D04821700
:101C0000930771F0E0913A04F0913B04E650FC4FE9
:101C1000408390933B0480933A0402C08091C600B5
:101C2000FF91EF919F918F914F913F912F910F9045
:101C30000FBE0F901F90189584E993E00E944A0D03
:101C4000892B11F00C94E10D08951F920F920FB69D
:101C50000F9211242F933F938F939F93EF93FF93B2
:101C60002091F6033091F7038091F8039091F903E6
:101C70002817390731F48091C1008F7D8093C1000E
:101C800014C0E091F803F091F903EA54FC4F20816D
:101C90008091F8039091F90301968F73992790939F
:101CA000F9038093F8032093C600FF91EF919F9171
:101CB0008F913F912F910F900FBE0F901F9018950D
:101CC000CF92DF92EF92FF92CF93DF93EC016A0104
:101CD0007B01411581EE580761057105F9F0EC892A
:101CE000FD8981E090E008A002C0880F991F0A9446
:101CF000E2F7808360E079E08DE390E0A701960150
:101D00000E94881321503109410951095695479580
:101D100037952795211580E1380798F0EC89FD89E2
:101D2000108260E874E88EE190E0A70196010E94BD
:101D30008813215031094109510956954795379526
:101D40002795E889F9893083EA89FB89208319A2DC
:101D5000EE89FF89408181E090E09C010C8C02C0FB
:101D6000220F331F0A94E2F7422B4083EE89FF894A
:101D700040819C010D8C02C0220F331F0A94E2F7B0
:101D8000422B4083EE89FF8940819C010E8C02C06A
:101D9000220F331F0A94E2F7422B4083EE89FF891A
:101DA00020810F8C02C0880F991F0A94E2F780955A
:101DB00082238083DF91CF91FF90EF90DF90CF90CF
:101DC0000895109297031092960388EE93E0A0E096
:101DD000B0E08093980390939903A0939A03B093F3
:101DE0009B0389EF91E090939503809394038AEF8E
:101DF00093E09093A1038093A00386EB93E09093EC
:101E0000A3038093A20385EC90E09093A5038093B5
:101E1000A40384EC90E09093A7038093A60380EC46
:101E200090E09093A9038093A80381EC90E09093B5
:101E3000AB038093AA0382EC90E09093AD03809370
:101E4000AC0386EC90E09093AF038093AE0384E004
:101E50008093B00383E08093B10387E08093B20363
:101E600085E08093B30381E08093B40308950E94DA
:101E70004E0C0E947004CCE1DEE00E940A0620971E
:101E8000E1F30E941C0EF9CFFC01808191810C943A
:101E9000BB12CF93DF93EC0188819981009711F0F9
:101EA0000E94BB12198218821D821C821B821A8218
:101EB000DF91CF9108950F931F93CF93DF93EC01A0
:101EC0008B016F5F7F4F888199810E943A11009743
:101ED00031F0998388831B830A8381E001C080E00D
:101EE000DF91CF911F910F910895CF93DF93EC0174
:101EF00088819981892B29F08A819B818617970790
:101F000060F4CE010E945B0F882341F08C819D819B
:101F1000892B19F4E881F981108281E0DF91CF915A
:101F20000895EF92FF920F931F93CF93DF93EC01ED
:101F30007B018A01BA010E94750F811104C0CE0194
:101F40000E94490F07C01D830C83B70188819981C6
:101F50000E94CD13CE01DF91CF911F910F91FF9081
:101F6000EF900895FC011182108213821282158273
:101F7000148216826115710559F0FB010190002051
:101F8000E9F7AF0141505109461B570B0C94910FD3
:101F90000895CF93DF93EC01FB018617970761F05B
:101FA000608171816115710529F0448155810E941C
:101FB000910F02C00E94490FCE01DF91CF91089589
:101FC000FC01118210821382128215821482168201
:101FD0000C94C90FCF93DF93EC016115710561F08B
:101FE000FB0101900020E9F7AF0141505109461B68
:101FF000570B0E94910F02C00E94490FCE01DF9142
:10200000CF910895EF92FF920F931F93CF93DF9399
:10201000EC017B010C811D816115710511F480E0DB
:1020200016C04115510591F0040F151FB8010E940B
:10203000750F8823A1F3288139818C819D81B70197
:10204000820F931F0E94CD131D830C8381E0DF91CB
:10205000CF911F910F91FF90EF9008956115710539
:1020600059F0FB0101900020E9F7AF0141505109FF
:10207000461B570B0C94021080E00895EF92FF92DC
:102080000F931F93CF93DF93CDB7DEB727970FB68C
:10209000F894DEBF0FBECDBF7C01CB014AE050E01B
:1020A0008E010F5F1F4FB8010E94D413F8010190F9
:1020B0000020E9F7AF0141505109401B510BB80115
:1020C000C7010E94021027960FB6F894DEBF0FBE1C
:1020D000CDBFDF91CF911F910F91FF90EF900895A9
:1020E000EF92FF920F931F93CF93DF9300D000D016
:1020F00000D0CDB7DEB77C01CB014AE050E08E01C5
:102100000F5F1F4FB8010E94F513F80101900020E6
:10211000E9F7AF0141505109401B510BB801C7010C
:102120000E94021026960FB6F894DEBF0FBECDBFF8
:10213000DF91CF911F910F91FF90EF900895FC01D7
:10214000248135816217730748F48081918100975B
:1021500029F0FC01E60FF71F8081089580E00895C3
:10216000CF92DF92EF92FF920F931F93CF93DF9363
:102170006C017A01EB01E60EF71E00E010E0CE15CF
:10218000DF0561F06991D601ED91FC910190F0813C
:10219000E02DC6010995080F191FF1CFC801DF9185
:1021A000CF911F910F91FF90EF90DF90CF90089506
:1021B000AF92BF92CF92DF92EF92FF920F931F9355
:1021C000CF93DF937C016B01C0E0D0E000E010E032
:1021D000D60114968D919C911597C817D90788F44C
:1021E000D701ED91FC91A080B180BE01C6010E9493
:1021F0009F10682FC701F5010995080F191F219637
:10220000E7CFC801DF91CF911F910F91FF90EF9021
:10221000DF90CF90BF90AF900895DC01ED91FC91DD
:102220000190F081E02D09940F931F93CF93DF93DA
:10223000EC016DE00E940D118C016AE0CE010E945C
:102240000D11800F911FDF91CF911F910F91089574
:102250000F931F93CF93DF93EC010E94D8108C0152
:10226000CE010E941411800F911FDF91CF911F9119
:102270000F9108956F927F928F929F92AF92BF922B
:10228000CF92DF92EF92FF920F931F93CF93DF9342
:10229000EC01CB01209781F4DF91CF911F910F9139
:1022A000FF90EF90DF90CF90BF90AF909F908F9076
:1022B0007F906F900C942312FE01E60FF71F9E0192
:1022C00022503109E217F30708F4ACC0D9010D918F
:1022D0001C91119706171707B8F00530110508F47F
:1022E0009FC0A801445051094617570708F498C0E9
:1022F00002501109061B170B019311936D937C93E8
:10230000CF010E94BB128CC05B01A01AB10A4E0122
:10231000800E911EA0914004B0914104612C712C5B
:1023200060E070E0109709F449C0A815B905C9F537
:10233000ED90FC901197670142E0C40ED11CCA14C5
:10234000DB0478F147018A189B08640142E0C40E5F
:10235000D11C1296BC9012971396AC91B5E0CB1697
:10236000D10440F0B282A38391828082D9018D93FF
:102370009C9309C00E5F1F4F0E0D1F1DF9011183A5
:102380000083EB2DFA2F6115710531F0DB011396F7
:10239000FC93EE93129744C0F0934104E093400401
:1023A0003FC06D917C9111976616770608F43B014A
:1023B000BD0112960D90BC91A02DB4CF60913E044A
:1023C00070913F0468157905E9F468167906D0F430
:1023D00040910801509109014115510541F44DB753
:1023E0005EB760910C0170910D01461B570BE4170D
:1023F000F507C0F4F0933F04E0933E04F9019183A4
:1024000080830EC00E9423127C01009759F0A8011E
:10241000BE010E94C413CE010E94BB12C70104C0BA
:10242000CE0102C080E090E0DF91CF911F910F912B
:10243000FF90EF90DF90CF90BF90AF909F908F90E4
:102440007F906F900895CF93DF938230910510F4C1
:1024500082E090E0E0914004F091410420E030E01F
:10246000A0E0B0E0309739F1408151814817590719
:10247000B8F04817590771F482819381109729F0B9
:1024800013969C938E9312972CC090934104809343
:10249000400427C02115310531F04217530718F0C9
:1024A000A901DB0101C0EF019A01BD01DF0102803A
:1024B000F381E02DD7CF21153105F9F0281B390B19
:1024C0002430310580F48A819B816115710521F0EA
:1024D000FB019383828304C0909341048093400462
:1024E000FE01329644C0FE01E20FF31F81939193E7
:1024F00022503109398328833AC020913E0430911B
:102500003F04232B41F420910A0130910B013093B9
:102510003F0420933E0420910801309109012115C8
:10252000310541F42DB73EB740910C0150910D019A
:10253000241B350BE0913E04F0913F04E217F307B2
:10254000A0F42E1B3F0B2817390778F0AC014E5F23
:102550005F4F2417350748F04E0F5F1F50933F041D
:1025600040933E048193919302C0E0E0F0E0CF01FC
:10257000DF91CF910895CF93DF93009709F487C03F
:10258000FC01329713821282C0914004D091410421
:10259000209781F420813181280F391F80913E04DA
:1025A00090913F048217930779F5F0933F04E093ED
:1025B0003E046DC0DE0120E030E0AE17BF0750F4EE
:1025C00012964D915C9113979D014115510509F1AA
:1025D000DA01F3CFB383A28340815181840F951F29
:1025E0008A179B0771F48D919C911197840F951F09
:1025F00002969183808312968D919C911397938379
:1026000082832115310529F4F0934104E0934004BD
:102610003EC0D9011396FC93EE9312974D915D91B4
:10262000A40FB51FEA17FB0779F480819181840F0D
:10263000951F0296D90111969C938E938281938166
:1026400013969C938E931297E0E0F0E08A819B8131
:10265000009719F0FE01EC01F9CFCE010296288116
:102660003981820F931F20913E0430913F04281737
:10267000390769F4309729F410924104109240040C
:1026800002C013821282D0933F04C0933E04DF91B4
:10269000CF910895A29FB001B39FC001A39F700D79
:1026A000811D1124911DB29F700D811D1124911D5A
:1026B00008950E944A13A59F900DB49F900DA49F6A
:1026C000800D911D11240895DB018F939F930E942B
:1026D0005913BF91AF91A29F800D911DA39F900DA3
:1026E000B29F900D1124089597FB072E16F40094C5
:1026F00007D077FD09D00E94AA1307FC05D03EF44D
:10270000909581959F4F0895709561957F4F08959D
:10271000A1E21A2EAA1BBB1BFD010DC0AA1FBB1FE5
:10272000EE1FFF1FA217B307E407F50720F0A21B57
:10273000B30BE40BF50B661F771F881F991F1A94C4
:1027400069F760957095809590959B01AC01BD01EE
:10275000CF010895AA1BBB1B51E107C0AA1FBB1FD5
:10276000A617B70710F0A61BB70B881F991F5A951D
:10277000A9F780959095BC01CD010895EE0FFF1F3C
:102780000590F491E02D0994FB01DC0102C0019059
:102790000D9241505040D8F70895FB01DC010190A3
:1027A0000D920020E1F70895FB019F01E89442306B
:1027B000C4F04532B4F44A3029F497FB1EF49095E6
:1027C00081959F4F642F77270E94AA13805D8A33DB
:1027D0000CF0895D8193CB010097A1F716F45DE2BF
:1027E00051931082C9010C943916FB019F014230AC
:1027F00074F0453264F4642F77270E94AA13805D39
:102800008A330CF0895D8193CB010097A1F7108288
:10281000C9010C943916AEE0B0E0E1E1F4E10C94AA
:10282000E7160D891E898F89988D26E02C831A83DF
:10283000098397FF02C080E090E801979E838D8313
:10284000AE01455E5F4F698D7A8DCE0101960E9483
:102850003B144D815E8157FD0AC02F813885421798
:1028600053070CF49A01F801E20FF31F10822E9621
:10287000E4E00C940317ACE0B0E0E1E4F4E10C9484
:10288000D9167C016B018A01FC01178216828381B3
:1028900081FFBDC1CE0101964C01F7019381F60184
:1028A00093FD859193FF81916F01882309F4ABC15A
:1028B000853239F493FD859193FF81916F018532C3
:1028C00029F4B70190E00E944916E7CF512C312C32
:1028D00020E02032A0F48B3269F030F4803259F0DD
:1028E000833269F420612CC08D3239F0803339F4A1
:1028F000216026C02260246023C0286021C027FDFB
:1029000027C030ED380F3A3078F426FF06C0FAE0E1
:102910005F9E300D1124532E13C08AE0389E300D77
:102920001124332E20620CC08E3221F426FD6BC19F
:10293000206406C08C3611F4206802C0883641F449
:10294000F60193FD859193FF81916F018111C1CFB4
:10295000982F9F7D9554933028F40C5F1F4FFFE311
:10296000F9830DC0833631F0833771F0833509F078
:102970005BC022C0F801808189830E5F1F4F442411
:102980004394512C540115C03801F2E06F0E711CB4
:10299000F801A080B18026FF03C0652D70E002C061
:1029A0006FEF7FEFC5012C870E942E162C0183014B
:1029B0002C852F77222E17C03801F2E06F0E711C84
:1029C000F801A080B18026FF03C0652D70E002C031
:1029D0006FEF7FEFC5012C870E9423162C012C85F9
:1029E0002068222E830123FC1BC0832D90E0481613
:1029F0005906B0F4B70180E290E00E9449163A947B
:102A0000F4CFF50127FC859127FE81915F01B70185
:102A100090E00E94491631103A94F1E04F1A5108A3
:102A20004114510471F7E5C0843611F0893639F547
:102A3000F80127FF07C060817181828193810C5F5B
:102A40001F4F08C060817181882777FD8095982F7E
:102A50000E5F1F4F2F76B22E97FF09C0909580957D
:102A6000709561957F4F8F4F9F4F2068B22E2AE05F
:102A700030E0A4010E947B16A82EA81844C0853718
:102A800029F42F7EB22E2AE030E025C0F22FF97F04
:102A9000BF2E8F36C1F018F4883579F0B4C0803776
:102AA00019F0883721F0AFC02F2F2061B22EB4FE6D
:102AB0000DC08B2D8460B82E09C024FF0AC09F2F43
:102AC0009660B92E06C028E030E005C020E130E075
:102AD00002C020E132E0F801B7FE07C060817181D9
:102AE000828193810C5F1F4F06C06081718180E0FD
:102AF00090E00E5F1F4FA4010E947B16A82EA8181D
:102B0000FB2DFF77BF2EB6FE0BC02B2D2E7FA514FD
:102B100050F4B4FE0AC0B2FC08C02B2D2E7E05C0B6
:102B20007A2C2B2D03C07A2C01C0752C24FF0DC0EC
:102B3000FE01EA0DF11D8081803311F4297E09C068
:102B400022FF06C07394739404C0822F867809F024
:102B5000739423FD13C020FF06C05A2C731418F47D
:102B6000530C5718732C731468F4B70180E290E08B
:102B70002C870E94491673942C85F5CF731410F49A
:102B8000371801C0312C24FF12C0B70180E390E058
:102B90002C870E9449162C8522FF17C021FF03C0F5
:102BA00088E590E002C088E790E0B7010CC0822F72
:102BB000867859F021FD02C080E201C08BE227FD3A
:102BC0008DE2B70190E00E944916A51438F4B701D0
:102BD00080E390E00E9449165A94F7CFAA94F4013A
:102BE000EA0DF11D8081B70190E00E944916A11005
:102BF000F5CF332009F451CEB70180E290E00E9476
:102C000049163A94F6CFF7018681978102C08FEF7B
:102C10009FEF2C96E2E10C94F516F999FECF92BD48
:102C200081BDF89A992780B50895262FF999FECF8E
:102C30001FBA92BD81BD20BD0FB6F894FA9AF99AD9
:102C40000FBE01960895FC0105906150704001107F
:102C5000D8F7809590958E0F9F1F0895FC016150C5
:102C6000704001900110D8F7809590958E0F9F1FAE
:102C70000895DC01FC01672F71917723E1F732970A
:102C800004C07C916D9370836291AE17BF07C8F347
:102C900008950F931F93CF93DF93182F092FEB0104
:102CA0008B8181FD03C08FEF9FEF20C082FF10C09A
:102CB0004E815F812C813D81421753077CF4E8816E
:102CC000F9819F012F5F3F4F39832883108306C00E
:102CD000E885F985812F0995892B29F72E813F8178
:102CE0002F5F3F4F3F832E83812F902FDF91CF9116
:102CF0001F910F910895FA01AA27283051F1203130
:102D000081F1E8946F936E7F6E5F7F4F8F4F9F4F7F
:102D1000AF4FB1E03ED0B4E03CD0670F781F891FC1
:102D20009A1FA11D680F791F8A1F911DA11D6A0F8F
:102D3000711D811D911DA11D20D009F468943F9142
:102D40002AE0269F11243019305D3193DEF6CF0141
:102D50000895462F4770405D4193B3E00FD0C9F707
:102D6000F6CF462F4F70405D4A3318F0495D31FD74
:102D70004052419302D0A9F7EACFB4E0A6959795C7
:102D8000879577956795BA95C9F70097610571059D
:102D900008959B01AC010A2E0694579547953795E7
:102DA0002795BA95C9F7620F731F841F951FA01D41
:102DB00008952F923F924F925F926F927F928F92DF
:102DC0009F92AF92BF92CF92DF92EF92FF920F93BA
:102DD0001F93CF93DF93CDB7DEB7CA1BDB0B0FB6C4
:102DE000F894DEBF0FBECDBF09942A883988488881
:102DF0005F846E847D848C849B84AA84B984C88417
:102E0000DF80EE80FD800C811B81AA81B981CE0F0D
:102E1000D11D0FB6F894DEBF0FBECDBFED010895F2
:102E200011E0C2E6D1E004C0FE010E94C013229668
:0A2E3000C436D107C9F7F894FFCFAC
:102E3A0000C8003030310001000042048000253013
:102E4A003278002A2A2A414354495641444F2000E5
:102E5A0028487A292A2A2A002A2A2A4445534143F9
:102E6A0054495641444F20004552524F5220435232
:102E7A00432C206C6173743D003C3D3D002A2A2A94
:102E8A00414354495641444F2A2A2A002A2A2A44AD
:102E9A004553414354495641444F2A2A2A002A2A73
:102EAA002A524553455432200020736567732A2AF3
:102EBA002A20004F637420333020323031330032FD
:102ECA00333A31363A3238002A2A2A52455345547F
:102EDA003120003D3D3E002A2A2A524553455431AD
:102EEA0020454E442A2A2A002A2A2A524553455462
:102EFA003220454E442A2A2A0000000000D507B095
:102F0A00101307D806F9062B070000010008002055
:102F1A000040008000000100040000010008004099
:102F2A00000001000400000000A40DB0104A0D7753
:062F3A000D5C0D990D0075
:00000001FF
