:100000000C94B2000C94DA000C94DA000C945507AE
:100010000C9479070C949D070C94DA000C94DA0088
:100020000C94DA000C94DA000C94DA000C94DA00E8
:100030000C94DA000C94DA000C94DA000C94DA00D8
:100040000C9410090C94DA000C94430B0C94860B5E
:100050000C94DA000C94DA000C94DA000C94DA00B8
:100060000C94DA000C94DA0000C2010001001100C7
:1000700011000C0000E100000A002500250021000D
:10008000009600001900390039003600127A00008D
:100090001F004600460044008070000022004D0012
:1000A0004D004A00004B00003600750075007200DC
:1000B000403800004A009C009C0099008025000008
:1000C0007200EC00EC00E900C0120000E900DA0167
:1000D000DA01D70160090000D701B603B603B30304
:1000E000B0040000B3036E076E076B0758020000F0
:1000F0006E07DC0EDC0ED80E2C010000DC0EC11DDC
:10010000C11DBE1D0000000700020100000304061F
:1001100000000000000000000102040810204080E0
:100120000102040810200102040810200404040441
:100130000404040402020202020203030303030391
:100140000000000023002600290000000000250018
:1001500028002B0000000000240027002A001704BC
:10016000420C240411241FBECFEFD8E0DEBFCDBF68
:1001700011E0A0E0B1E0E0ECFAE202C005900D92DF
:10018000A239B107D9F713E0A2E9B1E001C01D928D
:10019000AB3AB107E1F711E0C2E6D1E004C0229723
:1001A000FE010E941212CE35D107C9F70E94980CA9
:1001B0000C9453150C940000CF93C82F61E00E945B
:1001C0000F0A60E08C2FCF910C94470ADC01ED916F
:1001D000FC910190F081E02D09940F931F93CF9330
:1001E000DF9300E011E0C0E2D0E0F80141918F011F
:1001F000BE018FEA92E00E94E2052196C532D10548
:10020000A1F7DF91CF911F910F9108950F931F9345
:10021000CF93DF9363E270E08FEA92E00E94DF0504
:1002200090E020910301332727FD30958217930733
:1002300079F562E270E08FEA92E00E94DF0590E0DB
:1002400020910201332727FD30958217930701F58E
:1002500061E270E08FEA92E00E94DF0590E0209179
:100260000101332727FD30958217930789F400E0B9
:1002700011E0C0E2D0E0BE018FEA92E00E94DF050B
:10028000F80181938F012196C532D105A1F706C0EF
:10029000DF91CF911F910F910C94ED00DF91CF91E1
:1002A0001F910F9108951F928F938FE091E09F937C
:1002B0008F931F9283E08F938BEA92E09F938F93AB
:1002C0000E9447128DB79EB708960FB6F8949EBF4E
:1002D0000FBE8DBF8BEA92E008959C01FC0180E087
:1002E00070E002C09191890FAF01421B530B46177A
:1002F0005707C4F308950F931F93CF93DF93EC0137
:10030000162F072F6EE770E08DEF92E00E94E60057
:10031000612F702F8DEF92E00E94E600412F502F49
:10032000BE018DEF92E00E942D0E612FCE010E9442
:100330006D01682F8DEF92E00E94050B63E270E083
:1003400080E090E0DF91CF911F910F910C94840990
:10035000CF93DF9300D0CDB7DEB70197A1F466E469
:1003600089E00E94530561E086E00E94470A61E04F
:1003700087E00E94470A809100018130C1F081E04E
:100380008093000112C060E086E00E94470A60E0AE
:1003900087E00E94470A60E089E00E94530580914F
:1003A0000001882321F0109200010E94ED0081E8F5
:1003B0008983809100018A8362E070E0CE0101961A
:1003C0000E947B010F900F90DF91CF910895BC01A7
:1003D0008DEF92E00E94BE0E63E270E080E090E05C
:1003E0000C948409E3E3F2E040E002C02191420F63
:1003F0009F012353324028173907C4F3FC01ED5CF9
:10040000FD4F81E09081941380E00895EF92FF9278
:100410000F931F93CF93DF93CDB7DEB727970FB618
:10042000F894DEBF0FBECDBF8C01FC01808181330B
:1004300039F481E090E00E94A80121E030E06AC038
:10044000823339F480E090E00E94A80120E030E09F
:1004500061C0833379F482E88983809100018A83C3
:1004600062E070E0CE0101960E947B0120910001C4
:1004700030E050C08AEA898381E08A8362E070E0DC
:10048000CE0101960E947B0164E171E080EB91E076
:100490000E94540D6091000180EB91E00E94BD0D1F
:1004A00060EB71E0CE0101960E944A0DCE010196EB
:1004B0000E94E701CE0101960E94A50C780110C0B0
:1004C0006AE271E080EB91E00E949A0DF701819160
:1004D0007F010E945301BC0180EB91E00E949A0DC4
:1004E0009701201B310B8091B9019091BA01281717
:1004F000390734F360EB71E0CE0101960E944A0D9A
:10050000CE0101960E94E701CE0101960E94A50C42
:1005100029E030E0C90127960FB6F894DEBF0FBE80
:10052000CDBFDF91CF911F910F91FF90EF90089574
:100530000F931F93CF93DF93CDB7DEB727970FB6F7
:10054000F894DEBF0FBECDBF109233021092BA01F5
:100550001092B9018DEF92E00E94A70A0B975CF10F
:1005600064E170E080E090E00E94840924C0009182
:10057000B9011091BA018DEF92E00E94D60AF801FC
:10058000ED5CFD4F80838091B9019091BA01019695
:100590009093BA018093B901FC01ED5CFD4F10828C
:1005A0008837910544F08091B9019091BA011816ED
:1005B00019064CF049C08DEF92E00E94A70A181668
:1005C0001906ACF2F0CF01970E94F201811138C0F8
:1005D00064E170E080E090E00E9484096CE171E0E9
:1005E00080EB91E00E94540D03E312E010C06AE238
:1005F00071E080EB91E00E949A0DF80181918F01EA
:100600000E945301BC0180EB91E00E949A0D980179
:10061000235332408091B9019091BA0128173907CC
:1006200034F360EB71E0CE0101960E944A0DCE01D9
:1006300001960E94E701CE0101960E94A50C04C01C
:1006400083E392E00E94060227960FB6F894DEBF7D
:100650000FBECDBFDF91CF911F910F9108950E94E2
:10066000060140E855E260E070E08DEF92E00E9404
:10067000C10B60E082E00E940F0A61E083E00E940B
:100680000F0A40E855E260E070E082E991E00E94E4
:100690003F0886E090E00E94DC0087E090E00E9446
:1006A000DC008DE090E00E94DC000E94C2054091D9
:1006B000050150910601609107017091080189E0E0
:1006C0000E94C80580910001813019F481E090E01A
:1006D00002C080E090E00C94A8010F931F93CF9389
:1006E000DF93CDB7DEB727970FB6F894DEBF0FBE06
:1006F000CDBF0E94980282E991E00E94330618164D
:1007000019060CF083C06CE271E080EB91E00E946E
:10071000540D1092BB011092B8011092B7013EC067
:100720000091B7011091B80182E991E00E94E605BD
:10073000F801E554FE4F8083E091B701F091B801D4
:10074000E554FE4F608180EB91E00E94AA0D8091FC
:10075000B7019091B80101969093B8018093B701C9
:10076000FC01E554FE4F108288379105BCF08DE006
:100770000E947E0A61E0892B09F060E08DE00E9412
:10078000470A8BEB91E00E9406029093AF018093A1
:10079000AE01009761F0019799F40CC082E991E0F5
:1007A0000E943306181619060CF4BACFE0CF65E3A1
:1007B00071E002C062E471E080EB91E00E949A0D6A
:1007C0006CE471E080EB91E00E949A0D6091AE01C3
:1007D0007091AF0180EB91E00E94EA0D60EB71E057
:1007E000CE0101960E944A0DCE0101960E94E701BA
:1007F000CE0101960E94A50C6091AE017091AF01EF
:100800004AE050E082E991E00E94790F64E670E0EE
:1008100080E090E00E94840927960FB6F894DEBF2E
:100820000FBECDBFDF91CF911F910F9108956BE265
:1008300071E080EB91E00E94160D20E043E062E061
:1008400082E991E00C940F0882E991E00E94090985
:1008500080EB91E00C94A50CE1E8F0E0208187703A
:100860009927287F282B20830895CF92DF92EF923B
:10087000FF92CF936B017C01DC01CB010197A109B1
:10088000B10980389448AE41B10508F03FC0A701D6
:1008900096016EEF7FEF81E090E00E94B6119B0120
:1008A000AC0160E074E284EF90E00E94DA11C0E0F5
:1008B000EC2FF0E0EE0FFF1FEB5AFE4F808191818D
:1008C000CF5F82179307A0F3A7019601220F331F72
:1008D000441F551FEC2FF0E0EE0FFF1FEB5AFE4FA9
:1008E000A081B1810E94AB119B01AC0160E074E278
:1008F00084EF90E00E94DA11309387002093860005
:100900008C2F90E00E942C0481E001C080E0CF9108
:10091000FF90EF90DF90CF900895E0E8F0E08081C5
:100920008C7F8083E1E8F0E08081877E8061808336
:1009300064EF71E080E090E00C943504FC01EB5B27
:10094000FF4F8081887F67707727862B808308958B
:10095000FC01EB5BFF4F8081887F67707727862BD8
:10096000808308954F925F926F927F928F929F92B1
:10097000AF92BF92CF92DF92EF92FF92CF93DF932D
:10098000EC016A017B01DB01CA014F97A109B109A2
:1009900082369448AE41B10508F05BC0AEEFB1E0DD
:1009A0009A01AB010E94AB119B01AC0160E074E2C3
:1009B00084EF90E00E94DA1126013701440C551CA7
:1009C000661C771CD12C812C84E2982E84EFA82EF3
:1009D000B12C01C09701CC36D10569F0D394ED2D2F
:1009E000F0E0EE0FFF1FEB5AFE4FE080F180E216C1
:1009F000F306A0F30CC0D394ED2DF0E0EE0FFF1F33
:100A0000EF59FE4FE080F180E216F306A0F3D70124
:100A1000A30192010E94AB119B01AC01C501B4017D
:100A20000E94DA112F3F310509F0A0F6FE01E95BC3
:100A3000FF4F20836D2D70E0CC36D10521F0CE0123
:100A40000E949E0404C08CE690E00E94A80481E00D
:100A500001C080E0DF91CF91FF90EF90DF90CF90C9
:100A6000BF90AF909F908F907F906F905F904F90CE
:100A70000895FC01EC5BFF4F20812C7F21602083D7
:100A8000FC01EB5BFF4F208128602083009729F455
:100A900020916E002E7F20936E0044EF51E060E0C5
:100AA00070E00C94B2041F93CF93DF93C82F162FDE
:100AB00061E00E940F0A111102C060E003C01F3FF5
:100AC00039F461E08C2FDF91CF911F910C94470A8C
:100AD000EC2FF0E0EC5FFE4FE491E33089F018F486
:100AE000E23089F505C0E430B9F0E73061F520C0A7
:100AF00084B5806284BD27B530E0C8E4D0E033C05F
:100B000080918000806880938000209186003091E1
:100B10008700C8E8D0E01AC080918000806280938E
:100B200080002091860030918700CAE8D0E00EC096
:100B30008091B00080628093B0002091B30030E0DB
:100B4000C4EBD0E010C017FFB8CFBBCFA12FB0E0EF
:100B50000E949F112FEF30E040E050E00E94DA1138
:100B6000398328830BC0A12FB0E00E949F112FEF83
:100B700030E040E050E00E94DA112883DF91CF910D
:100B80001F9108950E948D048CE690E00C94390525
:100B9000E82FFF27E7FDF095EC5FFE4FE4918E2FE5
:100BA0008350823020F4CB01BA010C943504E73035
:100BB00021F48CE690E00C94B20480E00895CB011F
:100BC0000C945614CB01642F0C945E142091F20205
:100BD0003091F30228173907C1F49091B002809147
:100BE000B102981791F0E091B002F0E0EE54FD4FA1
:100BF00080812091B00230E02F5F3F4F2F73332769
:100C00002093B002282F30E002C02FEF3FEFC90140
:100C100008952091F2023091F3022817390781F4E8
:100C20009091B0028091B102981751F0E091B0021A
:100C3000F0E0EE54FD4F2081332727FD309502C0B0
:100C40002FEF3FEFC90108952091F2023091F30296
:100C50002817390739F48FB7F8941092B10210921F
:100C6000B0028FBF08952091F2023091F30228174D
:100C7000390779F48091B1022091B00290E0805C54
:100C80009F4F821B910960E470E00E94C6119C0195
:100C900002C020E030E0C9010895DC015196ED91D9
:100CA000FC915297208150968C918095822380836D
:100CB000089520E001972FEF8F3F9207D9F708950D
:100CC0002091F2023091F3022817390789F0FC01D4
:100CD000238D2E7F238F2FB7F8941092B10210929C
:100CE000B0029093F3028093F2022FBF81E0089547
:100CF00080E00895EF92FF920F931F93CF93DF93BD
:100D0000EC018B8DEE85FF859D8581FF04C0808180
:100D1000892329F445C08081892309F041C08B894A
:100D20009C890E94590608E010E0EE24E394F12C1F
:100D30008D899E890E945906EE85FF8580819D855B
:100D4000892311F0FE2803C08E2D8095F822EE0C29
:100D50000150110969F78F89988D0E9459068B8D72
:100D600081FDF0948091B1022091B00290E0019653
:100D70008F73992730E08217930779F0E091B102E1
:100D8000F0E0EE54FD4FF0828091B10290E00196C8
:100D90008F7399278093B10203C08B8D81608B8FF5
:100DA000DF91CF911F910F91FF90EF900895611106
:100DB00002C00C944D06DC015196ED91FC915297C6
:100DC000208150968C91282B20830895DF92EF92FA
:100DD000FF920F931F93CF93DF93EC01E62E898D43
:100DE0009A8D892B39F481E090E09B838A8320E0FF
:100DF00030E049C0DFB6F8946B8D66956170CE0126
:100E00000E94D706898D9A8D05960E9459068B8D72
:100E100008E010E0FF24F39481FF17C08F2D8E218E
:100E200021F0CE010E944D0604C061E0CE010E9477
:100E3000D706898D9A8D0E945906FF0C0150110921
:100E400069F7CE010E944D0617C08F2D8E2129F023
:100E500061E0CE010E94D70603C0CE010E944D067C
:100E6000898D9A8D0E945906FF0C0150110969F76E
:100E700061E0CE010E94D706DFBE898D9A8D0E9467
:100E8000590621E030E0C901DF91CF911F910F9108
:100E9000FF90EF90DF9008958091F2029091F3021D
:100EA000009711F00C947A0608951F920F920FB6D6
:100EB0000F9211242F933F934F935F936F937F93E0
:100EC0008F939F93AF93BF93EF93FF930E944C0731
:100ED000FF91EF91BF91AF919F918F917F916F9112
:100EE0005F914F913F912F910F900FBE0F901F90E8
:100EF00018951F920F920FB60F9211242F933F93C4
:100F00004F935F936F937F938F939F93AF93BF9311
:100F1000EF93FF930E944C07FF91EF91BF91AF9128
:100F20009F918F917F916F915F914F913F912F9101
:100F30000F900FBE0F901F9018951F920F920FB633
:100F40000F9211242F933F934F935F936F937F934F
:100F50008F939F93AF93BF93EF93FF930E944C07A0
:100F6000FF91EF91BF91AF919F918F917F916F9181
:100F70005F914F913F912F910F900FBE0F901F9057
:100F800018951F93CF93DF93EC01162F61E0812F0B
:100F90000E940F0A61E0812F0E94470A812F90E092
:100FA000FC01E85EFE4FE491E88BFC01E45DFE4F3E
:100FB000E491F0E0EE0FFF1FE65BFE4F8591949108
:100FC000898B9A8BDF91CF911F9108951F93CF93B7
:100FD000DF93EC01162F60E0812F0E940F0A8B8DAA
:100FE00081FD04C061E0812F0E94470A1C87812F88
:100FF00090E0FC01E85EFE4FE491ED87FC01E45DCA
:10100000FE4FE491F0E0EE0FFF1FE05CFE4F859194
:1010100094918E879F87DF91CF911F910895FF92C2
:101020000F931F93CF93DF93EC01F62E522F1B8269
:101030001A8208EE13E020E030E00C831D832E833B
:101040003F8385E791E0998388831C8A1B8A1E8AE7
:101050001D8A188E1F8A1A8E198E8B8D8E7F50FBDB
:1010600081F98B8F642FCE010E94C1076F2DCE01B5
:10107000DF91CF911F910F91FF900C94E607FF92A3
:101080000F931F93CF93DF93EC011A8E198E188E56
:101090001F8A1E8A1D8A1C8A1B8AA0E0B0E02CE0F1
:1010A000F22EFA9EC001FB9E900D1124FC01E8591E
:1010B000FF4F0591159125913491041715072607C7
:1010C0003707E9F4FC01E459FF4F259134912B8B4C
:1010D0003C8BFC01E259FF4F259134912D8B3E8BC7
:1010E000FC01E059FF4F259134912F8B388F8E589A
:1010F0009F4FFC0185919491898F9A8F05C011961D
:10110000AD30B10509F0CDCF8F89988D892B09F4C9
:1011100049C03C85363108F041C040916800383004
:1011200068F081E090E03E3010F480E090E021E053
:1011300030E001C0220F8A95EAF701C024E0242B99
:10114000209368003C85383038F03E3040F036312E
:1011500048F0E0E0F0E008C0EDE6F0E005C0EBE6C6
:10116000F0E002C0ECE6F0E04081383040F481E08D
:1011700090E0282F01C0220F3A95EAF70DC0832F87
:1011800090E03E3010F4089701C00E9721E030E067
:1011900001C0220F8A95EAF7242B2083898D9A8D2E
:1011A0000E945906CE01DF91CF911F910F91FF90C0
:1011B0000C946006FC014485463150F5483028F017
:1011C0004E3030F4EBE6F0E005C0EDE6F0E002C0B2
:1011D000ECE6F0E05081483040F481E090E0042EED
:1011E00001C0880F0A94EAF710C0242F30E04E3077
:1011F00018F42850310902C02E50310981E090E0E6
:10120000022E01C0880F0A94EAF780958523808317
:10121000089525E731E0FC01318320830C94DA083E
:101220001F920F920FB60F9211242F933F938F931B
:101230009F93AF93BF938091F4029091F502A09198
:10124000F602B091F7023091FC02232F2D5F2D376B
:1012500020F40196A11DB11D05C0232F2A57029627
:10126000A11DB11D2093FC028093F4029093F5021E
:10127000A093F602B093F7028091F8029091F902E0
:10128000A091FA02B091FB020196A11DB11D8093BD
:10129000F8029093F902A093FA02B093FB02BF9177
:1012A000AF919F918F913F912F910F900FBE0F9013
:1012B0001F9018950F931F939FB7F8940091F80211
:1012C0001091F9022091FA023091FB0286B5A89B99
:1012D00006C08F3F21F00F5F1F4F2F4F3F4F9FBF23
:1012E000322F212F102F0027080F111D211D311D16
:1012F00042E0000F111F221F331F4A95D1F7B8019A
:10130000C9011F910F910895CF92DF92EF92FF9242
:10131000CF93DF936B017C010E945A09EB010EC051
:101320000E945A096C1B7D0B683E734038F081E0C7
:10133000C81AD108E108F108C851DC4FC114D10422
:10134000E104F10469F7DF91CF91FF90EF90DF9016
:10135000CF900895789484B5826084BD84B581600F
:1013600084BD85B5826085BD85B5816085BDEEE6AD
:10137000F0E0808181608083E1E8F0E0108280818C
:1013800082608083808181608083E0E8F0E08081FA
:1013900081608083E1EBF0E0808184608083E0EB1A
:1013A000F0E0808181608083EAE7F0E08081846002
:1013B000808380818260808380818160808380815E
:1013C000806880831092C1000895833069F028F40A
:1013D0008130A1F0823011F514C08630B1F0873031
:1013E000C1F08430D9F404C0809180008F7703C0AD
:1013F000809180008F7D80938000089584B58F77E1
:1014000002C084B58F7D84BD08958091B0008F7730
:1014100003C08091B0008F7D8093B0000895CF937A
:10142000DF9390E0FC01E85EFE4F4491FC01E45D37
:10143000FE4F8491882341F190E0880F991FFC01B1
:10144000EC5AFE4F25913491D901865B9E4FFC01E9
:1014500085919491C82FD92F9FB7F8948C916111E1
:1014600006C0409584238C938881842308C0623011
:1014700041F4242F209582238C938881842B8883A8
:1014800002C0842B8C939FBFDF91CF9108950F935F
:101490001F93CF93DF931F92CDB7DEB7282F30E095
:1014A000F901EC5FFE4F8491F901E85EFE4F149163
:1014B000F901E45DFE4F04910023D1F0882321F06F
:1014C00069830E94E5096981E02FF0E0EE0FFF1FBC
:1014D000E65BFE4F85919491DC019FB7F8948C9167
:1014E000611103C01095812301C0812B8C939FBF94
:1014F0000F90DF91CF911F910F910895CF93DF93BC
:10150000282F30E0F901EC5FFE4F8491F901E85E8D
:10151000FE4FD491F901E45DFE4FC491CC2389F0D4
:1015200081110E94E509EC2FF0E0EE0FFF1FE05C57
:10153000FE4F85919491DC018C918D2321E030E068
:1015400011F420E030E0C901DF91CF910895FC0152
:1015500084859585FC01E05CFF4F20813181FC0191
:10156000EE5BFF4F80819181281B390B2F7333274E
:10157000C9010895FC0184859585FC01E05CFF4F5D
:1015800040815181FC01EE5BFF4F20813181421788
:10159000530741F00190F081E02DE80FF91F208101
:1015A00030E002C02FEF3FEFC9010895FC018485B0
:1015B0009585FC01E05CFF4F40815181FC01EE5BB1
:1015C000FF4F208131814217530781F0A081B18103
:1015D000A80FB91F8C91208131812F5F3F4F2F734E
:1015E000332731832083282F30E002C02FEF3FEFD5
:1015F000C9010895FC0181A1882329F0A489B58936
:101600008C9186FFFBCF11A20895CF93DF93FC014D
:1016100026853785D901A05CBF4F8D919C9111978C
:1016200001968F739927E901CE5BDF4F488159817D
:1016300084179507D9F30D90BC91A02DA20FB31F6D
:101640006C93A685B785A05CBF4F11969C938E9333
:10165000A689B7892C9181E090E0078C02C0880FA1
:10166000991F0A94E2F7282B2C9381E081A3048828
:10167000F589E02D80818064808381E090E0DF91B6
:10168000CF91089508951F920F920FB60F921124D3
:101690002F933F934F938F939F93EF93FF9380915B
:1016A000C00082FD1CC04091C6008091A3039091B0
:1016B000A40301968F7399272091A5033091A60367
:1016C0008217930771F0E091A303F091A403ED5901
:1016D000FC4F40839093A4038093A30302C08091A6
:1016E000C600FF91EF919F918F914F913F912F9164
:1016F0000F900FBE0F901F9018958DEF92E00E94F3
:10170000A70A892B11F00C94420B08951F920F9297
:101710000FB60F9211242F933F938F939F93EF93C4
:10172000FF9320915F03309160038091610390915A
:1017300062032817390731F48091C1008F7D8093AF
:10174000C10014C0E0916103F0916203E15EFC4FBF
:101750002081809161039091620301968F73992794
:1017600090936203809361032093C600FF91EF91F1
:101770009F918F913F912F910F900FBE0F901F90CF
:101780001895CF92DF92EF92FF92CF93DF93EC0107
:101790006A017B01411581EE580761057105F9F079
:1017A000EC89FD8981E090E008A002C0880F991FB4
:1017B0000A94E2F7808360E079E08DE390E0A7018E
:1017C00096010E94DA1121503109410951095695BB
:1017D000479537952795211580E1380798F0EC89D2
:1017E000FD89108260E874E88EE190E0A70196011F
:1017F0000E94DA1121503109410951095695479546
:1018000037952795E889F9893083EA89FB89208310
:1018100019A2EE89FF89408181E090E09C010C8C47
:1018200002C0220F331F0A94E2F7422B4083EE8955
:10183000FF8940819C010D8C02C0220F331F0A9446
:10184000E2F7422B4083EE89FF8940819C010E8C98
:1018500002C0220F331F0A94E2F7422B4083EE8925
:10186000FF8920810F8C02C0880F991F0A94E2F72C
:10187000809582238083DF91CF91FF90EF90DF905E
:10188000CF900895109200031092FF0288EE93E02B
:10189000A0E0B0E08093010390930203A0930303C0
:1018A000B093040385E891E09093FE028093FD02DB
:1018B00083E693E090930A03809309038FE193E01A
:1018C00090930C0380930B0385EC90E090930E03B0
:1018D00080930D0384EC90E09093100380930F03AA
:1018E00080EC90E0909312038093110381EC90E0E0
:1018F000909314038093130382EC90E0909316036B
:101900008093150386EC90E090931803809317035F
:1019100084E08093190383E080931A0387E0809327
:101920001B0385E080931C0381E080931D030895D1
:101930000E94AA090E942F03CDE7DBE00E946D03FD
:101940002097E1F30E947D0BF9CFFC01808191810A
:101950000C940011CF93DF93EC018881998100975B
:1019600011F00E940011198218821D821C821B82B4
:101970001A82DF91CF9108950F931F93CF93DF9336
:10198000EC018B016F5F7F4F888199810E94810FED
:10199000009731F0998388831B830A8381E001C01B
:1019A00080E0DF91CF911F910F910895CF93DF9346
:1019B000EC0188819981892B31F08A819B8186177E
:1019C000970708F00CC0CE010E94BC0C882349F098
:1019D0008C819D81892B19F4E881F981108281E045
:1019E00001C080E0DF91CF910895EF92FF920F93B5
:1019F0001F93CF93DF93EC017B018A01BA010E9410
:101A0000D60C811104C0CE010E94AA0C07C01D8310
:101A10000C83B701888199810E941F12CE01DF914A
:101A2000CF911F910F91FF90EF900895DC011196D7
:101A30001C921E9213961C921E92129715961C923F
:101A40001E92149716961C926115710559F0DB01D0
:101A50000D900020E9F7AD0141505109461B570B8D
:101A60000C94F50C0895CF93DF93EC01FB018617DE
:101A7000970761F0608171816115710529F04481DA
:101A800055810E94F50C02C00E94AA0CCE01DF9184
:101A9000CF910895FC011182108213821282158267
:101AA000148216820C94330DCF93DF93D82FC92F55
:101AB0006115710561F0DB010D900020E9F7AD01C2
:101AC00041505109461B570B0E94F50C02C00E9461
:101AD000AA0C8D2F9C2FDF91CF910895EF92FF924A
:101AE0000F931F93CF93DF93EC017B010C811D813A
:101AF0006115710511F480E016C04115510591F092
:101B0000040F151FB8010E94D60C8823A1F3288169
:101B100039818C819D81B701820F931F0E941F1212
:101B20001D830C8381E0DF91CF911F910F91FF9076
:101B3000EF9008956115710559F0DB010D900020BB
:101B4000E9F7AD0141505109461B570B0C946E0D3E
:101B500080E00895CF93DF9300D0CDB7DEB76983DF
:101B60001A8241E050E0BE016F5F7F4F0E946E0D10
:101B70000F900F90DF91CF910895EF92FF920F9306
:101B80001F93CF93DF9300D000D0CDB7DEB77C0199
:101B9000862F4AE050E08E010F5F1F4FB80190E0A2
:101BA0000E942612F80101900020E9F7AF01415090
:101BB0005109401B510BB801C7010E946E0D0F90D7
:101BC0000F900F900F90DF91CF911F910F91FF9089
:101BD000EF900895EF92FF920F931F93CF93DF93AF
:101BE000CDB7DEB727970FB6F894DEBF0FBECDBFD7
:101BF0007C01CB014AE050E08E010F5F1F4FB8011E
:101C00000E942612F80101900020E9F7AF0141502F
:101C10005109401B510BB801C7010E946E0D279658
:101C20000FB6F894DEBF0FBECDBFDF91CF911F91ED
:101C30000F91FF90EF900895FC0124813581621788
:101C4000730748F480819181009729F0FC01E60F29
:101C5000F71F8081089580E00895CF92DF92EF9280
:101C6000FF920F931F93CF93DF936C01EB017A01E7
:101C7000E60EF71E00E010E00BC06991D601ED9171
:101C8000FC910190F081E02DC6010995080F191F04
:101C9000CE15DF0591F7C801DF91CF911F910F910C
:101CA000FF90EF90DF90CF9008956115710581F05E
:101CB000DB010D900020E9F7AD0141505109461BB1
:101CC000570BDC01ED91FC910280F381E02D09942A
:101CD00080E090E00895AF92BF92CF92DF92EF92B2
:101CE000FF920F931F93CF93DF937C016B0100E072
:101CF00010E0C0E0D0E011C0D701ED91FC91A080D0
:101D0000B180B801C6010E941C0E682FC701F50101
:101D10000995C80FD91F0F5F1F4FD60114968D91DB
:101D20009C9115970817190738F3CE01DF91CF91D1
:101D30001F910F91FF90EF90DF90CF90BF90AF90E9
:101D40000895DC01ED91FC910190F081E02D099462
:101D50000F931F93CF93DF93EC016DE00E94A10ED0
:101D60008C016AE0CE010E94A10E9C01200F311F60
:101D7000C901DF91CF911F910F9108950F931F9388
:101D8000CF93DF93EC010E946B0E8C01CE010E9479
:101D9000A80E9C01200F311FC901DF91CF911F9127
:101DA0000F9108954F925F926F927F929F92AF92A0
:101DB000BF92CF92DF92EF92FF920F931F93CF9338
:101DC000DF93CDB7DEB7A1970FB6F894DEBF0FBE95
:101DD000CDBF5C016A017B01922E19A281E08217BE
:101DE00010F08AE0982E8E010F5D1F4F492C512C68
:101DF000612C712CC701B601A30192010E94DA1176
:101E00008C2D929E80191124015011098A3014F4EE
:101E1000805D01C0895CF801808369017A01C11489
:101E2000D104E104F10431F7B801C5010E94550E57
:101E3000A1960FB6F894DEBF0FBECDBFDF91CF9154
:101E40001F910F91FF90EF90DF90CF90BF90AF90D8
:101E50009F907F906F905F904F900895CF92DF9208
:101E6000EF92FF920F931F93CF93DF93EC016A01E0
:101E70007B012115310579F4E881F9810190F08128
:101E8000E02D642FDF91CF911F910F91FF90EF9084
:101E9000DF90CF9009942A30310519F477FD0EC0F8
:101EA0002AE0B701A601CE01DF91CF911F910F91DA
:101EB000FF90EF90DF90CF900C94D20E6DE20E94D5
:101EC000A10E8C0144275527BA014C195D096E09F2
:101ED0007F092AE0CE010E94D20E080F191FC80107
:101EE000DF91CF911F910F91FF90EF90DF90CF90F6
:101EF00008959A01AB01662757FD6095762F0C94E3
:101F00002E0F8F929F92AF92BF92CF92DF92EF925D
:101F1000FF920F931F93CF93DF93EC01009779F417
:101F2000CB01DF91CF911F910F91FF90EF90DF9048
:101F3000CF90BF90AF909F908F900C946510DC0174
:101F4000A60FB71FFC013297AE17BF0718F4C0E009
:101F5000D0E0ADC00081118106171707B0F0053041
:101F6000110508F4A4C0C80104978617970708F460
:101F70009EC002501109061B170B0D931D93718310
:101F80006083CD010E94001192C07B01E01AF10A2A
:101F90005C01A00EB11EE091A903F091AA03812C6F
:101FA000912C80E090E04CC0EA15FB05F1F54081F2
:101FB00051816A0122E0C20ED11CCE14DF04A8F1C7
:101FC0009A012E193F097901690132E0C30ED11C33
:101FD0002EEFA22EBB24BA94AC0EBD1E25E0C21675
:101FE000D10478F04281538113965C934E931297FB
:101FF0001196FC92EE92F501718360833A2F2B2F9C
:1020000009C00E5F1F4F040F151FD5010D931C93C0
:1020100032812381009721F0FC013283238347C062
:102020003093A9032093AA0342C08081918188162E
:10203000990608F44C0152814381CF01E52FF42F1A
:10204000309709F0B1CF8091A7039091A8038A152A
:102050009B05F1F486169706D8F4809109019091BA
:102060000A01009741F48DB79EB720910D01309180
:102070000E01821B930BA817B90708F068CFB09325
:10208000A803A093A703FE013297718360830FC05A
:10209000CB010E9465107C01009709F458CFA8017C
:1020A000BE010E941612CE010E940011E701CE016E
:1020B000DF91CF911F910F91FF90EF90DF90CF9024
:1020C000BF90AF909F908F9008950F931F93CF93E1
:1020D000DF938230910510F482E090E0E091A90353
:1020E000F091AA0320E030E0C0E0D0E023C04081BE
:1020F000518148175907A8F04817590761F48281A0
:102100009381209719F09B838A832EC09093AA0312
:102110008093A90329C02115310529F042175307DF
:1021200010F0A90102C0BE01DF0102811381EF019D
:102130009A01F8013097D9F62115310509F1281BCC
:10214000390B2430310590F412968D919C911397A0
:102150006115710521F0FB019383828304C0909384
:10216000AA038093A903FD01329644C0FD01E20F4A
:10217000F31F81939193225031092D933C933AC0E0
:102180002091A7033091A803232B41F420910B0148
:1021900030910C013093A8032093A70320910901EB
:1021A00030910A012115310541F42DB73EB7409118
:1021B0000D0150910E01241B350BE091A703F09106
:1021C000A803E217F307A0F42E1B3F0B28173907CB
:1021D00078F0AC014E5F5F4F2417350748F04E0F83
:1021E0005F1F5093A8034093A7038193919302C06C
:1021F000E0E0F0E0CF01DF91CF911F910F910895C2
:10220000EF92FF920F931F93CF93DF93009709F400
:102210008FC0DC01129713961C921E921297E090C9
:10222000A903F090AA03E114F10489F42D913C91E3
:102230001197280F391F8091A7039091A803821747
:10224000930789F5B093A803A093A70371C0E70192
:1022500020E030E001C0EA01CA17DB0738F44A8108
:102260005B819E0141155105B1F722C0BC0162504E
:102270007109FB01D383C28300811181AC01400F3E
:10228000511F4C175D0761F448815981400F511F60
:102290004E5F5F4F518340834A815B81538342830A
:1022A0002115310529F4B093AA03A093A90340C0D6
:1022B000F901B383A283E90169917991C60FD71F10
:1022C000AC17BD0779F4DC015E914E91460F571FA4
:1022D0004E5F5F4F5183408312968D919C9113976F
:1022E00093838283A0E0B0E002C0D7017C01F701B4
:1022F000828193810097C9F7C701029620813181BD
:10230000820F931F2091A7033091A8032817390744
:1023100079F4109729F41092AA031092A90304C02B
:1023200013961C921E921297F092A803E092A703B4
:10233000DF91CF911F910F91FF90EF900895A29F91
:10234000B001B39FC001A39F01D0B29F700D811D4A
:102350001124911D08950E949F11A59F900DB49F77
:10236000900DA49F800D911D11240895DB018F9382
:102370009F930E94AB11BF91AF91A29F800D911DC1
:10238000A39F900DB29F900D1124089597FB072EE7
:1023900016F4009407D077FD09D00E94FC1107FCC9
:1023A00005D03EF4909581959F4F08957095619565
:1023B0007F4F0895A1E21A2EAA1BBB1BFD010DC081
:1023C000AA1FBB1FEE1FFF1FA217B307E407F507E5
:1023D00020F0A21BB30BE40BF50B661F771F881FC1
:1023E000991F1A9469F760957095809590959B0157
:1023F000AC01BD01CF010895AA1BBB1B51E107C071
:10240000AA1FBB1FA617B70710F0A61BB70B881F84
:10241000991F5A95A9F780959095BC01CD01089513
:10242000EE0FFF1F0590F491E02D0994FB01DC01F4
:1024300002C001900D9241505040D8F70895FB0121
:10244000DC0101900D920020E1F70895FB019F014E
:10245000E8944230C4F04532B4F44A3029F497FB92
:102460001EF4909581959F4F642F77270E94FC1151
:10247000805D8A330CF0895D8193CB010097A1F7D1
:1024800016F45DE251931082C9010C948214A0E10C
:10249000B0E0EDE4F2E10C942A150F89188D898DD6
:1024A0009A8D26E02C831A83098397FF02C080E06F
:1024B00090E801979E838D83AE01435E5F4F588BFA
:1024C0004F876B8D7C8DCE0101960E9479124D81D4
:1024D0005E8157FD0AC02F813885421753070CF4DF
:1024E0009A01F801E20FF31F10826096E4E00C9469
:1024F0004615ACE0B0E0EFE7F2E10C941C157C016E
:102500006B018A01FC0117821682838181FFC7C19A
:1025100088248394912C8C0E9D1EF7019381F601E3
:1025200093FD859193FF81916F01882309F4B3C1D5
:10253000853239F493FD859193FF81916F01853246
:1025400029F4B70190E00E949214E7CF712C312C4E
:1025500020E02032A8F48B3261F028F4803251F070
:10256000833271F40BC08D3239F0803349F421602D
:1025700028C02260246025C0286023C0206121C0BB
:1025800027FD27C0382F30533A3078F426FF06C095
:10259000FAE07F9E300D1124732E13C08AE0389E1E
:1025A000300D1124332E20620CC08E3221F426FD12
:1025B00072C1206406C08C3611F4206802C08836CF
:1025C00041F4F60193FD859193FF81916F01811193
:1025D000C0CF982F9554933018F09052933028F430
:1025E0000C5F1F4FFFE3F9830DC0833631F0833753
:1025F00071F0833509F05EC023C0F80180818983C2
:102600000E5F1F4F66246394712C540115C028017E
:10261000F2E04F0E511CF801A080B18026FF03C0EC
:10262000672D70E002C06FEF7FEFC5012C870E941D
:1026300077143C0182012C856FE7262E222218C0D8
:102640002801F2E04F0E511CF801A080B18026FF56
:1026500003C0672D70E002C06FEF7FEFC5012C87CC
:102660000E946C143C012C8550E8252E222A820100
:1026700023FC1CC006C0B70180E290E00E949214C7
:102680003A94832D90E068167906A8F30FC0F501FF
:1026900027FC859127FE81915F01B70190E00E94A0
:1026A000921431103A94F1E06F1A710861147104B8
:1026B00071F7EEC0843611F0893641F5F80127FF35
:1026C00007C060817181828193810C5F1F4F08C0B8
:1026D00060817181882777FD8095982F0E5F1F4F4D
:1026E0004FE6642E622297FF09C090958095709501
:1026F00061957F4F8F4F9F4FF0E86F2A2AE030E0BF
:10270000A4010E94BE14A82EA81844C0853731F435
:102710003FEEB32EB2222AE030E024C099EFB92E6A
:10272000B2228F36B9F020F4883509F0B4C00DC05C
:10273000803721F0883709F0AEC002C020E1B22A0C
:10274000B4FE0BC084E0B82A08C024FF09C0E6E04C
:10275000BE2A06C028E030E005C020E130E002C01B
:1027600020E132E0F801B7FE07C06081718182810B
:1027700093810C5F1F4F06C06081718180E090E003
:102780000E5F1F4FA4010E94BE14A82EA8188FE749
:10279000682E6B2066FE0BC0362D3E7FA71450F4CA
:1027A00064FE0AC062FC08C0362D3E7E05C0BA2C0D
:1027B000362D03C0BA2C01C0B72C34FF0DC0FE016A
:1027C000EA0DF11D8081803311F4397E09C032FF9A
:1027D00006C0B394B39404C0832F867809F0B394F1
:1027E00033FD14C030FF0FC07A2CB31460F4730CA7
:1027F0007B18B32C08C0B70180E290E03C870E94B0
:102800009214B3943C85B314B0F304C0B31410F421
:102810003B1801C0312C34FF12C0B70180E390E0B7
:102820003C870E9492143C8532FF1EC031FF03C0DA
:1028300088E590E002C088E790E0B7010CC0832FE4
:10284000867891F031FD02C080E201C08BE237FD55
:102850008DE2B70190E00E94921406C0B70180E3B8
:1028600090E00E9492147A94A714C0F3AA94F40101
:10287000EA0DF11DB701808190E00E949214A11031
:10288000F5CF06C0B70180E290E00E9492143A941E
:102890003110F8CF42CEF7012681378102C02FEFE9
:1028A0003FEFC9012C96E2E10C943815F999FECF5F
:1028B00092BD81BDF89A992780B50895262FF99980
:1028C000FECF1FBA92BD81BD20BD0FB6F894FA9A13
:1028D000F99A0FBE01960895FC0105906150704071
:1028E0000110D8F7809590958E0F9F1F0895FC01D9
:1028F0006150704001900110D8F7809590958E0F2F
:102900009F1F0895DC01FC01672F71917723E1F788
:10291000329704C07C916D9370836291AE17BF07AC
:10292000C8F308950F931F93CF93DF938C01EB01AE
:102930008B8181FD03C00FEF1FEF1AC082FF0DC016
:102940002E813F818C819D812817390764F4E881AD
:10295000F9810193F983E88306C0E885F985802F22
:102960000995892B41F78E819F8101969F838E83E4
:10297000C801DF91CF911F910F910895FA01AA2705
:10298000283051F1203181F1E8946F936E7F6E5FB2
:102990007F4F8F4F9F4FAF4FB1E03ED0B4E03CD060
:1029A000670F781F891F9A1FA11D680F791F8A1F43
:1029B000911DA11D6A0F711D811D911DA11D20D0AA
:1029C00009F468943F912AE0269F11243019305D64
:1029D0003193DEF6CF010895462F4770405D419355
:1029E000B3E00FD0C9F7F6CF462F4F70405D4A33A2
:1029F00018F0495D31FD4052419302D0A9F7EACF6A
:102A0000B4E0A6959795879577956795BA95C9F798
:102A100000976105710508959B01AC010A2E06948B
:102A20005795479537952795BA95C9F7620F731F44
:102A3000841F951FA01D08952F923F924F925F9281
:102A40006F927F928F929F92AF92BF92CF92DF92BE
:102A5000EF92FF920F931F93CF93DF93CDB7DEB723
:102A6000CA1BDB0B0FB6F894DEBF0FBECDBF0994B7
:102A70002A88398848885F846E847D848C849B840E
:102A8000AA84B984C884DF80EE80FD800C811B811C
:102A9000AA81B981CE0FD11D0FB6F894DEBF0FBE4B
:102AA000CDBFED01089511E0C2E6D1E004C0FE0102
:102AB0000E9412122296C436D107C9F7F894FFCFAC
:102AC0000030303100190000000000AB0380002509
:102AD000303278007374617475733D003D3D3D3D47
:102AE0003E4572726F722043524320006D736572CF
:102AF00069616C3D0020444553414354495641446B
:102B00004F0020414354495641444F0020726573A1
:102B1000756C743D000000010008004000000100D9
:102B200004000001000800200040008000000100B7
:102B30000400000000E6062D0E3306E60509062413
:102B40000600000000050B2D0EA70AD60ABA0AFAE5
:022B50000A0079
:00000001FF
