:100000000C94B3000C94DB000C94DB000C947C0B80
:100010000C94A00B0C94C40B0C94DB000C94DB0030
:100020000C94DB000C94DB000C94DB000C94DB00E4
:100030000C94DB000C94DB000C94DB000C94DB00D4
:100040000C94E8110C94DB000C9406160C944916E1
:100050000C94DB000C94DB000C94DB000C94DB00B4
:100060000C94DB000C94DB0000C2010001001100C5
:1000700011000C0000E100000A002500250021000D
:10008000009600001900390039003600127A00008D
:100090001F004600460044008070000022004D0012
:1000A0004D004A00004B00003600750075007200DC
:1000B000403800004A009C009C0099008025000008
:1000C0007200EC00EC00E900C0120000E900DA0167
:1000D000DA01D70160090000D701B603B603B30304
:1000E000B0040000B3036E076E076B0758020000F0
:1000F0006E07DC0EDC0ED80E2C010000DC0EC11DDC
:10010000C11DBE1D0000000700020100000304061F
:1001100000000000000000000102040810204080E0
:100120000102040810200102040810200404040441
:100130000404040402020202020203030303030391
:100140000000000023002600290000000000250018
:1001500028002B0000000000240027002A00C80609
:100160001E100517F50611241FBECFEFD8E0DEBF25
:10017000CDBF13E0A0E0B1E0E8ECFFE302C00590E2
:100180000D92AA32B107D9F715E0AAE2B3E001C097
:100190001D92A039B107E1F711E0C4E6D1E004C037
:1001A0002297FE010E94621CCE35D107C9F70E943A
:1001B00083130C94D71F0C94000086EB93E00E94ED
:1001C000280D82ED93E00E94280D83E094E00E94C8
:1001D00090138AE094E00C949013CF93C82F61E0C1
:1001E0000E94EB1260E08C2FCF910C9424130F939C
:1001F0001F93CF93DF9300E011E0C0E2D0E0F8015D
:1002000041918F01BE0187ED94E00E94E411219697
:10021000C932D105A1F7DF91CF911F910F910895B8
:100220000F931F93CF93DF9367E270E087ED94E025
:100230000E94E11190E020910701332727FD3095BE
:100240008217930779F566E270E087ED94E00E94EB
:10025000E11190E020910601332727FD30958217A8
:10026000930701F565E270E087ED94E00E94E111EB
:1002700090E020910501332727FD309582179307E1
:1002800089F400E011E0C0E2D0E0BE0187ED94E027
:100290000E94E111F80181938F012196C932D105A5
:1002A000A1F706C0DF91CF911F910F910C94F70039
:1002B000DF91CF911F910F910895CF93DF93C0E00D
:1002C000D0E040E0BE0187ED94E00E94E411219669
:1002D000C11582E0D807A9F764EF71E080E090E0F3
:1002E0000E946112E0912E03F0912F03DF91CF91D4
:1002F00009941F928F938FE091E09F938F931F92A9
:1003000083E08F938AE293E09F938F930E94D21CA5
:100310008DB79EB708960FB6F8949EBF0FBE8DBFDF
:100320008AE293E0089588EC80937C0080917A00C3
:10033000806880937A0064E170E080E090E00E9441
:10034000611280917A00806480937A0080917A00B3
:1003500086FDFCCF609178007091790080E090E09C
:100360000E94F31A20E030E848EA53E40E94F519AD
:1003700026EF38E24CE95FE30E945A1A0895FC0127
:1003800040E070E09F01281B390B261737071CF44B
:100390002191420FF7CF842F0895BC0186EB93E0A3
:1003A0000E94D31764E170E080E090E00C94611249
:1003B000CF93DF93CDB7DEB727970FB6F894DEBFA4
:1003C0000FBECDBF66E489E00E9457114091010144
:1003D0005091020160E070E089E00E94CA1160E083
:1003E00084E00E94241361E08AE00E94241380913B
:1003F0000001813029F081E0809300010E94F70024
:1004000064E171E08AE094E00E9436146091010199
:10041000709102018AE094E00E94E91461E271E0C7
:100420008AE094E00E947A146AE074E0CE010196BA
:100430000E942C14CE0101960E94CD01CE0101969E
:100440000E94901327960FB6F894DEBF0FBECDBF63
:10045000DF91CF910895CF93DF93CDB7DEB7279784
:100460000FB6F894DEBF0FBECDBF019719F40E94FE
:10047000D8013DC061E084E00E94241360E08AE07E
:100480000E94241360E089E00E94571141E050E08F
:1004900060E070E089E00E94CA1180910001882329
:1004A00021F0109200010E94F70069E271E08AE0F9
:1004B00094E00E94361460910101709102018AE07B
:1004C00094E00E94E91461E271E08AE094E00E9405
:1004D0007A146AE074E0CE0101960E942C14CE01D9
:1004E00001960E94CD01CE0101960E94901327969D
:1004F0000FB6F894DEBF0FBECDBFDF91CF91089548
:10050000CF93DF93CDB7DEB727970FB6F894DEBF52
:100510000FBECDBF8091F3039091F403A091F5033A
:10052000B091F6034091F7035091F8036091F903FD
:100530007091FA030097A105B105B9F48091040107
:100540002CE3829FC0011124AA2797FDA095BA2F02
:10055000840F951FA61FB71F8093F3039093F40396
:10056000A093F503B093F60349C084179507A60737
:10057000B70708F043C069E371E08AE094E00E94A5
:1005800036144091F7035091F8036091F90370918C
:10059000FA038AE094E00E9418156AE571E08AE0A7
:1005A00094E00E947A144091F3035091F403609117
:1005B000F5037091F6038AE094E00E94181566E155
:1005C00072E08AE094E00E947A146AE074E0CE015E
:1005D00001960E942C14CE0101960E94CD01CE01FD
:1005E00001960E94901368EC70E080E090E00E9419
:1005F0006112E0912E03F0912F03099527960FB613
:10060000F894DEBF0FBECDBFDF91CF910895CF9399
:10061000DF93CDB7DEB727970FB6F894DEBF0FBED6
:10062000CDBF8091EF039091F003A091F103B091C1
:10063000F2030097A105B10569F14091F7035091CC
:10064000F8036091F9037091FA0384179507A607E0
:10065000B70700F565E671E08AE094E00E94361481
:100660006AE074E0CE0101960E942C14CE0101963E
:100670000E94CD01CE0101960E94901361E085E0B9
:100680000E9424131092EF031092F0031092F103D2
:100690001092F20327960FB6F894DEBF0FBECDBFBF
:1006A000DF91CF910895DF92EF92FF920F931F9306
:1006B000CF93DF93CDB7DEB727970FB6F894DEBFA1
:1006C0000FBECDBF8B0140E0D12C242F30E020178E
:1006D00031073CF4FC01E20FF31F2081D20E4F5F83
:1006E000F4CF7C01E00EF11EF70180818D15C1F180
:1006F00067E771E08AE094E00E943614B8018AE06E
:1007000094E00E94B7146CE871E08AE094E00E94E3
:100710007A14F70160818AE094E00E948A1463E908
:1007200071E08AE094E00E947A146D2D8AE094E0F2
:100730000E948A1466E172E08AE094E00E947A14D2
:100740006AE074E0CE0101960E942C14CE0101965D
:100750000E94CD01CE0101960E94901380E001C05D
:1007600081E027960FB6F894DEBF0FBECDBFDF91B4
:10077000CF911F910F91FF90EF90DF900895CF934D
:10078000DF93CDB7DEB76D970FB6F894DEBF0FBE1F
:10079000CDBF262FAC0160E373E0CE0101960E942D
:1007A000720FCE0144960E94AA0DBE016F5F7F4F6B
:1007B00088E393E00E94AE0F64EF71E088E393E07A
:1007C0000E94380F8823C9F088E393E00E94A90EA5
:1007D0000E947E0D8B38C9F488E393E00E94A90E35
:1007E000BE016C5E7F4F0E94B00DCE0144960E9408
:1007F000AB0D91E0882351F006C088E393E00E949E
:10080000A90E0E94840D90E001C091E0892F6D96A1
:100810000FB6F894DEBF0FBECDBFDF91CF91089524
:10082000CF92DF92EF92FF920F931F93CF93DF93BC
:10083000CDB7DEB766970FB6F894DEBF0FBECDBF5B
:10084000FC0182818133E9F481818330A9F4438101
:1008500050E0542F44278481480F511DCA0101974D
:100860008F30974248F4509302014093010160E0B9
:1008700070E089E00E94CA110E94D80181E090E0F6
:10088000DCC1823339F480E090E00E942B0280E0EA
:1008900090E0D3C18333F9F480910001813019F4E1
:1008A00069E971E002C068EA71E08AE094E00E94C0
:1008B00036146AE074E0CE0101960E942C14CE0139
:1008C00001960E94CD01CE0101960E949013809165
:1008D000000190E0B2C1843309F040C081818230D0
:1008E00019F4038110E002C00AE010E080E090E01B
:1008F0000E942B0260E085E00E942413C801AA2711
:1009000097FDA095BA2F4091F7035091F80360919D
:10091000F9037091FA03840F951FA61FB71F8093E8
:10092000EF039093F003A093F103B093F2036AEB0B
:1009300071E08AE094E00E9436146AE074E0CE012F
:1009400001960E942C14CE0101960E94CD01CE0189
:1009500001960E94901384E090E06FC18533D9F531
:100960008181833009F067C1038110E0102F0027D7
:100970008481080F111DC80101978F30974208F03C
:1009800057C11093020100930101A80160E070E0DB
:1009900089E00E94CA1165ED71E08AE094E00E944E
:1009A0003614B8018AE094E00E94E91465EE71E023
:1009B0008AE094E00E947A146AE074E0CE01019625
:1009C0000E942C14CE0101960E94CD01CE01019609
:1009D0000E9490132DC1863329F40E94F70086E00F
:1009E00090E02BC1873309F04FC06DEE71E08AE0D3
:1009F00094E00E9436146BEE71E08AE094E00E946D
:100A00007A1469EF71E08AE094E00E947A146AE057
:100A100074E08E010F5F1F4FC8010E942C14C801A3
:100A20000E94CD01C8010E94901380910301813082
:100A300031F46AE074E082ED93E00E94831786E16E
:100A4000F80111928A95E9F78FEF89838DE98A83FE
:100A50006E01F3E0CF0ED11CE12CF12CB7018AE03E
:100A600094E00E944B15FC018081F60181936F0197
:100A7000FFEFEF1AFF0A24E1E216F10479F766E1CD
:100A8000C8010E94BF03D7C0883319F40E945D01DA
:100A9000D2C0893311F562E072E08AE094E00E94EE
:100AA00036146AE074E0CE0101960E942C14CE0147
:100AB00001960E94CD01CE0101960E94901368EC30
:100AC00070E080E090E00E946112E0912E03F091CE
:100AD0002F03099589E090E0B0C0803491F58181C1
:100AE000823049F48381811103C0109203010AC04E
:100AF000813041F405C081E090910301911180E0C3
:100B0000809303016BE172E08AE094E00E94361466
:100B1000609103018AE094E00E948A146AE074E024
:100B2000CE0101960E942C14CE0101960E94CD01A7
:100B3000CE0101960E9490130E94F7008AE090E097
:100B40007CC08134A9F580910401ECE38E9FC00143
:100B50001124AA2797FDA095BA2F4091F703509131
:100B6000F8036091F9037091FA03840F951FA61F93
:100B7000B71F8093F3039093F403A093F503B0930E
:100B8000F6036BE272E08AE094E00E9436146AE0B9
:100B900074E0CE0101960E942C14CE0101960E94B1
:100BA000CD01CE0101960E9490138BE090E045C0EC
:100BB000823471F58181823031F483818093040124
:100BC0006AE472E002C067E772E08AE094E00E94A3
:100BD0003614609104018AE094E00E948A146EE663
:100BE00072E08AE094E00E947A146AE074E0CE0138
:100BF00001960E942C14CE0101960E94CD01CE01D7
:100C000001960E9490130E94F7008CE090E015C0BE
:100C1000833489F40E945D0168EC70E080E090E02C
:100C20000E946112E0912E03F0912F03099503C0F9
:100C300085E090E002C083E690E066960FB6F894F7
:100C4000DEBF0FBECDBFDF91CF911F910F91FF90FF
:100C5000EF90DF90CF90089588E10FB6F8948093DD
:100C60006000109260000FBE0E94100184E090E0CE
:100C70000E94ED0085E090E00E94ED0061E084E0DC
:100C80000E94241361E085E00E9424138AE090E032
:100C90000E94ED0060E08CE00E94EB1261E08CE0CD
:100CA0000E94241361E08BE00E94EB1260E08BE075
:100CB0000E9424136CE271E080E090E00E946112D7
:100CC00060E08BE00E94EB1260E08BE00E94241356
:100CD00080910301813081F460E082E00E94EB1298
:100CE00061E083E00E94EB1240E855E260E070E0D2
:100CF00082ED93E00E94660C60E086E00E94EB12B9
:100D000061E087E00E94EB1240E855E260E070E0AD
:100D100086EB93E00E94660C0E94C41141E050E013
:100D200060E070E089E00E94CA118823A1F061E0D0
:100D30008AE00E94241366E970E080E090E00E945F
:100D4000611260E08AE00E94241366E970E080E0AE
:100D500090E00E94611264EF71E080E090E00E94F8
:100D6000611280910001813019F40E94D80104C001
:100D700080E090E00E942B0228E288E190E00FB62C
:100D8000F894A895809360000FBE209360000895AA
:100D90000F931F936CEE71E08AE094E00E94FE13C3
:100DA0006CEE71E083E094E00E94FE1320E043E0EB
:100DB00062E082ED93E00E94360C20E047E066E0BE
:100DC00086EB93E00E94360C88E393E00E945A0E73
:100DD00000E010E0980140E050E0BA0180E393E0C9
:100DE0000E94640F1F910F9108950C94DD00EF9203
:100DF000FF921F93CF93DF931F92CDB7DEB77C0195
:100E0000162F63E282ED93E079830E940A0B612F33
:100E100082ED93E00E940A0BE091D203F091D3039C
:100E20000280F381E02D412F5981B70182ED93E0DB
:100E30000995612FC7010E94BF01682F82ED93E0E1
:100E40000E940A0B64E170E080E090E00F90DF9177
:100E5000CF911F91FF90EF900C946112EF92FF924F
:100E60000F931F93CF93DF93CDB7DEB72D970FB6B8
:100E7000F894DEBF0FBECDBF82ED93E00E94480A1A
:100E8000181619060CF099C010921304109212044F
:100E90001092110482ED93E00E94480A1816190678
:100EA000E4F4009111041091120482ED93E00E9489
:100EB0000D0AF801ED5EFB4F808380911104909143
:100EC000120401969093120480931104FC01ED5ECC
:100ED000FB4F108288379105ECF2609111047091FC
:100EE0001204161617060CF068C06150710983E1F0
:100EF00094E00E945303882309F45FC08091130497
:100F0000803409F05AC083E194E00E941004909369
:100F10000204809301048336910509F44EC08E01CA
:100F2000085F1F4F96E0F80111929A95E9F78887BC
:100F300080910001898780910101909102019A8737
:100F40008B870E94930120E030E040E251E40E9450
:100F5000811B0E94C21A7C876D8766E070E0C80121
:100F60000E94F70663E972E08AE094E00E9436147A
:100F70007E01FEE0EF0EF11C6BEE71E08AE094E082
:100F80000E947A14F80181918F010E947901BC01BD
:100F90008AE094E00E947A140E151F0569F76AE052
:100FA00074E0CE0101960E942C14CE0101960E949D
:100FB000CD01CE0101960E9490132D960FB6F894A4
:100FC000DEBF0FBECDBFDF91CF911F910F91FF907C
:100FD000EF900895CF92DF92EF92FF920F931F93BD
:100FE000CF93DF93CDB7DEB76D970FB6F894DEBF22
:100FF0000FBECDBF88E393E00E94AA0E88E393E082
:101000000E94A90E0E94810D882309F411C1CE010E
:1010100001960E94B80D88E393E00E94A90EBE01DC
:101020006D5F7F4F0E94D90DCE0101960E94310D58
:1010300090E0909312048093110467E972E08AE0D3
:1010400094E00E94361460911104709112048AE0B9
:1010500094E00E94B71462EA72E08AE094E00E9491
:101060007A148E010C5E1F4F6AE074E0C8010E9482
:101070002C14C8010E94CD01C8010E9490138091D8
:10108000110490911204883791050CF0D1C023E12E
:10109000C22E24E0D22EE12CF12C809111049091EB
:1010A0001204E816F9067CF4CE0101960E94370E70
:1010B0008E0D9F1DFC018081F60181936F01FFEF72
:1010C000EF1AFF0AEACF8DE00E945A1361E0892BE4
:1010D00009F060E08DE00E942413409104018CE34C
:1010E000489FA0011124662757FD6095762F8091B7
:1010F000F7039091F803A091F903B091FA03480F18
:10110000591F6A1F7B1F4093F3035093F4036093AE
:10111000F5037093F60380911304803409F088C0BE
:1011200060911104709112046150710983E194E09F
:101130000E945303811148C064EA72E08AE094E09F
:101140000E943614E12CF12C80911104909112042C
:10115000E816F906CCF46BEE71E08AE094E00E94A8
:101160007A14CE0101960E94370E8E0D9F1DFC0150
:1011700080810E947901BC018AE094E00E947A1487
:10118000FFEFEF1AFF0AE0CF6DEA72E08AE094E029
:101190000E947A1460911104709112048AE094E024
:1011A0000E94B71462EB72E08AE094E00E947A1425
:1011B0006AE074E0C8010E942C14C8010E94CD01AD
:1011C000C8010E94901334C083E194E00E9410048F
:1011D00090930204809301048336910549F19AE0CB
:1011E000F80111929A95E9F79FEF9C8B9CE99D8BF2
:1011F0008E8B809100018F8B80910301888F80916D
:101200000401898F80910101909102019A8F8B8F47
:101210000E94930120E030E040E251E40E94811BF3
:101220000E94C21A7C8F6D8F6AE0C8010E94BF03C2
:101230006D960FB6F894DEBF0FBECDBFDF91CF9194
:101240001F910F91FF90EF90DF90CF900895CF9274
:10125000DF92EF92FF92CF93DF93CDB7DEB7279760
:101260000FB6F894DEBF0FBECDBF0E943212C09001
:10127000FB03D090FC03E090FD03F090FE036C159F
:101280007D058E059F05E8F56DEB72E08AE094E040
:101290000E9436140E943212AB01BC018AE094E035
:1012A0000E9418156BEE71E08AE094E00E947A14B7
:1012B0004091FB035091FC036091FD037091FE038C
:1012C0008AE094E00E94181566E172E08AE094E0FA
:1012D0000E947A146AE074E0CE0101960E942C14F8
:1012E000CE0101960E94CD01CE0101960E9490137D
:1012F0008091FF03909100040196909300048093E5
:10130000FF030E9432126093FB037093FC038093EF
:10131000FD039093FE0328EE33E040E050E00E948E
:101320002A1C69017A01A091FF03B091000427E310
:1013300039E841E450E00E94FE1BC60ED71EE81EAD
:10134000F91EC092F703D092F803E092F903F092ED
:10135000FA038091EE0381112BC086E0C816D104F8
:10136000E104F10428F140E051EE60E070E082EE2B
:1013700094E00E94841662EE74E088E393E00E9499
:101380006C0E81E08093EE036FEC72E08AE094E0F3
:101390000E9436146AE074E0CE0101960E942C147B
:1013A000CE0101960E94CD01CE0101960E949013BC
:1013B000A8950E9480020E9407038091030181305A
:1013C00011F40E942E070E94EA078CE00E945A1333
:1013D000892B81F481E090E020910001222311F01B
:1013E00080E090E00E942B0264EF71E080E090E0EA
:1013F0000E94611264E670E080E090E00E94611259
:1014000027960FB6F894DEBF0FBECDBFDF91CF9108
:10141000FF90EF90DF90CF9008952091CD04309110
:10142000CE0428173907B9F490918B0480918C046D
:10143000981789F0E0918B04F0E0E357FB4F80812F
:1014400020918B0430E02F5F3F4F2F733327209381
:101450008B0490E008958FEF9FEF08952091CD04C5
:101460003091CE042817390781F490918B04809134
:101470008C04981751F0E0918B04F0E0E357FB4F98
:101480008081992787FD909508958FEF9FEF0895AC
:101490002091CD043091CE042817390771F4809142
:1014A0008C0420918B0490E0805C9F4F821B9109FB
:1014B00060E470E00E94161C089580E090E00895BA
:1014C0002091CD043091CE042817390739F48FB715
:1014D000F89410928C0410928B048FBF0895DC0155
:1014E0005196ED91FC915297208150968C91809568
:1014F00082238083089520E001972FEF8F3F92078A
:10150000D9F708952091CD043091CE0428173907DA
:1015100089F0FC01238D2E7F238F2FB7F894109232
:101520008C0410928B049093CE048093CD042FBF33
:1015300081E0089580E00895EF92FF920F931F934A
:10154000CF93DF93EC018B8DEE85FF859D8581FF29
:1015500004C08081892329F447C08081892309F050
:1015600043C08B899C890E947B0A08E010E0EE242E
:10157000E394F12C8D899E890E947B0AEE85FF857C
:1015800080819D85892311F0FE2803C08E2D8095D2
:10159000F822EE0C015011090115110559F78F8938
:1015A000988D0E947B0A8B8D81FDF09480918C0434
:1015B00020918B0490E001968F73992730E0821779
:1015C000930779F0E0918C04F0E0E357FB4FF08251
:1015D00080918C0490E001968F73992780938C04FE
:1015E00003C08B8D81608B8FDF91CF911F910F9105
:1015F000FF90EF900895611102C00C946F0ADC0116
:101600005196ED91FC915297208150968C91282B08
:1016100020830895DF92EF92FF920F931F93CF9351
:10162000DF93EC01E62E898D9A8D892B39F481E0C8
:1016300090E09B838A8380E090E04DC0DFB6F89411
:101640006B8D66956170CE010E94FB0A898D9A8D23
:1016500005960E947B0A8B8D08E010E0FF24F3942E
:1016600081FF19C08F2D8E2121F0CE010E946F0ABB
:1016700004C061E0CE010E94FB0A898D9A8D0E9410
:101680007B0AFF0C015011090115110559F7CE0114
:101690000E946F0A19C08F2D8E2129F061E0CE01C2
:1016A0000E94FB0A03C0CE010E946F0A898D9A8DA9
:1016B0000E947B0AFF0C015011090115110559F711
:1016C00061E0CE010E94FB0ADFBE898D9A8D0E94E7
:1016D0007B0A81E090E0DF91CF911F910F91FF9005
:1016E000EF90DF9008958091CD049091CE04009703
:1016F00011F00C949C0A08951F920F920FB60F924E
:1017000011242F933F934F935F936F937F938F9306
:101710009F93AF93BF93EF93FF930E94730BFF913F
:10172000EF91BF91AF919F918F917F916F915F9159
:101730004F913F912F910F900FBE0F901F901895D2
:101740001F920F920FB60F9211242F933F934F9336
:101750005F936F937F938F939F93AF93BF93EF9319
:10176000FF930E94730BFF91EF91BF91AF919F91F7
:101770008F917F916F915F914F913F912F910F903A
:101780000FBE0F901F9018951F920F920FB60F92D9
:1017900011242F933F934F935F936F937F938F9376
:1017A0009F93AF93BF93EF93FF930E94730BFF91AF
:1017B000EF91BF91AF919F918F917F916F915F91C9
:1017C0004F913F912F910F900FBE0F901F90189542
:1017D0001F93CF93DF93EC01162F61E0812F0E94BE
:1017E000EB1261E0812F0E942413812F90E0FC0115
:1017F000E85EFE4FE491E88BFC01E45DFE4FE4916E
:10180000F0E0EE0FFF1FE65BFE4F859194919A8BFF
:10181000898BDF91CF911F9108951F93CF93DF9311
:10182000EC01162F60E0812F0E94EB128B8D81FD61
:1018300004C061E0812F0E9424131C87812F90E057
:10184000FC01E85EFE4FE491ED87FC01E45DFE4F94
:10185000E491F0E0EE0FFF1FE05CFE4F8591949164
:101860009F878E87DF91CF911F910895FF920F93ED
:101870001F93CF93DF93EC01F62E522F1B821A8217
:1018800008EE13E020E030E00C831D832E833F83BD
:1018900081EE92E0998388831C8A1B8A1E8A1D8AA6
:1018A000188E1F8A1A8E198E8B8D8E7F50FB81F9B0
:1018B0008B8F642FCE010E94E80B6F2DCE01DF913C
:1018C000CF911F910F91FF900C940D0C0F931F93CC
:1018D000CF93DF93EC011A8E198E188E1F8A1E8A01
:1018E0001D8AA8E6B0E080E090E0FD010591159129
:1018F00025913491041715072607370719F54CE091
:10190000489F9001499F300D1124F901E459FF4F80
:10191000859194919C8B8B8BF901E259FF4F8591B6
:1019200094919E8B8D8BF901E059FF4F8591949195
:10193000988F8F8B2E583F4FF901859194919A8FF4
:10194000898F08C001961C968D30910509F0CDCF86
:101950001C8A1B8A8F89988D892B09F443C08C853A
:101960008631E0F520916800883050F091E08E30AB
:1019700008F490E081E001C0880F9A95EAF701C071
:1019800084E0822B809368002C85283038F02E303C
:1019900040F0263148F0E0E0F0E008C0EDE6F0E08D
:1019A00005C0EBE6F0E002C0ECE6F0E03081283064
:1019B00030F481E001C0880F2A95EAF70DC0822F2C
:1019C00090E02E3010F4089701C00E9791E001C00E
:1019D000990F8A95EAF7892F832B8083898D9A8DB9
:1019E0000E947B0ACE01DF91CF911F910F910C9441
:1019F000820AFC014485463150F5483028F04E30CB
:101A000030F4EBE6F0E005C0EDE6F0E002C0ECE615
:101A1000F0E05081483040F481E090E0042E01C0B5
:101A2000880F0A94EAF710C0242F30E04E3018F4E3
:101A30002850310902C02E50310981E090E0022E79
:101A400001C0880F0A94EAF7809585238083089562
:101A500021EE32E0FC01318320830C94F90C8BE001
:101A60000895CF93DC011696CC911697ED91FC91D9
:101A70000280F381E02D0995C150C81B8C2FCF91B6
:101A80000895FC018681845F0895FC01611102C004
:101A900082850895613011F481850895623011F4D2
:101AA00080850895633011F487810895643011F4BE
:101AB00086850895653011F485850895663011F4A2
:101AC00084850895673011F483850895683011F492
:101AD00080890895693011F4878508956A3011F47A
:101AE000818908956B3011F4828908950480F5810D
:101AF000E02DE60FF11D3C9780810895FC01828165
:101B00000895FC018781089521E0FC018085811101
:101B100001C020E0822F0895FC01DB018281129632
:101B20008C931297878117968C93179785811596BA
:101B30008C931597808518968C93189786811696A6
:101B40008C931697838113968C93139784811496A4
:101B50008C9308950895DC01ED91FC9184810895A2
:101B6000FC0120813181FB01318320830C948C0D99
:101B7000CF93DF93CDB7DEB728970FB6F894DEBFCB
:101B80000FBECDBF21EF32E0FC013183208328E07E
:101B9000FE013196DC011B9601900D922A95E1F72A
:101BA00028960FB6F894DEBF0FBECDBFDF91CF9160
:101BB00008950F931F93CF93DF938C01EB01DC010A
:101BC0008D919C9199838883C8010E948C0DD801C6
:101BD000ED91FC91808190E0A0E0B0E0B82FAA27C1
:101BE00099278827418150E060E070E0BA015527CD
:101BF0004427840F951FA61FB71F2381820F911DB5
:101C0000A11DB11D228130E0322F2227820F931FA8
:101C1000A11DB11D89879A87AB87BC87848190E01D
:101C2000A0E0B0E0B82FAA2799278827458150E087
:101C300060E070E0BA0155274427840F951FA61F66
:101C4000B71F2781820F911DA11DB11D268130E094
:101C5000322F2227820F931FA11DB11D8D879E87D2
:101C6000AF87B88BDF91CF911F910F910895CF93DC
:101C7000DF93DC011296CD91DC911397ED91FC91ED
:101C80000280F381E02D0995FE01E80FF11DCF01DF
:101C9000DF91CF910895FC01178210861582128280
:101CA0001382148216820895FC011286118614860E
:101CB0000C944B0EFC011286118614861586178231
:101CC000108615820E9691838083E458FF4F82EE32
:101CD00094E091838083089584589F4FFC01718321
:101CE0006083089584589F4FDC018D919C91DC01A5
:101CF000ED91FC910480F581E02D099521E0892B7F
:101D000009F420E0822F089584589F4FDC018D91C3
:101D10009C91DC01ED91FC910680F781E02D099505
:101D2000089584589F4FDC018D919C91DC01ED91C9
:101D3000FC910284F385E02D099484589F4FDC01C7
:101D40008D919C91DC01ED91FC910190F081E02D51
:101D500009940895DF92EF92FF920F931F93CF9310
:101D6000DF93EC018F81811103C08885882319F0EE
:101D7000CE010E94540E52E0D52E01E063E0E62E23
:101D800074E0F72E10E2CE010E94720E882309F44F
:101D900067C0CE010E94840E8B879A85992399F0A3
:101DA0008E3711F483E038C08D3769F4CE010E947C
:101DB000720E882331F0CE010E94840E81278B871A
:101DC00002C00987E0CF8985882321F08B85812790
:101DD0008B8719864A85433020F08C859B85890F37
:101DE0008C87413071F040F0423079F0433089F413
:101DF0008B858A83FA86C7CF8B858E3721F60A8733
:101E0000C2CF8B858B83DA86BECF8B858C83EA86A7
:101E1000BACF4F3618F082E0888722C0242F30E0F6
:101E20008C8190E003962817390779F48C858F3FD1
:101E300031F48B858D8381E08F83188602C081E029
:101E4000888744504E831A860BC08B85E881F981C0
:101E5000E20FF31F349780838A858F5F8A8793CF41
:101E6000DF91CF911F910F91FF90EF90DF90089538
:101E7000CF92DF92EF92FF920F931F93CF93DF9356
:101E8000EC018B0177FF02C080E015C00E94321286
:101E90006B017C010E9432126C197D096017710779
:101EA0009CF7CE010E94AA0E8F81811104C0888503
:101EB000882381F3E9CFDF91CF911F910F91FF909C
:101EC000EF90DF90CF9008950F931F93FC01408314
:101ED00051836283738304831583268337831F9121
:101EE0000F910895CF93DF93EC0180E18A8381E025
:101EF0008B835D834C832E8389EF92E09983888363
:101F000088E0FB01DE01179601900D928A95E1F7BA
:101F10008EEF9FEF988B8F87198A1A8ADF91CF9166
:101F200008951F93CF93DF93EC01162F442379F08C
:101F300083E8860F823020F0862F8D7F813139F43F
:101F40006DE7CE010E949D0E60E2612701C0612F06
:101F5000CE01DF91CF911F910C949D0EDF92EF92F5
:101F6000FF920F931F93CF93DF938C01EB016EE7EA
:101F70000E949D0EE881F9810280F381E02DCE015F
:101F80000995E82EE881F9810280F381E02DCE01E8
:101F90000995F82E2E2D30E02E5F3F4F41E0632F44
:101FA000C8010E94910F62E06F0D41E0C8010E94DC
:101FB000910F41E06A81C8010E94910F41E06B815D
:101FC000C8010E94910FDA808B81D80EE12CF12C90
:101FD000E881F9810280F381E02DCE010995282F57
:101FE00030E0E216F306D4F4E881F9810190F08143
:101FF000E02D6E2DCE01099541E0682FC8010E94A9
:10200000910FE881F9810190F081E02D6E2DCE01D4
:102010000995D80E8FEFE81AF80ADACF6D2D609582
:1020200041E0C8010E94910FC801DF91CF911F913B
:102030000F91FF90EF90DF900C94910E1092CF04CF
:102040001092D0041092D1041092D2048FEF9FEF1F
:10205000A0E0B0E08093D3049093D404A093D5047F
:10206000B093D6040895E1E8F0E090818770987FFE
:10207000892B80830895CF92DF92EF92FF926B01BC
:102080007C01DC01CB010197A109B109803894489A
:10209000AE41B10508F041C0A70196016EEF7FEF98
:1020A00081E090E00E94061C9B01AC0160E074E2BC
:1020B00084EF90E00E942A1CE0E061E06E0FF0E007
:1020C000EE0FFF1FE35FFC4F808191818217930722
:1020D00010F4E62FF2CFA7019601220F331F441F01
:1020E000551FE62EF12CF701EE0FFF1FE35FFC4FAB
:1020F000A081B1810E94F31B9B01AC0160E074E2FE
:1021000084EF90E00E942A1C309387002093860081
:10211000C7010E94331081E001C080E0FF90EF9082
:10212000DF90CF900895E0E8F0E080818C7F80839D
:10213000E1E8F0E08081877E8061808364EF71E078
:1021400080E090E00C943B10FC01EB5BFF4F808142
:10215000887F6770862B80830895FC01EB5BFF4FBF
:102160008081887F6770862B808308954F925F926D
:102170006F927F928F929F92AF92BF92CF92DF9297
:10218000EF92FF92CF93DF93EC016A017B01DB01B9
:10219000CA014F97A109B10982369448AE41B105F1
:1021A00008F05BC0AEEFB1E09A01AB010E94F31BF7
:1021B0009B01AC0160E074E284EF90E00E942A1C75
:1021C00046015701880C991CAA1CBB1CD12C412C20
:1021D00084E2582E84EF682E712CCC36D10569F03C
:1021E000D394ED2DF0E0EE0FFF1FE35FFC4FE08096
:1021F000F180E216F306A0F30CC0D394ED2DF0E0CD
:10220000EE0FFF1FE350FD4FE080F180E216F30672
:10221000A0F3D701A50194010E94F31B9B01AC011F
:10222000C301B2010E942A1C2F3F310519F010F0A2
:102230009701D3CFFE01E95BFF4F20836D2D70E046
:10224000CC36D10521F0CE010E94A41004C08CE64A
:1022500090E00E94AD1081E001C080E0DF91CF915D
:10226000FF90EF90DF90CF90BF90AF909F908F90B6
:102270007F906F905F904F900895FC01EC5BFF4F53
:1022800020812C7F21602083FC01EB5BFF4F2081AC
:1022900028602083009729F420916E002E7F2093E0
:1022A0006E0044EF51E060E070E00C94B6101F93B4
:1022B000CF93DF93C82F162F61E00E94EB1211110C
:1022C00002C060E003C01F3F39F461E08C2FDF9152
:1022D000CF911F910C942413EC2FF0E0EC5FFE4F94
:1022E000E491E330D1F050F4E23079F584B58062C6
:1022F00084BD27B530E0C8E4D0E037C0E430C9F091
:10230000E73019F58091B00080628093B000209191
:10231000B30030E0C4EBD0E028C08091800080683A
:10232000809380002091860030918700C8E8D0E03B
:102330000FC0809180008062809380002091860091
:1023400030918700CAE8D0E003C017FFBACFBDCFF5
:10235000A12FB0E00E94E41B2FEF30E040E050E0FE
:102360000E942A1C398328830BC0A12FB0E00E9451
:10237000E41B2FEF30E040E050E00E942A1C28834D
:10238000DF91CF911F9108950E9493108CE690E009
:102390000C943D11E82FFF27E7FDF095EC5FFE4F11
:1023A000E4918DEF8E0F823020F4CB01BA010C94B2
:1023B0003B10E73021F48CE690E00C94B61080E0FE
:1023C0000895CB010C94D41ECB01642F0C94DC1E19
:1023D0001F920F920FB60F9211242F933F938F935A
:1023E0009F93AF93BF938091D9049091DA04A09109
:1023F000DB04B091DC043091D80423E0230F2D37A7
:1024000020F40196A11DB11D05C026E8230F0296F8
:10241000A11DB11D2093D8048093D9049093DA04B0
:10242000A093DB04B093DC048091DD049091DE0482
:10243000A091DF04B091E0040196A11DB11D80932D
:10244000DD049093DE04A093DF04B093E004BF9119
:10245000AF919F918F913F912F910F900FBE0F9051
:102460001F9018952FB7F8946091D9047091DA04F1
:102470008091DB049091DC042FBF08953FB7F8945E
:102480008091DD049091DE04A091DF04B091E0041E
:1024900026B5A89B05C02F3F19F00196A11DB11DBF
:1024A0003FBF6627782F892F9A2F620F711D811DDC
:1024B000911D42E0660F771F881F991F4A95D1F73B
:1024C0000895CF92DF92EF92FF92CF93DF936B014B
:1024D0007C010E943E12EB01C114D104E104F1041D
:1024E00079F00E943E126C1B7D0B683E7340A0F396
:1024F00081E0C81AD108E108F108C851DC4FECCFDF
:10250000DF91CF91FF90EF90DF90CF900895789476
:1025100084B5826084BD84B5816084BD85B58260E8
:1025200085BD85B5816085BDEEE6F0E08081816086
:102530008083E1E8F0E01082808182608083808186
:1025400081608083E0E8F0E0808181608083E1EB5E
:10255000F0E0808184608083E0EBF0E08081816046
:102560008083EAE7F0E080818460808380818260FC
:1025700080838081816080838081806880831092E5
:10258000C1000895833081F028F4813099F08230C1
:10259000A1F008958630A9F08730B9F08430D1F4E5
:1025A000809180008F7D03C0809180008F77809321
:1025B0008000089584B58F7702C084B58F7D84BD77
:1025C00008958091B0008F7703C08091B0008F7D17
:1025D0008093B0000895CF93DF9390E0FC01E85E14
:1025E000FE4F2491FC01E45DFE4F8491882349F164
:1025F00090E0880F991FFC01EC5AFE4FA591B49111
:10260000865B9E4FFC01C591D4919FB7611108C0B4
:10261000F8948C91209582238C93888182230AC020
:10262000623051F4F8948C91322F309583238C933F
:102630008881822B888304C0F8948C91822B8C93A0
:102640009FBFDF91CF9108950F931F93CF93DF9397
:102650001F92CDB7DEB7282F30E0F901EC5FFE4FB7
:102660008491F901E85EFE4F1491F901E45DFE4F9B
:1026700004910023C9F0882321F069830E94C212CB
:102680006981E02FF0E0EE0FFF1FE65BFE4FA591A2
:10269000B4919FB7F8948C91611103C01095812378
:1026A00001C0812B8C939FBF0F90DF91CF911F9121
:1026B0000F910895CF93DF93282F30E0F901EC5F5D
:1026C000FE4F8491F901E85EFE4FD491F901E45D7B
:1026D000FE4FC491CC2391F081110E94C212EC2FC5
:1026E000F0E0EE0FFF1FE05CFE4FA591B4912C913E
:1026F0002D2381E090E021F480E002C080E090E0B2
:10270000DF91CF9108950E9487120E942C06C0E4A9
:10271000D6E10E9427092097E1F30E944016F9CFE5
:10272000FC01808191810C947D18CF93DF93EC01A3
:1027300088819981009711F00E947D181982188272
:102740001D821C821B821A82DF91CF9108950F9304
:102750001F93CF93DF93EC018B016F5F7F4F8881D5
:1027600099810E940C19009731F0998388831B830B
:102770000A8381E001C080E0DF91CF911F910F912A
:102780000895CF93DF93EC0188819981892B29F0FB
:102790008A819B818617970760F4CE010E94A71358
:1027A000882341F08C819D81892B19F4E881F9817E
:1027B000108281E0DF91CF910895EF92FF920F9305
:1027C0001F93CF93DF93EC017B018A01BA010E9432
:1027D000C113811104C0CE010E94951307C01D834F
:1027E0000C83B701888199810E946F1CCE01DF9113
:1027F000CF911F910F91FF90EF900895FC011182EE
:10280000108213821282158214821682611571055C
:1028100059F0FB0101900020E9F7AF014150510947
:10282000461B570B0C94DD130895CF93DF93EC01F7
:10283000FB018617970761F0608171816115710551
:1028400029F0448155810E94DD1302C00E94951336
:10285000CE01DF91CF910895FC0111821082138285
:1028600012821582148216820C941514CF93DF9372
:10287000EC016115710561F0FB0101900020E9F7A1
:10288000AF0141505109461B570B0E94DD1302C096
:102890000E949513CE01DF91CF910895EF92FF92A0
:1028A0000F931F93CF93DF93EC017B010C811D816C
:1028B0006115710511F480E016C04115510591F0C4
:1028C000040F151FB8010E94C1138823A1F32881AA
:1028D00039818C819D81B701820F931F0E946F1CEB
:1028E0001D830C8381E0DF91CF911F910F91FF90A9
:1028F000EF9008956115710559F0FB0101900020DA
:10290000E9F7AF0141505109461B570B0C944E1487
:1029100080E00895EF92FF920F931F93CF93DF9380
:1029200000D000D0CDB7DEB77C01862F4AE050E062
:102930008E010F5F1F4FB80190E00E94761CF801D6
:1029400001900020E9F7AF0141505109401B510BA4
:10295000B801C7010E944E140F900F900F900F9076
:10296000DF91CF911F910F91FF90EF900895EF921B
:10297000FF920F931F93CF93DF93CDB7DEB72797C7
:102980000FB6F894DEBF0FBECDBF7C01CB014AE08D
:1029900050E08E010F5F1F4FB8010E94761CF801B6
:1029A00001900020E9F7AF0141505109401B510B44
:1029B000B801C7010E944E1427960FB6F894DEBFE7
:1029C0000FBECDBFDF91CF911F910F91FF90EF9080
:1029D0000895EF92FF920F931F93CF93DF9300D050
:1029E00000D000D0CDB7DEB77C01CB014AE050E08B
:1029F0008E010F5F1F4FB8010E94BC1CF8010190AF
:102A00000020E9F7AF0141505109401B510BB801BB
:102A1000C7010E944E1426960FB6F894DEBF0FBE73
:102A2000CDBFDF91CF911F910F91FF90EF9008954F
:102A3000EF92FF920F931F93CF93DF93CDB7DEB743
:102A40002B970FB6F894DEBF0FBECDBF7C01CB0134
:102A5000BA012AE030E08E010F5F1F4FA8010E94EB
:102A6000971CF80101900020E9F7AF01415051098E
:102A7000401B510BB801C7010E944E142B960FB694
:102A8000F894DEBF0FBECDBFDF91CF911F910F91A4
:102A9000FF90EF900895FC01848195816817790774
:102AA00020F480819181009729F41092E10481EE55
:102AB00094E00895860F971F0895FC0124813581C5
:102AC0006217730748F480819181009729F0FC0117
:102AD000E60FF71F8081089580E00895FC012485AA
:102AE0003585F901E05CFF4F80819181F901EE5B52
:102AF000FF4F20813181821B930B8F73992708959B
:102B0000FC0184859585FC01E05CFF4F408151818B
:102B1000FC01EE5BFF4F208131814217530741F0EA
:102B20000190F081E02DE80FF91F808190E0089579
:102B30008FEF9FEF0895FC0184859585FC01E05C93
:102B4000FF4F40815181FC01EE5BFF4F20813181BD
:102B50004217530779F0A081B181A80FB91F8C915A
:102B6000208131812F5F3F4F2F73332731832083A3
:102B700090E008958FEF9FEF0895FC0181A18823D5
:102B800029F0A489B5898C9186FFFBCF11A2089505
:102B9000CF93DF93FC0126853785D901A05CBF4F19
:102BA0008D919C91119701968F739927E901CE5BC6
:102BB000DF4F4881598184179507D9F30D90BC9157
:102BC000A02DA20FB31F6C93A685B785A05CBF4F45
:102BD00011969C938E93A689B7892C9181E090E001
:102BE000078C02C0880F991F0A94E2F7282B2C93B8
:102BF00081E081A30488F589E02D80818064808351
:102C000081E090E0DF91CF91089508951F920F9297
:102C10000FB60F9211242F933F934F938F939F934F
:102C2000EF93FF938091C00082FD1CC04091C600CD
:102C3000809188059091890501968F73992720913D
:102C40008A0530918B058217930771F0E091880512
:102C5000F0918905E85BFA4F408390938905809352
:102C6000880502C08091C600FF91EF919F918F91DE
:102C70004F913F912F910F900FBE0F901F9018957D
:102C800082EE94E00E946E15892B11F00C940516CB
:102C900008951F920F920FB60F9211242F933F9316
:102CA0008F939F93EF93FF932091440530914505B7
:102CB00080914605909147052817390731F4809196
:102CC000C1008F7D8093C10014C0E0914605F09152
:102CD0004705EC5FFA4F20818091460590914705AA
:102CE00001968F739927909347058093460520930B
:102CF000C600FF91EF919F918F913F912F910F907F
:102D00000FBE0F901F901895CF92DF92EF92FF9217
:102D1000CF93DF93EC016A017B01411581EE5807E7
:102D200061057105F9F0EC89FD8981E090E008A06A
:102D300002C0880F991F0A94E2F7808360E079E06F
:102D40008DE390E0A70196010E942A1C21503109D1
:102D5000410951095695479537952795211580E1E9
:102D6000380798F0EC89FD89108260E874E88EE1FC
:102D700090E0A70196010E942A1C215031094109C7
:102D800051095695479537952795E889F9893083F4
:102D9000EA89FB89208319A2EE89FF89408181E0BD
:102DA00090E09C010C8C02C0220F331F0A94E2F7C2
:102DB000422B4083EE89FF8940819C010D8C02C02B
:102DC000220F331F0A94E2F7422B4083EE89FF89DA
:102DD00040819C010E8C02C0220F331F0A94E2F73F
:102DE000422B4083EE89FF8920810F8C02C0880F1F
:102DF000991F0A94E2F7809582238083DF91CF9117
:102E0000FF90EF90DF90CF9008951092E50410921C
:102E1000E40488EE93E0A0E0B0E08093E6049093B1
:102E2000E704A093E804B093E9048DE193E0909364
:102E3000E3048093E20488E495E09093EF048093A8
:102E4000EE0484E095E09093F1048093F00485EC27
:102E500090E09093F3048093F20484EC90E09093DC
:102E6000F5048093F40480EC90E09093F704809351
:102E7000F60481EC90E09093F9048093F80482ECDE
:102E800090E09093FB048093FA0486EC90E090939A
:102E9000FD048093FC0484E08093FE0483E080932F
:102EA000FF0487E08093000585E08093010581E0C1
:102EB000809302050895CF92DF92EF92FF920F93D5
:102EC0001F93CF93DF936C017A01EB01E60EF71E9F
:102ED00000E010E0CE15DF0561F06991D601ED91BB
:102EE000FC910190F081E02DC6010995080F191F92
:102EF000F1CFC801DF91CF911F910F91FF90EF901B
:102F0000DF90CF900895AF92BF92CF92DF92EF9271
:102F1000FF920F931F93CF93DF937C016B01C0E06F
:102F2000D0E000E010E0D60114968D919C911597A9
:102F3000C817D90788F4D701ED91FC91A080B18022
:102F4000BE01C6010E945D15682FC701F5010995F4
:102F5000080F191F2196E7CFC801DF91CF911F916C
:102F60000F91FF90EF90DF90CF90BF90AF900895BA
:102F7000DC01ED91FC910190F081E02D09940F931B
:102F80001F93CF93DF93EC016DE00E94B8178C0183
:102F90006AE0CE010E94B817800F911FDF91CF9198
:102FA0001F910F9108950F931F93CF93DF93EC011F
:102FB0000E9483178C01CE010E94BF17800F911FC2
:102FC000DF91CF911F910F910895CF93DF938230BE
:102FD000910510F482E090E0E0918E05F0918F056C
:102FE00020E030E0A0E0B0E0309739F1408151813D
:102FF00048175907B8F04817590771F4828193812F
:10300000109729F013969C938E9312972CC090934F
:103010008F0580938E0527C02115310531F04217A9
:10302000530718F0A901DB0101C0EF019A01BD01AE
:10303000DF010280F381E02DD7CF21153105F9F0B2
:10304000281B390B2430310580F48A819B8161155E
:10305000710521F0FB019383828304C090938F0557
:1030600080938E05FE01329644C0FE01E20FF31FED
:103070008193919322503109398328833AC020915A
:103080008C0530918D05232B41F420910B0130915B
:103090000C0130938D0520938C052091090130910E
:1030A0000A012115310541F42DB73EB740910D01BC
:1030B00050910E01241B350BE0918C05F0918D058C
:1030C000E217F307A0F42E1B3F0B2817390778F0FF
:1030D000AC014E5F5F4F2417350748F04E0F5F1F5E
:1030E00050938D0540938C058193919302C0E0E04D
:1030F000F0E0CF01DF91CF910895CF93DF93009758
:1031000009F487C0FC01329713821282C0918E05A8
:10311000D0918F05209781F420813181280F391FAC
:1031200080918C0590918D058217930779F5F09326
:103130008D05E0938C056DC0DE0120E030E0AE1718
:10314000BF0750F412964D915C9113979D01411564
:10315000510509F1DA01F3CFB383A2834081518194
:10316000840F951F8A179B0771F48D919C9111977D
:10317000840F951F02969183808312968D919C9166
:103180001397938382832115310529F4F0938F05DA
:10319000E0938E053EC0D9011396FC93EE931297EF
:1031A0004D915D91A40FB51FEA17FB0779F480815B
:1031B0009181840F951F0296D90111969C938E934D
:1031C0008281938113969C938E931297E0E0F0E0B6
:1031D0008A819B81009719F0FE01EC01F9CFCE01A5
:1031E000029628813981820F931F20918C0530919E
:1031F0008D052817390769F4309729F410928F0547
:1032000010928E0502C013821282D0938D05C09356
:103210008C05DF91CF9108956F927F928F929F924C
:10322000AF92BF92CF92DF92EF92FF920F931F93D4
:10323000CF93DF93EC01CB01209781F4DF91CF9105
:103240001F910F91FF90EF90DF90CF90BF90AF90C4
:103250009F908F907F906F900C94E517FE01E60F82
:10326000F71F9E0122503109E217F30708F4ACC0A2
:10327000D9010D911C91119706171707B8F0053069
:10328000110508F49FC0A80144505109461757077B
:1032900008F498C002501109061B170B01931193F3
:1032A0006D937C93CF010E947D188CC05B01A01AA6
:1032B000B10A4E01800E911EA0918E05B0918F052E
:1032C000612C712C60E070E0109709F449C0A815DA
:1032D000B905C9F5ED90FC901197670142E0C40E65
:1032E000D11CCA14DB0478F147018A189B086401D9
:1032F00042E0C40ED11C1296BC9012971396AC916A
:10330000B5E0CB16D10440F0B282A38391828082D3
:10331000D9018D939C9309C00E5F1F4F0E0D1F1D89
:10332000F90111830083EB2DFA2F6115710531F03E
:10333000DB011396FC93EE93129744C0F0938F0534
:10334000E0938E053FC06D917C91119766167706CC
:1033500008F43B01BD0112960D90BC91A02DB4CF95
:1033600060918C0570918D0568157905E9F46816F2
:103370007906D0F44091090150910A014115510597
:1033800041F44DB75EB760910D0170910E01461B7F
:10339000570BE417F507C0F4F0938D05E0938C0507
:1033A000F901918380830EC00E94E5177C0100978C
:1033B00059F0A801BE010E94661CCE010E947D1832
:1033C000C70104C0CE0102C080E090E0DF91CF9140
:1033D0001F910F91FF90EF90DF90CF90BF90AF9033
:1033E0009F908F907F906F9008955058BB27AA2789
:1033F0000ED04DC13ED130F043D120F031F49F3F8B
:1034000011F41EF433C10EF4E095E7FB29C1E92F56
:103410004FD180F3BA17620773078407950718F036
:1034200071F49EF567C10EF4E0950B2EBA2FA02D16
:103430000B01B90190010C01CA01A0011124FF2761
:10344000591B99F0593F50F4503E68F11A16F0405C
:10345000A22F232F342F4427585FF3CF469537955B
:103460002795A795F0405395C9F77EF41F16BA0B20
:10347000620B730B840BBAF09150A1F0FF0FBB1FCE
:10348000661F771F881FC2F70EC0BA0F621F731F17
:10349000841F48F4879577956795B795F7959E3F74
:1034A00008F0B3CF9395880F08F09927EE0F979502
:1034B000879508950CD0EBC0E3D040F0DAD030F01F
:1034C00021F45F3F19F0CCC0511115C1CFC0F0D02D
:1034D00098F39923C9F35523B1F3951B550BBB27DB
:1034E000AA2762177307840738F09F5F5F4F220F88
:1034F000331F441FAA1FA9F333D00E2E3AF0E0E881
:1035000030D091505040E695001CCAF729D0FE2FCC
:1035100027D0660F771F881FBB1F2617370748075E
:10352000AB07B0E809F0BB0B802DBF01FF27935814
:103530005F4F2AF09E3F510568F092C0DCC05F3FAC
:10354000ECF3983EDCF3869577956795B795F795FC
:103550009F5FC9F7880F911D9695879597F90895F4
:10356000E1E0660F771F881FBB1F62177307840790
:10357000BA0720F0621B730B840BBA0BEE1F88F79F
:10358000E095089504D06894B111B5C0089598D01D
:1035900088F09F5790F0B92F9927B751A0F0D1F03C
:1035A000660F771F881F991F1AF0BA95C9F712C0C6
:1035B000B13081F09FD0B1E008959CC0672F782F83
:1035C0008827B85F39F0B93FCCF386957795679532
:1035D000B395D9F73EF490958095709561957F4F9E
:1035E0008F4F9F4F0895E89409C097FB3EF4909544
:1035F0008095709561957F4F8F4F9F4F9923A9F0CC
:10360000F92F96E9BB279395F6958795779567955A
:10361000B795F111F8CFFAF4BB0F11F460FF1BC09E
:103620006F5F7F4F8F4F9F4F16C0882311F096E931
:1036300011C0772321F09EE8872F762F05C06623DF
:1036400071F096E8862F70E060E02AF09A95660F98
:10365000771F881FDAF7880F9695879597F9089551
:1036600097F99F6780E870E060E008959FEF80EC35
:10367000089500240A9416161706180609060895D8
:1036800000240A9412161306140605060895092E3E
:103690000394000C11F4882352F0BB0F40F4BF2BAD
:1036A00011F460FF04C06F5F7F4F8F4F9F4F0895ED
:1036B00057FD9058440F551F59F05F3F71F04795E3
:1036C000880F97FB991F61F09F3F79F087950895C8
:1036D000121613061406551FF2CF4695F1DF08C0E7
:1036E000161617061806991FF1CF86957105610504
:1036F00008940895E894BB2766277727CB0197F9AC
:1037000008950BD0C4CFB5DF28F0BADF18F09523A9
:1037100009F0A6CFABCF1124EECFCADFA0F3959F5F
:10372000D1F3950F50E0551F629FF001729FBB27A8
:10373000F00DB11D639FAA27F00DB11DAA1F649F54
:103740006627B00DA11D661F829F2227B00DA11D07
:10375000621F739FB00DA11D621F839FA00D611D8D
:10376000221F749F3327A00D611D231F849F600DAE
:10377000211D822F762F6A2F11249F5750408AF0E7
:10378000E1F088234AF0EE0FFF1FBB1F661F771F73
:10379000881F91505040A9F79E3F510570F060CFAF
:1037A000AACF5F3FECF3983EDCF38695779567955B
:1037B000B795F795E7959F5FC1F7FE2B880F911D91
:1037C0009695879597F90895A29FB001B39FC00180
:1037D000A39F700D811D1124911DB29F700D811D3D
:1037E0001124911D08950E94E41BA59F900DB49F84
:1037F000900DA49F800D911D11240895B7FF0C9486
:10380000F31B0E94F31B821B930B0895DB018F9324
:103810009F930E94F31BBF91AF91A29F800D911DBA
:10382000A39F900DB29F900D1124089597FB072E32
:1038300016F4009407D077FD09D00E944C1C07FCB9
:1038400005D03EF4909581959F4F089570956195B0
:103850007F4F0895A1E21A2EAA1BBB1BFD010DC0CC
:10386000AA1FBB1FEE1FFF1FA217B307E407F50730
:1038700020F0A21BB30BE40BF50B661F771F881F0C
:10388000991F1A9469F760957095809590959B01A2
:10389000AC01BD01CF010895AA1BBB1B51E107C0BC
:1038A000AA1FBB1FA617B70710F0A61BB70B881FD0
:1038B000991F5A95A9F780959095BC01CD0108955F
:1038C000EE0FFF1F0590F491E02D0994FB01DC0140
:1038D00002C001900D9241505040D8F70895FB016D
:1038E000DC0101900D920020E1F70895FB019F019A
:1038F000E8944230C4F04532B4F44A3029F497FBDE
:103900001EF4909581959F4F642F77270E944C1C41
:10391000805D8A330CF0895D8193CB010097A1F71C
:1039200016F45DE251931082C9010C94001FFA0154
:10393000CF93FF93EF932230CCF02532BCF4C22F0B
:103940002C2F332744275527FF93EF930E942A1CDF
:10395000EF91FF91605D6A330CF0695D6193B9018D
:10396000CA01605070408040904051F710828F91A2
:103970009F91CF910C94001FFB019F01423074F086
:10398000453264F4642F77270E944C1C805D8A3393
:103990000CF0895D8193CB010097A1F71082C901DA
:1039A0000C94001FAEE0B0E0E8EDFCE10C94AE1F1B
:1039B0000D891E898F89988D26E02C831A830983AF
:1039C00097FF02C080E090E801979E838D83AE014F
:1039D000455E5F4F698D7A8DCE0101960E94021D72
:1039E0004D815E8157FD0AC02F81388542175307EC
:1039F0000CF49A01F801E20FF31F10822E96E4E016
:103A00000C94CA1FACE0B0E0E8E0FDE10C94A01F0C
:103A10007C016B018A01FC0117821682838181FF80
:103A2000BDC1CE0101964C01F7019381F60193FDD2
:103A3000859193FF81916F01882309F4ABC1853291
:103A400039F493FD859193FF81916F01853229F4BB
:103A5000B70190E00E94101FE7CF512C312C20E0DD
:103A60002032A0F48B3269F030F4803259F0833286
:103A700069F420612CC08D3239F0803339F4216033
:103A800026C02260246023C0286021C027FD27C0F3
:103A900030ED380F3A3078F426FF06C0FAE05F9E2A
:103AA000300D1124532E13C08AE0389E300D11249E
:103AB000332E20620CC08E3221F426FD6BC12064AF
:103AC00006C08C3611F4206802C0883641F4F60135
:103AD00093FD859193FF81916F018111C1CF982F43
:103AE0009F7D9554933028F40C5F1F4FFFE3F983BB
:103AF0000DC0833631F0833771F0833509F05BC038
:103B000022C0F801808189830E5F1F4F44244394B3
:103B1000512C540115C03801F2E06F0E711CF801F0
:103B2000A080B18026FF03C0652D70E002C06FEF5A
:103B30007FEFC5012C870E94F51E2C0183012C8587
:103B40002F77222E17C03801F2E06F0E711CF8019A
:103B5000A080B18026FF03C0652D70E002C06FEF2A
:103B60007FEFC5012C870E94EA1E2C012C8520685E
:103B7000222E830123FC1BC0832D90E0481659069A
:103B8000B0F4B70180E290E00E94101F3A94F4CFA5
:103B9000F50127FC859127FE81915F01B70190E037
:103BA0000E94101F31103A94F1E04F1A510841144D
:103BB000510471F7E5C0843611F0893639F5F80102
:103BC00027FF07C060817181828193810C5F1F4F45
:103BD00008C060817181882777FD8095982F0E5FDE
:103BE0001F4F2F76B22E97FF09C090958095709544
:103BF00061957F4F8F4F9F4F2068B22E2AE030E0B3
:103C0000A4010E94421FA82EA81844C0853729F499
:103C10002F7EB22E2AE030E025C0F22FF97FBF2E92
:103C20008F36C1F018F4883579F0B4C0803719F0B8
:103C3000883721F0AFC02F2F2061B22EB4FE0DC007
:103C40008B2D8460B82E09C024FF0AC09F2F966078
:103C5000B92E06C028E030E005C020E130E002C007
:103C600020E132E0F801B7FE07C0608171818281F6
:103C700093810C5F1F4F06C06081718180E090E0EE
:103C80000E5F1F4FA4010E94421FA82EA818FB2DF3
:103C9000FF77BF2EB6FE0BC02B2D2E7FA51450F440
:103CA000B4FE0AC0B2FC08C02B2D2E7E05C07A2CB3
:103CB0002B2D03C07A2C01C0752C24FF0DC0FE01F2
:103CC000EA0DF11D8081803311F4297E09C022FFA5
:103CD00006C07394739404C0822F867809F073949D
:103CE00023FD13C020FF06C05A2C731418F4530C84
:103CF0005718732C731468F4B70180E290E02C8796
:103D00000E94101F73942C85F5CF731410F437188C
:103D100001C0312C24FF12C0B70180E390E02C8752
:103D20000E94101F2C8522FF17C021FF03C088E5C9
:103D300090E002C088E790E0B7010CC0822F86783F
:103D400059F021FD02C080E201C08BE227FD8DE227
:103D5000B70190E00E94101FA51438F4B70180E36A
:103D600090E00E94101F5A94F7CFAA94F401EA0D34
:103D7000F11D8081B70190E00E94101FA110F5CFC6
:103D8000332009F451CEB70180E290E00E94101F69
:103D90003A94F6CFF7018681978102C08FEF9FEFAB
:103DA0002C96E2E10C94BC1FF999FECF92BD81BD27
:103DB000F89A992780B50895262FF999FECF1FBA52
:103DC00092BD81BD20BD0FB6F894FA9AF99A0FBE44
:103DD00001960895FC010590615070400110D8F7DC
:103DE000809590958E0F9F1F0895FC016150704043
:103DF00001900110D8F7809590958E0F9F1F089520
:103E0000DC01FC01672F71917723E1F7329704C041
:103E10007C916D9370836291AE17BF07C8F30895CC
:103E20000F931F93CF93DF93182F092FEB018B81F3
:103E300081FD03C08FEF9FEF20C082FF10C04E8135
:103E40005F812C813D81421753077CF4E881F98121
:103E50009F012F5F3F4F39832883108306C0E88579
:103E6000F985812F0995892B29F72E813F812F5FB5
:103E70003F4F3F832E83812F902FDF91CF911F9152
:103E80000F910895FA01AA27283051F1203181F1CC
:103E9000E8946F936E7F6E5F7F4F8F4F9F4FAF4F52
:103EA000B1E03ED0B4E03CD0670F781F891F9A1F65
:103EB000A11D680F791F8A1F911DA11D6A0F711D19
:103EC000811D911DA11D20D009F468943F912AE025
:103ED000269F11243019305D3193DEF6CF0108950D
:103EE000462F4770405D4193B3E00FD0C9F7F6CF3E
:103EF000462F4F70405D4A3318F0495D31FD405206
:103F0000419302D0A9F7EACFB4E0A695979587959B
:103F100077956795BA95C9F700976105710508957A
:103F20009B01AC010A2E0694579547953795279526
:103F3000BA95C9F7620F731F841F951FA01D0895BE
:103F40002F923F924F925F926F927F928F929F92A9
:103F5000AF92BF92CF92DF92EF92FF920F931F9397
:103F6000CF93DF93CDB7DEB7CA1BDB0B0FB6F89448
:103F7000DEBF0FBECDBF09942A88398848885F8488
:103F80006E847D848C849B84AA84B984C884DF80F9
:103F9000EE80FD800C811B81AA81B981CE0FD11DDD
:103FA0000FB6F894DEBF0FBECDBFED01089511E04E
:103FB000C4E6D1E004C0FE010E94621C2296C6360F
:083FC000D107C9F7F894FFCF07
:103FC80000C800003C303034000000900580002517
:103FD800303278002A2A2A414354495641444F2016
:103FE8000028487A292A2A2A002A2A2A444553419D
:103FF8004354495641444F20002A2A2A2052454911
:104008004E494349414E444F2069616D616C697660
:104018006520757074696D653D002069616D616C1E
:104028006976653D002A2A2A2052454C4532204FA0
:104038004646202A2A2A002A2A2A204552524F5226
:10404800204352432C2073697A653D00204C41532C
:10405800543D00204352433D002A2A2A41435449F3
:104068005641444F2A2A2A002A2A2A4445534143C2
:1040780054495641444F2A2A2A002A2A2A20454DC3
:10408800455247204F46462052454C4532204F4E18
:10409800202A2A2A002A2A2A4348414E47452046F0
:1040A800524551200020487A2A2A2A20004170725D
:1040B80020203220323031340031303A35303A3134
:1040C80036002A2A2A205245494E494349414E443E
:1040D8004F2030783339202A2A2A004D6F64656DC5
:1040E8005F656E61626C65203D20002A2A2A20499E
:1040F800414D414C49564520544F4B454E20524561
:104108004345495645442A2A2A002A2A2A20494151
:104118004D414C49564520544F4B454E2054494D2E
:10412800452043414D424941444F20412000204D04
:10413800494E55544F53002A2A2A2049414D414C93
:1041480049564520544F4B454E2054494D4520452E
:104158005320003D3D3E0058424545203C3D3D2012
:104168002800290058426565203C3D3D00203D3E21
:10417800200020435243204552524F52002A2A2AF7
:1041880054494D45204F564552464C4F5720002A1A
:104198002A2A58424545204F4E2A2A2A0000000064
:1041A800000A0B5B17480A0D0A2E0A600A00000075
:1041B80000310D2F0D00000000450D410D000001DC
:1041C80000080020004000800000010004000001F9
:1041D80000080040000001000400000000C8155B52
:0A41E800176E159B158015BD15001C
:00000001FF
